{
    "contractName": "GemStepToken",
    "abi": [
        {
            "inputs": [],
            "name": "AccessControlBadConfirmation",
            "type": "error"
        },
        {
            "inputs": [
                {
                    "internalType": "address",
                    "name": "account",
                    "type": "address"
                },
                {
                    "internalType": "bytes32",
                    "name": "neededRole",
                    "type": "bytes32"
                }
            ],
            "name": "AccessControlUnauthorizedAccount",
            "type": "error"
        },
        {
            "inputs": [
                {
                    "internalType": "uint256",
                    "name": "confidenceBps",
                    "type": "uint256"
                },
                {
                    "internalType": "uint256",
                    "name": "minConfidenceBps",
                    "type": "uint256"
                }
            ],
            "name": "ConfidenceTooLow",
            "type": "error"
        },
        {
            "inputs": [
                {
                    "internalType": "address",
                    "name": "spender",
                    "type": "address"
                },
                {
                    "internalType": "uint256",
                    "name": "allowance",
                    "type": "uint256"
                },
                {
                    "internalType": "uint256",
                    "name": "needed",
                    "type": "uint256"
                }
            ],
            "name": "ERC20InsufficientAllowance",
            "type": "error"
        },
        {
            "inputs": [
                {
                    "internalType": "address",
                    "name": "sender",
                    "type": "address"
                },
                {
                    "internalType": "uint256",
                    "name": "balance",
                    "type": "uint256"
                },
                {
                    "internalType": "uint256",
                    "name": "needed",
                    "type": "uint256"
                }
            ],
            "name": "ERC20InsufficientBalance",
            "type": "error"
        },
        {
            "inputs": [
                {
                    "internalType": "address",
                    "name": "approver",
                    "type": "address"
                }
            ],
            "name": "ERC20InvalidApprover",
            "type": "error"
        },
        {
            "inputs": [
                {
                    "internalType": "address",
                    "name": "receiver",
                    "type": "address"
                }
            ],
            "name": "ERC20InvalidReceiver",
            "type": "error"
        },
        {
            "inputs": [
                {
                    "internalType": "address",
                    "name": "sender",
                    "type": "address"
                }
            ],
            "name": "ERC20InvalidSender",
            "type": "error"
        },
        {
            "inputs": [
                {
                    "internalType": "address",
                    "name": "spender",
                    "type": "address"
                }
            ],
            "name": "ERC20InvalidSpender",
            "type": "error"
        },
        {
            "inputs": [],
            "name": "EnforcedPause",
            "type": "error"
        },
        {
            "inputs": [],
            "name": "ExpectedPause",
            "type": "error"
        },
        {
            "inputs": [],
            "name": "InvalidInitialization",
            "type": "error"
        },
        {
            "inputs": [],
            "name": "NotInitializing",
            "type": "error"
        },
        {
            "inputs": [],
            "name": "ReentrancyGuardReentrantCall",
            "type": "error"
        },
        {
            "inputs": [
                {
                    "internalType": "uint256",
                    "name": "updatedAt",
                    "type": "uint256"
                },
                {
                    "internalType": "uint256",
                    "name": "nowTs",
                    "type": "uint256"
                },
                {
                    "internalType": "uint256",
                    "name": "maxStaleness",
                    "type": "uint256"
                }
            ],
            "name": "StalePrice",
            "type": "error"
        },
        {
            "anonymous": false,
            "inputs": [
                {
                    "indexed": true,
                    "internalType": "address",
                    "name": "newAdmin",
                    "type": "address"
                }
            ],
            "name": "AdminRolesTransferred",
            "type": "event"
        },
        {
            "anonymous": false,
            "inputs": [
                {
                    "indexed": true,
                    "internalType": "address",
                    "name": "owner",
                    "type": "address"
                },
                {
                    "indexed": true,
                    "internalType": "address",
                    "name": "spender",
                    "type": "address"
                },
                {
                    "indexed": false,
                    "internalType": "uint256",
                    "name": "value",
                    "type": "uint256"
                }
            ],
            "name": "Approval",
            "type": "event"
        },
        {
            "anonymous": false,
            "inputs": [
                {
                    "indexed": false,
                    "internalType": "string",
                    "name": "normVersion",
                    "type": "string"
                },
                {
                    "indexed": false,
                    "internalType": "bool",
                    "name": "required",
                    "type": "bool"
                }
            ],
            "name": "AttestationNonceRequirementSet",
            "type": "event"
        },
        {
            "anonymous": false,
            "inputs": [
                {
                    "indexed": false,
                    "internalType": "string",
                    "name": "version",
                    "type": "string"
                }
            ],
            "name": "AttestationVersionAdded",
            "type": "event"
        },
        {
            "anonymous": false,
            "inputs": [
                {
                    "indexed": false,
                    "internalType": "string",
                    "name": "version",
                    "type": "string"
                },
                {
                    "indexed": false,
                    "internalType": "uint256",
                    "name": "deprecatesAt",
                    "type": "uint256"
                }
            ],
            "name": "AttestationVersionDeprecated",
            "type": "event"
        },
        {
            "anonymous": false,
            "inputs": [],
            "name": "EIP712DomainChanged",
            "type": "event"
        },
        {
            "anonymous": false,
            "inputs": [
                {
                    "indexed": true,
                    "internalType": "address",
                    "name": "contractAddress",
                    "type": "address"
                }
            ],
            "name": "ERC1271ContractAdded",
            "type": "event"
        },
        {
            "anonymous": false,
            "inputs": [
                {
                    "indexed": true,
                    "internalType": "address",
                    "name": "contractAddress",
                    "type": "address"
                }
            ],
            "name": "ERC1271ContractRemoved",
            "type": "event"
        },
        {
            "anonymous": false,
            "inputs": [
                {
                    "indexed": true,
                    "internalType": "address",
                    "name": "sender",
                    "type": "address"
                },
                {
                    "indexed": false,
                    "internalType": "uint256",
                    "name": "amount",
                    "type": "uint256"
                }
            ],
            "name": "ETHReceived",
            "type": "event"
        },
        {
            "anonymous": false,
            "inputs": [
                {
                    "indexed": true,
                    "internalType": "address",
                    "name": "admin",
                    "type": "address"
                },
                {
                    "indexed": false,
                    "internalType": "uint256",
                    "name": "amount",
                    "type": "uint256"
                },
                {
                    "indexed": false,
                    "internalType": "uint256",
                    "name": "newTotalSupply",
                    "type": "uint256"
                }
            ],
            "name": "EmergencyWithdraw",
            "type": "event"
        },
        {
            "anonymous": false,
            "inputs": [
                {
                    "indexed": true,
                    "internalType": "address",
                    "name": "token",
                    "type": "address"
                },
                {
                    "indexed": true,
                    "internalType": "address",
                    "name": "to",
                    "type": "address"
                },
                {
                    "indexed": false,
                    "internalType": "uint256",
                    "name": "amount",
                    "type": "uint256"
                }
            ],
            "name": "EmergencyWithdrawERC20",
            "type": "event"
        },
        {
            "anonymous": false,
            "inputs": [
                {
                    "indexed": true,
                    "internalType": "address",
                    "name": "to",
                    "type": "address"
                },
                {
                    "indexed": false,
                    "internalType": "uint256",
                    "name": "amount",
                    "type": "uint256"
                }
            ],
            "name": "EmergencyWithdrawETH",
            "type": "event"
        },
        {
            "anonymous": false,
            "inputs": [
                {
                    "indexed": false,
                    "internalType": "bool",
                    "name": "enabled",
                    "type": "bool"
                },
                {
                    "indexed": false,
                    "internalType": "uint256",
                    "name": "unlockTime",
                    "type": "uint256"
                }
            ],
            "name": "EmergencyWithdrawEnabledChanged",
            "type": "event"
        },
        {
            "anonymous": false,
            "inputs": [
                {
                    "indexed": false,
                    "internalType": "uint64",
                    "name": "version",
                    "type": "uint64"
                }
            ],
            "name": "Initialized",
            "type": "event"
        },
        {
            "anonymous": false,
            "inputs": [
                {
                    "indexed": true,
                    "internalType": "address",
                    "name": "l1",
                    "type": "address"
                }
            ],
            "name": "L1GovernanceSet",
            "type": "event"
        },
        {
            "anonymous": false,
            "inputs": [
                {
                    "indexed": false,
                    "internalType": "uint256",
                    "name": "stepLimit",
                    "type": "uint256"
                },
                {
                    "indexed": false,
                    "internalType": "uint256",
                    "name": "rewardRate",
                    "type": "uint256"
                }
            ],
            "name": "L2ParamsUpdatedByL1",
            "type": "event"
        },
        {
            "anonymous": false,
            "inputs": [
                {
                    "indexed": false,
                    "internalType": "bool",
                    "name": "paused",
                    "type": "bool"
                }
            ],
            "name": "L2PausedByL1",
            "type": "event"
        },
        {
            "anonymous": false,
            "inputs": [
                {
                    "indexed": true,
                    "internalType": "uint256",
                    "name": "id",
                    "type": "uint256"
                },
                {
                    "indexed": false,
                    "internalType": "address",
                    "name": "to",
                    "type": "address"
                },
                {
                    "indexed": false,
                    "internalType": "bytes",
                    "name": "data",
                    "type": "bytes"
                }
            ],
            "name": "L2ToL1Tx",
            "type": "event"
        },
        {
            "anonymous": false,
            "inputs": [
                {
                    "indexed": false,
                    "internalType": "uint256",
                    "name": "newMonth",
                    "type": "uint256"
                }
            ],
            "name": "MonthAdvanced",
            "type": "event"
        },
        {
            "anonymous": false,
            "inputs": [
                {
                    "indexed": false,
                    "internalType": "uint256",
                    "name": "newStart",
                    "type": "uint256"
                },
                {
                    "indexed": false,
                    "internalType": "uint256",
                    "name": "currentCap",
                    "type": "uint256"
                }
            ],
            "name": "MonthRollover",
            "type": "event"
        },
        {
            "anonymous": false,
            "inputs": [
                {
                    "indexed": false,
                    "internalType": "uint256",
                    "name": "newCap",
                    "type": "uint256"
                },
                {
                    "indexed": false,
                    "internalType": "uint256",
                    "name": "halvingCount",
                    "type": "uint256"
                }
            ],
            "name": "MonthlyCapUpdated",
            "type": "event"
        },
        {
            "anonymous": false,
            "inputs": [
                {
                    "indexed": false,
                    "internalType": "address",
                    "name": "multisig",
                    "type": "address"
                }
            ],
            "name": "MultisigSet",
            "type": "event"
        },
        {
            "anonymous": false,
            "inputs": [
                {
                    "indexed": true,
                    "internalType": "address",
                    "name": "newOracle",
                    "type": "address"
                }
            ],
            "name": "OracleUpdated",
            "type": "event"
        },
        {
            "anonymous": false,
            "inputs": [
                {
                    "indexed": true,
                    "internalType": "string",
                    "name": "parameter",
                    "type": "string"
                },
                {
                    "indexed": false,
                    "internalType": "uint256",
                    "name": "oldValue",
                    "type": "uint256"
                },
                {
                    "indexed": false,
                    "internalType": "uint256",
                    "name": "newValue",
                    "type": "uint256"
                }
            ],
            "name": "ParameterUpdated",
            "type": "event"
        },
        {
            "anonymous": false,
            "inputs": [
                {
                    "indexed": false,
                    "internalType": "address",
                    "name": "account",
                    "type": "address"
                }
            ],
            "name": "Paused",
            "type": "event"
        },
        {
            "anonymous": false,
            "inputs": [
                {
                    "indexed": false,
                    "internalType": "string",
                    "name": "version",
                    "type": "string"
                }
            ],
            "name": "PayloadVersionAdded",
            "type": "event"
        },
        {
            "anonymous": false,
            "inputs": [
                {
                    "indexed": false,
                    "internalType": "string",
                    "name": "version",
                    "type": "string"
                },
                {
                    "indexed": false,
                    "internalType": "uint256",
                    "name": "deprecatesAt",
                    "type": "uint256"
                }
            ],
            "name": "PayloadVersionDeprecated",
            "type": "event"
        },
        {
            "anonymous": false,
            "inputs": [
                {
                    "indexed": true,
                    "internalType": "address",
                    "name": "user",
                    "type": "address"
                },
                {
                    "indexed": false,
                    "internalType": "uint256",
                    "name": "amount",
                    "type": "uint256"
                }
            ],
            "name": "PenaltyApplied",
            "type": "event"
        },
        {
            "anonymous": false,
            "inputs": [
                {
                    "indexed": true,
                    "internalType": "address",
                    "name": "recipient",
                    "type": "address"
                },
                {
                    "indexed": false,
                    "internalType": "bool",
                    "name": "approved",
                    "type": "bool"
                }
            ],
            "name": "RecipientApprovalChanged",
            "type": "event"
        },
        {
            "anonymous": false,
            "inputs": [
                {
                    "indexed": true,
                    "internalType": "address",
                    "name": "user",
                    "type": "address"
                },
                {
                    "indexed": true,
                    "internalType": "address",
                    "name": "beneficiary",
                    "type": "address"
                },
                {
                    "indexed": false,
                    "internalType": "uint256",
                    "name": "steps",
                    "type": "uint256"
                },
                {
                    "indexed": false,
                    "internalType": "uint256",
                    "name": "rewardAmount",
                    "type": "uint256"
                },
                {
                    "indexed": false,
                    "internalType": "uint256",
                    "name": "timestamp",
                    "type": "uint256"
                },
                {
                    "indexed": false,
                    "internalType": "string",
                    "name": "source",
                    "type": "string"
                },
                {
                    "indexed": false,
                    "internalType": "string",
                    "name": "version",
                    "type": "string"
                }
            ],
            "name": "RewardClaimed",
            "type": "event"
        },
        {
            "anonymous": false,
            "inputs": [
                {
                    "indexed": true,
                    "internalType": "bytes32",
                    "name": "role",
                    "type": "bytes32"
                },
                {
                    "indexed": true,
                    "internalType": "bytes32",
                    "name": "previousAdminRole",
                    "type": "bytes32"
                },
                {
                    "indexed": true,
                    "internalType": "bytes32",
                    "name": "newAdminRole",
                    "type": "bytes32"
                }
            ],
            "name": "RoleAdminChanged",
            "type": "event"
        },
        {
            "anonymous": false,
            "inputs": [
                {
                    "indexed": true,
                    "internalType": "bytes32",
                    "name": "role",
                    "type": "bytes32"
                },
                {
                    "indexed": true,
                    "internalType": "address",
                    "name": "account",
                    "type": "address"
                },
                {
                    "indexed": true,
                    "internalType": "address",
                    "name": "sender",
                    "type": "address"
                }
            ],
            "name": "RoleGranted",
            "type": "event"
        },
        {
            "anonymous": false,
            "inputs": [
                {
                    "indexed": true,
                    "internalType": "bytes32",
                    "name": "role",
                    "type": "bytes32"
                },
                {
                    "indexed": true,
                    "internalType": "address",
                    "name": "account",
                    "type": "address"
                },
                {
                    "indexed": true,
                    "internalType": "address",
                    "name": "sender",
                    "type": "address"
                }
            ],
            "name": "RoleRevoked",
            "type": "event"
        },
        {
            "anonymous": false,
            "inputs": [
                {
                    "indexed": true,
                    "internalType": "bytes32",
                    "name": "signatureHash",
                    "type": "bytes32"
                }
            ],
            "name": "SignatureCleared",
            "type": "event"
        },
        {
            "anonymous": false,
            "inputs": [
                {
                    "indexed": true,
                    "internalType": "address",
                    "name": "signer",
                    "type": "address"
                }
            ],
            "name": "SignerAdded",
            "type": "event"
        },
        {
            "anonymous": false,
            "inputs": [
                {
                    "indexed": true,
                    "internalType": "address",
                    "name": "signer",
                    "type": "address"
                }
            ],
            "name": "SignerRemoved",
            "type": "event"
        },
        {
            "anonymous": false,
            "inputs": [
                {
                    "indexed": true,
                    "internalType": "string",
                    "name": "source",
                    "type": "string"
                }
            ],
            "name": "SourceAdded",
            "type": "event"
        },
        {
            "anonymous": false,
            "inputs": [
                {
                    "indexed": false,
                    "internalType": "string",
                    "name": "source",
                    "type": "string"
                },
                {
                    "indexed": false,
                    "internalType": "bool",
                    "name": "requiresProof",
                    "type": "bool"
                },
                {
                    "indexed": false,
                    "internalType": "bool",
                    "name": "requiresAttestation",
                    "type": "bool"
                }
            ],
            "name": "SourceConfigured",
            "type": "event"
        },
        {
            "anonymous": false,
            "inputs": [
                {
                    "indexed": false,
                    "internalType": "string",
                    "name": "source",
                    "type": "string"
                },
                {
                    "indexed": false,
                    "internalType": "bytes32",
                    "name": "root",
                    "type": "bytes32"
                }
            ],
            "name": "SourceMerkleRootSet",
            "type": "event"
        },
        {
            "anonymous": false,
            "inputs": [
                {
                    "indexed": true,
                    "internalType": "string",
                    "name": "source",
                    "type": "string"
                }
            ],
            "name": "SourceRemoved",
            "type": "event"
        },
        {
            "anonymous": false,
            "inputs": [],
            "name": "SourcesInitialized",
            "type": "event"
        },
        {
            "anonymous": false,
            "inputs": [
                {
                    "indexed": false,
                    "internalType": "bool",
                    "name": "locked",
                    "type": "bool"
                }
            ],
            "name": "StakeEmergencyLocked",
            "type": "event"
        },
        {
            "anonymous": false,
            "inputs": [
                {
                    "indexed": false,
                    "internalType": "uint256",
                    "name": "newStakePerStep",
                    "type": "uint256"
                },
                {
                    "indexed": false,
                    "internalType": "uint256",
                    "name": "timestamp",
                    "type": "uint256"
                }
            ],
            "name": "StakeParametersUpdated",
            "type": "event"
        },
        {
            "anonymous": false,
            "inputs": [
                {
                    "indexed": true,
                    "internalType": "address",
                    "name": "user",
                    "type": "address"
                },
                {
                    "indexed": false,
                    "internalType": "uint256",
                    "name": "amount",
                    "type": "uint256"
                }
            ],
            "name": "Staked",
            "type": "event"
        },
        {
            "anonymous": false,
            "inputs": [
                {
                    "indexed": true,
                    "internalType": "string",
                    "name": "parameter",
                    "type": "string"
                },
                {
                    "indexed": false,
                    "internalType": "uint256",
                    "name": "unlockTime",
                    "type": "uint256"
                }
            ],
            "name": "TimelockSet",
            "type": "event"
        },
        {
            "anonymous": false,
            "inputs": [
                {
                    "indexed": true,
                    "internalType": "address",
                    "name": "from",
                    "type": "address"
                },
                {
                    "indexed": false,
                    "internalType": "uint256",
                    "name": "amount",
                    "type": "uint256"
                },
                {
                    "indexed": false,
                    "internalType": "uint256",
                    "name": "newTotalSupply",
                    "type": "uint256"
                }
            ],
            "name": "TokensBurned",
            "type": "event"
        },
        {
            "anonymous": false,
            "inputs": [
                {
                    "indexed": true,
                    "internalType": "address",
                    "name": "to",
                    "type": "address"
                },
                {
                    "indexed": false,
                    "internalType": "uint256",
                    "name": "amount",
                    "type": "uint256"
                },
                {
                    "indexed": false,
                    "internalType": "uint256",
                    "name": "newTotalSupply",
                    "type": "uint256"
                }
            ],
            "name": "TokensMinted",
            "type": "event"
        },
        {
            "anonymous": false,
            "inputs": [
                {
                    "indexed": true,
                    "internalType": "address",
                    "name": "from",
                    "type": "address"
                },
                {
                    "indexed": true,
                    "internalType": "address",
                    "name": "to",
                    "type": "address"
                },
                {
                    "indexed": false,
                    "internalType": "uint256",
                    "name": "value",
                    "type": "uint256"
                }
            ],
            "name": "Transfer",
            "type": "event"
        },
        {
            "anonymous": false,
            "inputs": [
                {
                    "indexed": true,
                    "internalType": "address",
                    "name": "treasury",
                    "type": "address"
                }
            ],
            "name": "TreasurySet",
            "type": "event"
        },
        {
            "anonymous": false,
            "inputs": [
                {
                    "indexed": true,
                    "internalType": "address",
                    "name": "contractAddr",
                    "type": "address"
                },
                {
                    "indexed": false,
                    "internalType": "bool",
                    "name": "trusted",
                    "type": "bool"
                }
            ],
            "name": "Trusted1271Set",
            "type": "event"
        },
        {
            "anonymous": false,
            "inputs": [
                {
                    "indexed": true,
                    "internalType": "address",
                    "name": "api",
                    "type": "address"
                },
                {
                    "indexed": false,
                    "internalType": "bool",
                    "name": "trusted",
                    "type": "bool"
                }
            ],
            "name": "TrustedAPISet",
            "type": "event"
        },
        {
            "anonymous": false,
            "inputs": [
                {
                    "indexed": true,
                    "internalType": "address",
                    "name": "device",
                    "type": "address"
                }
            ],
            "name": "TrustedDeviceAdded",
            "type": "event"
        },
        {
            "anonymous": false,
            "inputs": [
                {
                    "indexed": false,
                    "internalType": "address",
                    "name": "account",
                    "type": "address"
                }
            ],
            "name": "Unpaused",
            "type": "event"
        },
        {
            "anonymous": false,
            "inputs": [
                {
                    "indexed": true,
                    "internalType": "address",
                    "name": "cancelledImplementation",
                    "type": "address"
                }
            ],
            "name": "UpgradeCancelled",
            "type": "event"
        },
        {
            "anonymous": false,
            "inputs": [
                {
                    "indexed": true,
                    "internalType": "address",
                    "name": "newImplementation",
                    "type": "address"
                },
                {
                    "indexed": false,
                    "internalType": "uint256",
                    "name": "scheduledTime",
                    "type": "uint256"
                }
            ],
            "name": "UpgradeScheduled",
            "type": "event"
        },
        {
            "anonymous": false,
            "inputs": [
                {
                    "indexed": false,
                    "internalType": "uint256",
                    "name": "version",
                    "type": "uint256"
                },
                {
                    "indexed": true,
                    "internalType": "address",
                    "name": "newImplementation",
                    "type": "address"
                }
            ],
            "name": "Upgraded",
            "type": "event"
        },
        {
            "anonymous": false,
            "inputs": [
                {
                    "indexed": true,
                    "internalType": "address",
                    "name": "user",
                    "type": "address"
                },
                {
                    "indexed": false,
                    "internalType": "uint256",
                    "name": "until",
                    "type": "uint256"
                }
            ],
            "name": "UserSuspended",
            "type": "event"
        },
        {
            "anonymous": false,
            "inputs": [
                {
                    "indexed": false,
                    "internalType": "string",
                    "name": "version",
                    "type": "string"
                }
            ],
            "name": "VersionAdded",
            "type": "event"
        },
        {
            "anonymous": false,
            "inputs": [
                {
                    "indexed": true,
                    "internalType": "address",
                    "name": "user",
                    "type": "address"
                },
                {
                    "indexed": false,
                    "internalType": "uint256",
                    "name": "amount",
                    "type": "uint256"
                }
            ],
            "name": "Withdrawn",
            "type": "event"
        },
        {
            "inputs": [],
            "name": "DECIMALS",
            "outputs": [
                {
                    "internalType": "uint8",
                    "name": "",
                    "type": "uint8"
                }
            ],
            "stateMutability": "view",
            "type": "function"
        },
        {
            "inputs": [],
            "name": "DEFAULT_ADMIN_ROLE",
            "outputs": [
                {
                    "internalType": "bytes32",
                    "name": "",
                    "type": "bytes32"
                }
            ],
            "stateMutability": "view",
            "type": "function"
        },
        {
            "inputs": [],
            "name": "DOMAIN_NAME",
            "outputs": [
                {
                    "internalType": "string",
                    "name": "",
                    "type": "string"
                }
            ],
            "stateMutability": "view",
            "type": "function"
        },
        {
            "inputs": [],
            "name": "DOMAIN_VERSION",
            "outputs": [
                {
                    "internalType": "string",
                    "name": "",
                    "type": "string"
                }
            ],
            "stateMutability": "view",
            "type": "function"
        },
        {
            "inputs": [
                {
                    "internalType": "string",
                    "name": "source",
                    "type": "string"
                }
            ],
            "name": "addSource",
            "outputs": [],
            "stateMutability": "nonpayable",
            "type": "function"
        },
        {
            "inputs": [
                {
                    "internalType": "string",
                    "name": "version",
                    "type": "string"
                }
            ],
            "name": "addSupportedAttestationVersion",
            "outputs": [],
            "stateMutability": "nonpayable",
            "type": "function"
        },
        {
            "inputs": [
                {
                    "internalType": "string",
                    "name": "version",
                    "type": "string"
                }
            ],
            "name": "addSupportedPayloadVersion",
            "outputs": [],
            "stateMutability": "nonpayable",
            "type": "function"
        },
        {
            "inputs": [
                {
                    "internalType": "string",
                    "name": "version",
                    "type": "string"
                }
            ],
            "name": "addSupportedVersion",
            "outputs": [],
            "stateMutability": "nonpayable",
            "type": "function"
        },
        {
            "inputs": [
                {
                    "internalType": "address",
                    "name": "device",
                    "type": "address"
                }
            ],
            "name": "addTrustedDevice",
            "outputs": [],
            "stateMutability": "nonpayable",
            "type": "function"
        },
        {
            "inputs": [],
            "name": "adjustStakeRequirements",
            "outputs": [],
            "stateMutability": "nonpayable",
            "type": "function"
        },
        {
            "inputs": [
                {
                    "internalType": "address",
                    "name": "owner",
                    "type": "address"
                },
                {
                    "internalType": "address",
                    "name": "spender",
                    "type": "address"
                }
            ],
            "name": "allowance",
            "outputs": [
                {
                    "internalType": "uint256",
                    "name": "",
                    "type": "uint256"
                }
            ],
            "stateMutability": "view",
            "type": "function"
        },
        {
            "inputs": [],
            "name": "anomalyThreshold",
            "outputs": [
                {
                    "internalType": "uint256",
                    "name": "",
                    "type": "uint256"
                }
            ],
            "stateMutability": "view",
            "type": "function"
        },
        {
            "inputs": [
                {
                    "internalType": "address",
                    "name": "spender",
                    "type": "address"
                },
                {
                    "internalType": "uint256",
                    "name": "value",
                    "type": "uint256"
                }
            ],
            "name": "approve",
            "outputs": [
                {
                    "internalType": "bool",
                    "name": "",
                    "type": "bool"
                }
            ],
            "stateMutability": "nonpayable",
            "type": "function"
        },
        {
            "inputs": [
                {
                    "internalType": "address",
                    "name": "recipient",
                    "type": "address"
                },
                {
                    "internalType": "bool",
                    "name": "approved",
                    "type": "bool"
                }
            ],
            "name": "approveRecipient",
            "outputs": [],
            "stateMutability": "nonpayable",
            "type": "function"
        },
        {
            "inputs": [
                {
                    "internalType": "address",
                    "name": "",
                    "type": "address"
                }
            ],
            "name": "approvedRecipients",
            "outputs": [
                {
                    "internalType": "bool",
                    "name": "",
                    "type": "bool"
                }
            ],
            "stateMutability": "view",
            "type": "function"
        },
        {
            "inputs": [
                {
                    "internalType": "address",
                    "name": "account",
                    "type": "address"
                }
            ],
            "name": "balanceOf",
            "outputs": [
                {
                    "internalType": "uint256",
                    "name": "",
                    "type": "uint256"
                }
            ],
            "stateMutability": "view",
            "type": "function"
        },
        {
            "inputs": [
                {
                    "internalType": "address[]",
                    "name": "signers",
                    "type": "address[]"
                }
            ],
            "name": "batchAddSigners",
            "outputs": [],
            "stateMutability": "nonpayable",
            "type": "function"
        },
        {
            "inputs": [
                {
                    "internalType": "string[]",
                    "name": "sources",
                    "type": "string[]"
                }
            ],
            "name": "batchAddSources",
            "outputs": [],
            "stateMutability": "nonpayable",
            "type": "function"
        },
        {
            "inputs": [
                {
                    "internalType": "address[]",
                    "name": "signers",
                    "type": "address[]"
                }
            ],
            "name": "batchRemoveSigners",
            "outputs": [],
            "stateMutability": "nonpayable",
            "type": "function"
        },
        {
            "inputs": [
                {
                    "internalType": "uint256",
                    "name": "amount",
                    "type": "uint256"
                }
            ],
            "name": "burn",
            "outputs": [],
            "stateMutability": "nonpayable",
            "type": "function"
        },
        {
            "inputs": [],
            "name": "cap",
            "outputs": [
                {
                    "internalType": "uint256",
                    "name": "",
                    "type": "uint256"
                }
            ],
            "stateMutability": "pure",
            "type": "function"
        },
        {
            "inputs": [
                {
                    "internalType": "bytes32[]",
                    "name": "sigHashes",
                    "type": "bytes32[]"
                }
            ],
            "name": "clearExpiredSignatures",
            "outputs": [],
            "stateMutability": "nonpayable",
            "type": "function"
        },
        {
            "inputs": [
                {
                    "internalType": "string",
                    "name": "source",
                    "type": "string"
                },
                {
                    "internalType": "bool",
                    "name": "requiresProof",
                    "type": "bool"
                },
                {
                    "internalType": "bool",
                    "name": "requiresAttestation",
                    "type": "bool"
                }
            ],
            "name": "configureSource",
            "outputs": [],
            "stateMutability": "nonpayable",
            "type": "function"
        },
        {
            "inputs": [],
            "name": "decimals",
            "outputs": [
                {
                    "internalType": "uint8",
                    "name": "",
                    "type": "uint8"
                }
            ],
            "stateMutability": "view",
            "type": "function"
        },
        {
            "inputs": [
                {
                    "internalType": "string",
                    "name": "version",
                    "type": "string"
                },
                {
                    "internalType": "uint256",
                    "name": "when",
                    "type": "uint256"
                }
            ],
            "name": "deprecateAttestationVersion",
            "outputs": [],
            "stateMutability": "nonpayable",
            "type": "function"
        },
        {
            "inputs": [
                {
                    "internalType": "string",
                    "name": "version",
                    "type": "string"
                },
                {
                    "internalType": "uint256",
                    "name": "when",
                    "type": "uint256"
                }
            ],
            "name": "deprecatePayloadVersion",
            "outputs": [],
            "stateMutability": "nonpayable",
            "type": "function"
        },
        {
            "inputs": [],
            "name": "eip712Domain",
            "outputs": [
                {
                    "internalType": "bytes1",
                    "name": "fields",
                    "type": "bytes1"
                },
                {
                    "internalType": "string",
                    "name": "name",
                    "type": "string"
                },
                {
                    "internalType": "string",
                    "name": "version",
                    "type": "string"
                },
                {
                    "internalType": "uint256",
                    "name": "chainId",
                    "type": "uint256"
                },
                {
                    "internalType": "address",
                    "name": "verifyingContract",
                    "type": "address"
                },
                {
                    "internalType": "bytes32",
                    "name": "salt",
                    "type": "bytes32"
                },
                {
                    "internalType": "uint256[]",
                    "name": "extensions",
                    "type": "uint256[]"
                }
            ],
            "stateMutability": "view",
            "type": "function"
        },
        {
            "inputs": [
                {
                    "internalType": "address",
                    "name": "l1Target",
                    "type": "address"
                },
                {
                    "internalType": "bytes",
                    "name": "data",
                    "type": "bytes"
                }
            ],
            "name": "emergencyPingL1",
            "outputs": [
                {
                    "internalType": "uint256",
                    "name": "id",
                    "type": "uint256"
                }
            ],
            "stateMutability": "nonpayable",
            "type": "function"
        },
        {
            "inputs": [
                {
                    "internalType": "uint256",
                    "name": "amount",
                    "type": "uint256"
                }
            ],
            "name": "emergencyWithdraw",
            "outputs": [],
            "stateMutability": "nonpayable",
            "type": "function"
        },
        {
            "inputs": [
                {
                    "internalType": "contract IERC20Upgradeable",
                    "name": "token",
                    "type": "address"
                },
                {
                    "internalType": "address",
                    "name": "to",
                    "type": "address"
                },
                {
                    "internalType": "uint256",
                    "name": "amount",
                    "type": "uint256"
                }
            ],
            "name": "emergencyWithdrawERC20",
            "outputs": [],
            "stateMutability": "nonpayable",
            "type": "function"
        },
        {
            "inputs": [
                {
                    "internalType": "address payable",
                    "name": "to",
                    "type": "address"
                },
                {
                    "internalType": "uint256",
                    "name": "amount",
                    "type": "uint256"
                }
            ],
            "name": "emergencyWithdrawETH",
            "outputs": [],
            "stateMutability": "nonpayable",
            "type": "function"
        },
        {
            "inputs": [
                {
                    "internalType": "uint256",
                    "name": "steps",
                    "type": "uint256"
                }
            ],
            "name": "estimateReward",
            "outputs": [
                {
                    "internalType": "uint256",
                    "name": "",
                    "type": "uint256"
                }
            ],
            "stateMutability": "view",
            "type": "function"
        },
        {
            "inputs": [],
            "name": "getArbitrumConfig",
            "outputs": [
                {
                    "internalType": "address",
                    "name": "inbox",
                    "type": "address"
                },
                {
                    "internalType": "address",
                    "name": "l1Validator_",
                    "type": "address"
                },
                {
                    "internalType": "uint256",
                    "name": "maxGas",
                    "type": "uint256"
                },
                {
                    "internalType": "uint256",
                    "name": "gasPriceBid",
                    "type": "uint256"
                },
                {
                    "internalType": "uint256",
                    "name": "maxSubmissionCost",
                    "type": "uint256"
                }
            ],
            "stateMutability": "view",
            "type": "function"
        },
        {
            "inputs": [
                {
                    "internalType": "bytes32",
                    "name": "v",
                    "type": "bytes32"
                }
            ],
            "name": "getAttestationVersionInfo",
            "outputs": [
                {
                    "internalType": "bool",
                    "name": "supported",
                    "type": "bool"
                },
                {
                    "internalType": "uint256",
                    "name": "deprecatesAt",
                    "type": "uint256"
                },
                {
                    "internalType": "bool",
                    "name": "requiresNonce",
                    "type": "bool"
                }
            ],
            "stateMutability": "view",
            "type": "function"
        },
        {
            "inputs": [],
            "name": "getCoreParams",
            "outputs": [
                {
                    "internalType": "uint256",
                    "name": "_burnFee",
                    "type": "uint256"
                },
                {
                    "internalType": "uint256",
                    "name": "_rewardRate",
                    "type": "uint256"
                },
                {
                    "internalType": "uint256",
                    "name": "_stepLimit",
                    "type": "uint256"
                },
                {
                    "internalType": "uint256",
                    "name": "_signatureValidityPeriod",
                    "type": "uint256"
                }
            ],
            "stateMutability": "view",
            "type": "function"
        },
        {
            "inputs": [],
            "name": "getDistribution",
            "outputs": [
                {
                    "internalType": "uint256",
                    "name": "_distributedTotal",
                    "type": "uint256"
                },
                {
                    "internalType": "uint256",
                    "name": "_currentMonthlyCap",
                    "type": "uint256"
                }
            ],
            "stateMutability": "view",
            "type": "function"
        },
        {
            "inputs": [],
            "name": "getEmergencyStatus",
            "outputs": [
                {
                    "internalType": "bool",
                    "name": "enabled",
                    "type": "bool"
                },
                {
                    "internalType": "uint256",
                    "name": "unlockTime",
                    "type": "uint256"
                }
            ],
            "stateMutability": "view",
            "type": "function"
        },
        {
            "inputs": [],
            "name": "getHalvingInfo",
            "outputs": [
                {
                    "internalType": "uint256",
                    "name": "currentHalvingCount",
                    "type": "uint256"
                },
                {
                    "internalType": "uint256",
                    "name": "nextHalvingThreshold",
                    "type": "uint256"
                },
                {
                    "internalType": "uint256",
                    "name": "remainingUntilHalving",
                    "type": "uint256"
                }
            ],
            "stateMutability": "view",
            "type": "function"
        },
        {
            "inputs": [],
            "name": "getL1Governance",
            "outputs": [
                {
                    "internalType": "address",
                    "name": "",
                    "type": "address"
                }
            ],
            "stateMutability": "view",
            "type": "function"
        },
        {
            "inputs": [],
            "name": "getL1GovernanceStatus",
            "outputs": [
                {
                    "internalType": "address",
                    "name": "configuredL1Governance",
                    "type": "address"
                },
                {
                    "internalType": "address",
                    "name": "aliasedL1Governance",
                    "type": "address"
                },
                {
                    "internalType": "bool",
                    "name": "isL1GovernanceCall",
                    "type": "bool"
                }
            ],
            "stateMutability": "view",
            "type": "function"
        },
        {
            "inputs": [],
            "name": "getMonthInfo",
            "outputs": [
                {
                    "internalType": "uint256",
                    "name": "month",
                    "type": "uint256"
                },
                {
                    "internalType": "uint256",
                    "name": "minted",
                    "type": "uint256"
                },
                {
                    "internalType": "uint256",
                    "name": "limit",
                    "type": "uint256"
                },
                {
                    "internalType": "uint256",
                    "name": "timestamp",
                    "type": "uint256"
                },
                {
                    "internalType": "uint256",
                    "name": "halvingIdx",
                    "type": "uint256"
                }
            ],
            "stateMutability": "view",
            "type": "function"
        },
        {
            "inputs": [
                {
                    "internalType": "bytes32",
                    "name": "v",
                    "type": "bytes32"
                }
            ],
            "name": "getPayloadVersionInfo",
            "outputs": [
                {
                    "internalType": "bool",
                    "name": "supported",
                    "type": "bool"
                },
                {
                    "internalType": "uint256",
                    "name": "deprecatesAt",
                    "type": "uint256"
                }
            ],
            "stateMutability": "view",
            "type": "function"
        },
        {
            "inputs": [],
            "name": "getPolicyConstantsPacked",
            "outputs": [
                {
                    "internalType": "uint256[4]",
                    "name": "policy",
                    "type": "uint256[4]"
                }
            ],
            "stateMutability": "pure",
            "type": "function"
        },
        {
            "inputs": [],
            "name": "getPriceOracle",
            "outputs": [
                {
                    "internalType": "address",
                    "name": "",
                    "type": "address"
                }
            ],
            "stateMutability": "view",
            "type": "function"
        },
        {
            "inputs": [],
            "name": "getPublicConstantsPacked",
            "outputs": [
                {
                    "internalType": "uint256[16]",
                    "name": "out",
                    "type": "uint256[16]"
                }
            ],
            "stateMutability": "pure",
            "type": "function"
        },
        {
            "inputs": [
                {
                    "internalType": "bytes32",
                    "name": "role",
                    "type": "bytes32"
                }
            ],
            "name": "getRoleAdmin",
            "outputs": [
                {
                    "internalType": "bytes32",
                    "name": "",
                    "type": "bytes32"
                }
            ],
            "stateMutability": "view",
            "type": "function"
        },
        {
            "inputs": [],
            "name": "getRoleIdsPacked",
            "outputs": [
                {
                    "internalType": "bytes32[7]",
                    "name": "roles",
                    "type": "bytes32[7]"
                }
            ],
            "stateMutability": "pure",
            "type": "function"
        },
        {
            "inputs": [
                {
                    "internalType": "string",
                    "name": "source",
                    "type": "string"
                }
            ],
            "name": "getSourceConfig",
            "outputs": [
                {
                    "internalType": "bool",
                    "name": "requiresProof",
                    "type": "bool"
                },
                {
                    "internalType": "bool",
                    "name": "requiresAttestation",
                    "type": "bool"
                },
                {
                    "internalType": "bytes32",
                    "name": "merkleRoot",
                    "type": "bytes32"
                },
                {
                    "internalType": "uint256",
                    "name": "maxStepsPerDay",
                    "type": "uint256"
                },
                {
                    "internalType": "uint256",
                    "name": "minInterval",
                    "type": "uint256"
                }
            ],
            "stateMutability": "view",
            "type": "function"
        },
        {
            "inputs": [],
            "name": "getStakeConstants",
            "outputs": [
                {
                    "internalType": "uint256",
                    "name": "minStakePerStep",
                    "type": "uint256"
                },
                {
                    "internalType": "uint256",
                    "name": "maxStakePerStep",
                    "type": "uint256"
                },
                {
                    "internalType": "uint256",
                    "name": "adjustCooldown",
                    "type": "uint256"
                }
            ],
            "stateMutability": "pure",
            "type": "function"
        },
        {
            "inputs": [],
            "name": "getStakeParams",
            "outputs": [
                {
                    "internalType": "uint256",
                    "name": "stakePerStep",
                    "type": "uint256"
                },
                {
                    "internalType": "uint256",
                    "name": "lastAdjustTs",
                    "type": "uint256"
                },
                {
                    "internalType": "bool",
                    "name": "locked",
                    "type": "bool"
                }
            ],
            "stateMutability": "view",
            "type": "function"
        },
        {
            "inputs": [
                {
                    "internalType": "address",
                    "name": "user",
                    "type": "address"
                }
            ],
            "name": "getUserCoreStatus",
            "outputs": [
                {
                    "internalType": "uint256",
                    "name": "stepAverageScaled",
                    "type": "uint256"
                },
                {
                    "internalType": "uint256",
                    "name": "flaggedCount",
                    "type": "uint256"
                },
                {
                    "internalType": "uint256",
                    "name": "suspendedUntilTs",
                    "type": "uint256"
                },
                {
                    "internalType": "uint256",
                    "name": "stakedWei",
                    "type": "uint256"
                },
                {
                    "internalType": "bool",
                    "name": "apiTrusted",
                    "type": "bool"
                },
                {
                    "internalType": "uint256",
                    "name": "firstSubmissionTs",
                    "type": "uint256"
                }
            ],
            "stateMutability": "view",
            "type": "function"
        },
        {
            "inputs": [
                {
                    "internalType": "address",
                    "name": "user",
                    "type": "address"
                },
                {
                    "internalType": "string",
                    "name": "source",
                    "type": "string"
                }
            ],
            "name": "getUserSourceNonce",
            "outputs": [
                {
                    "internalType": "uint256",
                    "name": "",
                    "type": "uint256"
                }
            ],
            "stateMutability": "view",
            "type": "function"
        },
        {
            "inputs": [
                {
                    "internalType": "address",
                    "name": "user",
                    "type": "address"
                },
                {
                    "internalType": "string",
                    "name": "source",
                    "type": "string"
                }
            ],
            "name": "getUserSourceStats",
            "outputs": [
                {
                    "internalType": "uint256",
                    "name": "lastTs",
                    "type": "uint256"
                },
                {
                    "internalType": "uint256",
                    "name": "dailyTotal",
                    "type": "uint256"
                },
                {
                    "internalType": "uint256",
                    "name": "dayIndex",
                    "type": "uint256"
                }
            ],
            "stateMutability": "view",
            "type": "function"
        },
        {
            "inputs": [
                {
                    "internalType": "address",
                    "name": "user",
                    "type": "address"
                }
            ],
            "name": "getUserTotalSteps",
            "outputs": [
                {
                    "internalType": "uint256",
                    "name": "",
                    "type": "uint256"
                }
            ],
            "stateMutability": "view",
            "type": "function"
        },
        {
            "inputs": [
                {
                    "internalType": "bytes32",
                    "name": "role",
                    "type": "bytes32"
                },
                {
                    "internalType": "address",
                    "name": "account",
                    "type": "address"
                }
            ],
            "name": "grantRole",
            "outputs": [],
            "stateMutability": "nonpayable",
            "type": "function"
        },
        {
            "inputs": [
                {
                    "internalType": "bytes32",
                    "name": "role",
                    "type": "bytes32"
                },
                {
                    "internalType": "address",
                    "name": "account",
                    "type": "address"
                }
            ],
            "name": "hasRole",
            "outputs": [
                {
                    "internalType": "bool",
                    "name": "",
                    "type": "bool"
                }
            ],
            "stateMutability": "view",
            "type": "function"
        },
        {
            "inputs": [
                {
                    "internalType": "uint256",
                    "name": "initialSupply",
                    "type": "uint256"
                },
                {
                    "internalType": "address",
                    "name": "admin",
                    "type": "address"
                },
                {
                    "internalType": "address",
                    "name": "_priceOracle",
                    "type": "address"
                },
                {
                    "internalType": "address",
                    "name": "_treasury",
                    "type": "address"
                }
            ],
            "name": "initialize",
            "outputs": [],
            "stateMutability": "nonpayable",
            "type": "function"
        },
        {
            "inputs": [
                {
                    "internalType": "address",
                    "name": "inbox",
                    "type": "address"
                },
                {
                    "internalType": "address",
                    "name": "validator",
                    "type": "address"
                }
            ],
            "name": "initializeArbitrum",
            "outputs": [],
            "stateMutability": "nonpayable",
            "type": "function"
        },
        {
            "inputs": [
                {
                    "internalType": "string",
                    "name": "source",
                    "type": "string"
                }
            ],
            "name": "isSourceValid",
            "outputs": [
                {
                    "internalType": "bool",
                    "name": "",
                    "type": "bool"
                }
            ],
            "stateMutability": "view",
            "type": "function"
        },
        {
            "inputs": [
                {
                    "internalType": "address",
                    "name": "device",
                    "type": "address"
                }
            ],
            "name": "isTrustedDevice",
            "outputs": [
                {
                    "internalType": "bool",
                    "name": "",
                    "type": "bool"
                }
            ],
            "stateMutability": "view",
            "type": "function"
        },
        {
            "inputs": [
                {
                    "internalType": "bool",
                    "name": "paused_",
                    "type": "bool"
                }
            ],
            "name": "l2SetPause",
            "outputs": [],
            "stateMutability": "nonpayable",
            "type": "function"
        },
        {
            "inputs": [
                {
                    "internalType": "uint256",
                    "name": "newStepLimit",
                    "type": "uint256"
                },
                {
                    "internalType": "uint256",
                    "name": "newRewardRate",
                    "type": "uint256"
                }
            ],
            "name": "l2UpdateParams",
            "outputs": [],
            "stateMutability": "nonpayable",
            "type": "function"
        },
        {
            "inputs": [
                {
                    "components": [
                        {
                            "internalType": "address",
                            "name": "user",
                            "type": "address"
                        },
                        {
                            "internalType": "address",
                            "name": "beneficiary",
                            "type": "address"
                        },
                        {
                            "internalType": "uint256",
                            "name": "steps",
                            "type": "uint256"
                        },
                        {
                            "internalType": "uint256",
                            "name": "nonce",
                            "type": "uint256"
                        },
                        {
                            "internalType": "uint256",
                            "name": "deadline",
                            "type": "uint256"
                        },
                        {
                            "internalType": "string",
                            "name": "source",
                            "type": "string"
                        },
                        {
                            "internalType": "string",
                            "name": "version",
                            "type": "string"
                        }
                    ],
                    "internalType": "struct GemStepStorage.StepSubmission",
                    "name": "data",
                    "type": "tuple"
                },
                {
                    "components": [
                        {
                            "internalType": "bytes",
                            "name": "signature",
                            "type": "bytes"
                        },
                        {
                            "internalType": "bytes32[]",
                            "name": "proof",
                            "type": "bytes32[]"
                        },
                        {
                            "internalType": "bytes",
                            "name": "attestation",
                            "type": "bytes"
                        }
                    ],
                    "internalType": "struct GemStepStorage.VerificationData",
                    "name": "verification",
                    "type": "tuple"
                }
            ],
            "name": "logSteps",
            "outputs": [],
            "stateMutability": "nonpayable",
            "type": "function"
        },
        {
            "inputs": [
                {
                    "internalType": "uint256",
                    "name": "newStakePerStep",
                    "type": "uint256"
                }
            ],
            "name": "manualOverrideStake",
            "outputs": [],
            "stateMutability": "nonpayable",
            "type": "function"
        },
        {
            "inputs": [],
            "name": "name",
            "outputs": [
                {
                    "internalType": "string",
                    "name": "",
                    "type": "string"
                }
            ],
            "stateMutability": "view",
            "type": "function"
        },
        {
            "inputs": [
                {
                    "internalType": "address",
                    "name": "",
                    "type": "address"
                }
            ],
            "name": "nonces",
            "outputs": [
                {
                    "internalType": "uint256",
                    "name": "",
                    "type": "uint256"
                }
            ],
            "stateMutability": "view",
            "type": "function"
        },
        {
            "inputs": [],
            "name": "pause",
            "outputs": [],
            "stateMutability": "nonpayable",
            "type": "function"
        },
        {
            "inputs": [],
            "name": "paused",
            "outputs": [
                {
                    "internalType": "bool",
                    "name": "",
                    "type": "bool"
                }
            ],
            "stateMutability": "view",
            "type": "function"
        },
        {
            "inputs": [
                {
                    "internalType": "string",
                    "name": "source",
                    "type": "string"
                }
            ],
            "name": "removeSource",
            "outputs": [],
            "stateMutability": "nonpayable",
            "type": "function"
        },
        {
            "inputs": [
                {
                    "internalType": "bytes32",
                    "name": "role",
                    "type": "bytes32"
                },
                {
                    "internalType": "address",
                    "name": "callerConfirmation",
                    "type": "address"
                }
            ],
            "name": "renounceRole",
            "outputs": [],
            "stateMutability": "nonpayable",
            "type": "function"
        },
        {
            "inputs": [
                {
                    "internalType": "bytes32",
                    "name": "role",
                    "type": "bytes32"
                },
                {
                    "internalType": "address",
                    "name": "account",
                    "type": "address"
                }
            ],
            "name": "revokeRole",
            "outputs": [],
            "stateMutability": "nonpayable",
            "type": "function"
        },
        {
            "inputs": [
                {
                    "internalType": "uint256",
                    "name": "newThreshold",
                    "type": "uint256"
                }
            ],
            "name": "setAnomalyThreshold",
            "outputs": [],
            "stateMutability": "nonpayable",
            "type": "function"
        },
        {
            "inputs": [
                {
                    "internalType": "string",
                    "name": "version",
                    "type": "string"
                },
                {
                    "internalType": "bool",
                    "name": "required",
                    "type": "bool"
                }
            ],
            "name": "setAttestationNonceRequired",
            "outputs": [],
            "stateMutability": "nonpayable",
            "type": "function"
        },
        {
            "inputs": [
                {
                    "internalType": "address",
                    "name": "_l1",
                    "type": "address"
                }
            ],
            "name": "setL1Governance",
            "outputs": [],
            "stateMutability": "nonpayable",
            "type": "function"
        },
        {
            "inputs": [
                {
                    "internalType": "address",
                    "name": "m",
                    "type": "address"
                }
            ],
            "name": "setMultisig",
            "outputs": [],
            "stateMutability": "nonpayable",
            "type": "function"
        },
        {
            "inputs": [
                {
                    "internalType": "address",
                    "name": "newOracle",
                    "type": "address"
                }
            ],
            "name": "setPriceOracle",
            "outputs": [],
            "stateMutability": "nonpayable",
            "type": "function"
        },
        {
            "inputs": [
                {
                    "internalType": "string",
                    "name": "source",
                    "type": "string"
                },
                {
                    "internalType": "bytes32",
                    "name": "root",
                    "type": "bytes32"
                }
            ],
            "name": "setSourceMerkleRoot",
            "outputs": [],
            "stateMutability": "nonpayable",
            "type": "function"
        },
        {
            "inputs": [
                {
                    "internalType": "address",
                    "name": "t",
                    "type": "address"
                }
            ],
            "name": "setTreasury",
            "outputs": [],
            "stateMutability": "nonpayable",
            "type": "function"
        },
        {
            "inputs": [
                {
                    "internalType": "address",
                    "name": "contractAddr",
                    "type": "address"
                },
                {
                    "internalType": "bool",
                    "name": "trusted",
                    "type": "bool"
                }
            ],
            "name": "setTrusted1271",
            "outputs": [],
            "stateMutability": "nonpayable",
            "type": "function"
        },
        {
            "inputs": [
                {
                    "internalType": "address",
                    "name": "api",
                    "type": "address"
                },
                {
                    "internalType": "bool",
                    "name": "trusted",
                    "type": "bool"
                }
            ],
            "name": "setTrustedAPI",
            "outputs": [],
            "stateMutability": "nonpayable",
            "type": "function"
        },
        {
            "inputs": [],
            "name": "stake",
            "outputs": [],
            "stateMutability": "payable",
            "type": "function"
        },
        {
            "inputs": [
                {
                    "internalType": "bytes4",
                    "name": "interfaceId",
                    "type": "bytes4"
                }
            ],
            "name": "supportsInterface",
            "outputs": [
                {
                    "internalType": "bool",
                    "name": "",
                    "type": "bool"
                }
            ],
            "stateMutability": "view",
            "type": "function"
        },
        {
            "inputs": [],
            "name": "symbol",
            "outputs": [
                {
                    "internalType": "string",
                    "name": "",
                    "type": "string"
                }
            ],
            "stateMutability": "view",
            "type": "function"
        },
        {
            "inputs": [
                {
                    "internalType": "bool",
                    "name": "enabled",
                    "type": "bool"
                }
            ],
            "name": "toggleEmergencyWithdraw",
            "outputs": [],
            "stateMutability": "nonpayable",
            "type": "function"
        },
        {
            "inputs": [],
            "name": "toggleStakeParamLock",
            "outputs": [],
            "stateMutability": "nonpayable",
            "type": "function"
        },
        {
            "inputs": [],
            "name": "totalSupply",
            "outputs": [
                {
                    "internalType": "uint256",
                    "name": "",
                    "type": "uint256"
                }
            ],
            "stateMutability": "view",
            "type": "function"
        },
        {
            "inputs": [
                {
                    "internalType": "address",
                    "name": "to",
                    "type": "address"
                },
                {
                    "internalType": "uint256",
                    "name": "value",
                    "type": "uint256"
                }
            ],
            "name": "transfer",
            "outputs": [
                {
                    "internalType": "bool",
                    "name": "",
                    "type": "bool"
                }
            ],
            "stateMutability": "nonpayable",
            "type": "function"
        },
        {
            "inputs": [],
            "name": "transferAdminRoles",
            "outputs": [],
            "stateMutability": "nonpayable",
            "type": "function"
        },
        {
            "inputs": [
                {
                    "internalType": "address",
                    "name": "from",
                    "type": "address"
                },
                {
                    "internalType": "address",
                    "name": "to",
                    "type": "address"
                },
                {
                    "internalType": "uint256",
                    "name": "value",
                    "type": "uint256"
                }
            ],
            "name": "transferFrom",
            "outputs": [
                {
                    "internalType": "bool",
                    "name": "",
                    "type": "bool"
                }
            ],
            "stateMutability": "nonpayable",
            "type": "function"
        },
        {
            "inputs": [],
            "name": "treasury",
            "outputs": [
                {
                    "internalType": "address",
                    "name": "",
                    "type": "address"
                }
            ],
            "stateMutability": "view",
            "type": "function"
        },
        {
            "inputs": [
                {
                    "internalType": "address",
                    "name": "",
                    "type": "address"
                }
            ],
            "name": "trustedERC1271Contracts",
            "outputs": [
                {
                    "internalType": "bool",
                    "name": "",
                    "type": "bool"
                }
            ],
            "stateMutability": "view",
            "type": "function"
        },
        {
            "inputs": [],
            "name": "unpause",
            "outputs": [],
            "stateMutability": "nonpayable",
            "type": "function"
        },
        {
            "inputs": [
                {
                    "internalType": "uint256",
                    "name": "maxGas",
                    "type": "uint256"
                },
                {
                    "internalType": "uint256",
                    "name": "gasPriceBid",
                    "type": "uint256"
                },
                {
                    "internalType": "uint256",
                    "name": "maxSubmissionCost",
                    "type": "uint256"
                }
            ],
            "name": "updateArbitrumGasParams",
            "outputs": [],
            "stateMutability": "nonpayable",
            "type": "function"
        },
        {
            "inputs": [
                {
                    "internalType": "address",
                    "name": "",
                    "type": "address"
                },
                {
                    "internalType": "bytes32",
                    "name": "",
                    "type": "bytes32"
                }
            ],
            "name": "used1271Digests",
            "outputs": [
                {
                    "internalType": "bool",
                    "name": "",
                    "type": "bool"
                }
            ],
            "stateMutability": "view",
            "type": "function"
        },
        {
            "inputs": [
                {
                    "internalType": "bytes32",
                    "name": "",
                    "type": "bytes32"
                }
            ],
            "name": "usedAttestations",
            "outputs": [
                {
                    "internalType": "bool",
                    "name": "",
                    "type": "bool"
                }
            ],
            "stateMutability": "view",
            "type": "function"
        },
        {
            "inputs": [
                {
                    "internalType": "bytes32",
                    "name": "",
                    "type": "bytes32"
                }
            ],
            "name": "usedSignatures",
            "outputs": [
                {
                    "internalType": "bool",
                    "name": "",
                    "type": "bool"
                }
            ],
            "stateMutability": "view",
            "type": "function"
        },
        {
            "inputs": [
                {
                    "internalType": "uint256",
                    "name": "amount",
                    "type": "uint256"
                }
            ],
            "name": "withdrawStake",
            "outputs": [],
            "stateMutability": "nonpayable",
            "type": "function"
        },
        {
            "stateMutability": "payable",
            "type": "receive"
        }
    ],
    "bytecode": "6080806040523460aa575f5160206180de5f395f51905f525460ff8160401c16609b576002600160401b03196001600160401b038216016049575b60405161802f90816100af8239f35b6001600160401b0319166001600160401b039081175f5160206180de5f395f51905f525581527fc7f505b2f371ae2175ee4913f4499e1f2633a7b5936321eed1cdaeb6115181d290602090a15f80603a565b63f92ee8a960e01b5f5260045ffd5b5f80fdfe6080806040526004361015610083575b50361561001a575f80fd5b341561004e576040513481527fbfe611b001dfcd411432f7bf0d79b82b4b2ee81511edac123a3403c357fb972a60203392a2005b60405162461bcd60e51b815260206004820152600d60248201526c4e6f207a65726f2076616c756560981b6044820152606490fd5b5f905f3560e01c90816301ffc9a714616013575080630420da8814615fb85780630493287c14615ef65780630515274214615e8657806306fdde0314615dc9578063095ea7b314615d4a5780630e1508d914615cfd5780631039917e14615be457806310d60dc414615b585780631175a1c914615b2b57806311c9a3a614615aaa57806318160ddd14615a815780631a7be7c014615a3e5780631c30fbc1146159b85780631cced51b1461599457806323b872dd146158bc578063248a9ca31461588557806325d5971f14615739578063297988461461568d5780632e0f2625146156285780632f2ff15d14615643578063313ce5671461562857806331491075146155325780633492600d146153ff57806335466aca1461538f578063355274ea1461536b57806336568abe146153275780633a4b66f1146152a35780633f4ba83a1461523457806342966c6814615215578063455fba88146151cf57806345ef827e1461518657806348ea00aa146150cd57806351596c561461507c578063530e784f14614fde5780635312ea8e14614efa578063541992f714614dad57806355b8fb8114614c495780635a55357214614c1a5780635c975abb14614bec57806361d027b314614bc457806366639b9e14614af65780636be27d4e14614a315780636cc3eac8146149fe5780636f83a586146149e1578063706bb6ab1461495657806370a082311461491257806370d99188146148d357806371f91a8f1461487d578063754d1d5414613c06578063796f077b14613beb5780637ca9402414613af25780637ecebe0014613ab95780637ed5641014613a7a5780638032c297146139ff57806381f9a84b146137ae5780638456cb591461373b57806384b0196e146135ed57806386b414e9146134d157806391d148541461347b57806395d89b4114613398578063991c6a95146132fa57806399934fcd14613210578063a217fddf146131f4578063a4e521dd14611676578063a5414649146115bc578063a9059cbb1461158a578063acb8cc491461155a578063ae0bbe4d146114ba578063b218d19f1461145b578063c3483a2a14611419578063c374653c14611143578063c7f6fbfe14611079578063d2e8756114611052578063d311713614611013578063d547741f14610fbf578063d79e856714610eda578063d8e5194e14610e3e578063d957caaa14610d1e578063dd62ed3e14610cd6578063dead610a14610c97578063e40272d714610b95578063e4bafabb14610ae8578063e976f5d314610a1d578063ed62d2ff146109d8578063eeed0fd9146109a2578063f0f4426014610900578063f217ba6c146107e2578063f3283fba14610737578063f4e7a0e51461064b578063f5e2bebb14610622578063f64ba145146105b4578063f77e4bb11461057b578063f978fd611461054c578063fa37273c14610517578063fb41f710146104e15763fca513a80361000f57346104de57806003193601126104de576016546040516001600160a01b039091168152602090f35b80fd5b50346104de57806003193601126104de576080905460015460025460035491604051938452602084015260408301526060820152f35b50346104de57806003193601126104de576004546005546040805160ff909316151583526020830191909152819081015b0390f35b50346104de5760203660031901126104de5760ff60406020926004358152601b84522054166040519015158152f35b50346104de5760203660031901126104de576020906040906001600160a01b036105a3616075565b168152601f83522054604051908152f35b50346104de57806003193601126104de57604051906105d46080836161ed565b6080368337601e82526127106020830152610e10604083015262278d00606083015260405191829091905b6004821061060c57608084f35b60208060019285518152019301910190916105ff565b50346104de57806003193601126104de576037546040516001600160a01b039091168152602090f35b50346104de5760403660031901126104de577fd730a567ef2eebd983bad54a507955546b52055ed81d47a5772155fc896dbf7760406004356024356106b960018060a01b036037541661069f81151561660e565b6001600160a01b03906106b190617540565b16331461665a565b6002546001549083600255826001555f516020617efa5f395f51905f528560098151681cdd195c131a5b5a5d60ba1b815220928151908152866020820152a25f516020617efa5f395f51905f5284600a8151697265776172645261746560b01b815220928151908152846020820152a282519182526020820152a180f35b50346104de5760203660031901126104de57610751616075565b6107596167fe565b6001600160a01b031680156107aa576020817ff2a068f9de5c16d8cfc486ef064153275cef08f1aee2e6d946ee343cb1471ff8926001600160601b0360a01b600e541617600e55604051908152a180f35b60405162461bcd60e51b815260206004820152601060248201526f496e76616c6964206d756c746973696760801b6044820152606490fd5b50346104de5760203660031901126104de576004356001600160401b0381116108fc57610813903690600401616142565b9061081c6167fe565b6108296014831115616526565b825b828110610836578380f35b61084961084482858561648d565b61656b565b905f516020617eda5f395f51905f5285525f516020617f3a5f395f51905f526020526040852060018060a01b0383165f5260205260ff60405f205416156108c85781610896600193617347565b50828060a01b03167f3525e22824a8a7df2c9a6029941c824cf95b6447f1e13d5128fd3826d35afe8b8680a20161082b565b60405162461bcd60e51b815260206004820152600c60248201526b2737ba10309039b4b3b732b960a11b6044820152606490fd5b5080fd5b50346104de5760203660031901126104de5761091a616075565b6109226167fe565b6001600160a01b0316801561096a57600f80546001600160a01b031916821790557f3c864541ef71378c6229510ed90f376565ee42d9c5e0904a984a9e863e6db44f8280a280f35b60405162461bcd60e51b815260206004820152601060248201526f496e76616c696420747265617375727960801b6044820152606490fd5b50346104de57806003193601126104de57606060405164174876e800815266038d7ea4c680006020820152620151806040820152f35b50346104de5760203660031901126104de576004356001600160401b0381116108fc57610a0c610a1a9136906004016160bf565b90610a1561684d565b6170b7565b80f35b50346104de57610a44610a49610a32366160ec565b939190610a3d61684d565b369161676d565b617894565b908151602083012091828452603260205260ff60408520541615610aab577f02f0822c0e58c11712689bcd4e336d192ce85e7d8a14f97faf438077d0bd2ade9284526033602052816040852055610aa5604051928392836162bd565b0390a180f35b60405162461bcd60e51b815260206004820152601560248201527415995c9cda5bdb881b9bdd081cdd5c1c1bdc9d1959605a1b6044820152606490fd5b50346104de5760203660031901126104de57610b02616075565b610b0a61684d565b6001600160a01b03168015610b5757808252602560205260408220805460ff191660011790557f988f61989f2ee842af78494fb84c1192752f75fa969952d663a251693ff2fa0a8280a280f35b60405162461bcd60e51b8152602060048201526016602482015275496e76616c696420646576696365206164647265737360501b6044820152606490fd5b50346104de5760203660031901126104de57610baf616075565b610bb76167fe565b6001600160a01b03168015610c52576037546001600160a01b038116610c0d576001600160a01b03191681176037557f28f7b8c07704cdf39a713f75ced4785a2f27a6e5d1cfd0cfec96cca4e4342b858280a280f35b60405162461bcd60e51b815260206004820152601d60248201527f47533a204c3120676f7665726e616e636520616c7265616479207365740000006044820152606490fd5b60405162461bcd60e51b815260206004820152601e60248201527f47533a204c3120676f7665726e616e6365207a65726f206164647265737300006044820152606490fd5b50346104de5760203660031901126104de5760209060ff906040906001600160a01b03610cc2616075565b168152602284522054166040519015158152f35b50346104de5760403660031901126104de57610cf0616075565b610d01610cfb61608b565b916161b5565b9060018060a01b03165f52602052602060405f2054604051908152f35b50346104de57610d2d36616172565b610d39939291936168f2565b6001600160a01b03821615610e05576040516349460b4d60e11b815260208180610d68858988600485016167d9565b03818760645af1938415610df95793610dbe575b506020938392610db37f74a7ecfc0f948858581a2c75f3ac5d7550a8c48fbf7a18a7fd8c01ea2f1742a393604051938493846167d9565b0390a2604051908152f35b909192506020813d602011610df1575b81610ddb602093836161ed565b81010312610ded575191906020610d7c565b5f80fd5b3d9150610dce565b604051903d90823e3d90fd5b60405162461bcd60e51b815260206004820152601160248201527011d4ce8818985908130c481d185c99d95d607a1b6044820152606490fd5b50346104de5760203660031901126104de5760c0906001600160a01b03610e63616075565b16908181526029602052604081205491808252602a602052604082205491818152602b6020526040812054828252602c60205260408083205492848152602d60205260ff8282205416948152602e6020522054936040519586526020860152604085015260608401521515608083015260a0820152f35b50346104de5760403660031901126104de57610ef4616075565b60243590610f006168f2565b610f08616acc565b610f10617574565b6001600160a01b031690610f2582151561669e565b8280808084865af1610f356164f7565b5015610f7a5760207f20f907b58305c7b76035bc03b26f32b1c4f6560f96be6f3bb54c5c848a2d4ddd91604051908152a260015f516020617f9a5f395f51905f525580f35b60405162461bcd60e51b815260206004820152601760248201527f47533a20455448207472616e73666572206661696c65640000000000000000006044820152606490fd5b50346104de5760403660031901126104de5761100f600435610fdf61608b565b9061100a611005825f525f516020617f3a5f395f51905f52602052600160405f20015490565b61694e565b6173d8565b5080f35b50346104de5760203660031901126104de5760209060ff906040906001600160a01b0361103e616075565b168152602184522054166040519015158152f35b50346104de5760203660031901126104de5760206110716004356167a3565b604051908152f35b50346104de5760403660031901126104de57611093616075565b61109b61608b565b906110a46167fe565b6001600160a01b031680151580611131575b156110ec576001600160601b0360a01b601054161760105560018060a01b03166001600160601b0360a01b601454161760145580f35b60405162461bcd60e51b815260206004820152601760248201527f47533a2062616420417262697472756d20706172616d730000000000000000006044820152606490fd5b506001600160a01b03821615156110b6565b50346104de57806003193601126104de5761115c61684d565b61116b60ff60195416156166e2565b6018546201518081018091116112a25742106113e2576016546040516314350a9b60e11b8152906001600160a01b0316606082600481845afa80156113d757839284908592611392575b506040516343e7a34b60e11b815290602082600481875afa918215611387578692611353575b50816111e782426164d1565b1161133a575050806112b6575b5050600a810290808204600a14901517156112a2576064900464174876e80081101561125c57507fc4c553da0c857da00863fb442a80dbbf19d9301dc6c37a81554ad697cf393b8f604064174876e8005b42601855806017558151908152426020820152a180f35b66038d7ea4c680008111611294575b60407fc4c553da0c857da00863fb442a80dbbf19d9301dc6c37a81554ad697cf393b8f91611245565b5066038d7ea4c6800061126b565b634e487b7160e01b82526011600452602482fd5b60206004926040519384809263ce3604e960e01b82525afa91821561132f5784926112fb575b50818111156111f45763088768e160e01b845260045260245250604490fd5b9091506020813d602011611327575b81611317602093836161ed565b81010312610ded5751905f6112dc565b3d915061130a565b6040513d86823e3d90fd5b63033565a560e31b865260045242602452604452606484fd5b9091506020813d60201161137f575b8161136f602093836161ed565b81010312610ded5751905f6111db565b3d9150611362565b6040513d88823e3d90fd5b935050506060823d6060116113cf575b816113af606093836161ed565b810103126113cb5781516040602084015193015190925f6111b5565b8280fd5b3d91506113a2565b6040513d85823e3d90fd5b60405162461bcd60e51b815260206004820152600f60248201526e436f6f6c646f776e2061637469766560881b6044820152606490fd5b50346104de5760203660031901126104de576004356001600160401b0381116108fc5761144d610a1a9136906004016160bf565b9061145661684d565b61778a565b50346104de57806003193601126104de576114746168f2565b7f60918d657a20adb78b81875bd24a614a9cbd961c5ca496855a28256f71309dc4602060195460ff80821615168060ff198316176019558460405192161715158152a180f35b50346104de5760403660031901126104de576114d4616075565b7fdce08b4e8453bf87ea367ba35cd5ea441228b68cdf66c1a0be97e2220d96192760206114ff6160a1565b926115086167fe565b6001600160a01b03169283151580611550575b6115249061669e565b8385526022825261154481604087209060ff801983541691151516179055565b6040519015158152a280f35b503084141561151b565b50346104de57806003193601126104de5761054861157661624e565b60405191829160208352602083019061611e565b50346104de5760403660031901126104de576115b16115a7616075565b6024359033616994565b602060405160018152f35b50346104de5760403660031901126104de576115d6616075565b6115de6160a1565b906115e761684d565b6001600160a01b031690811561163b5760207f60db98dc6cf1e5d67dd092e1ee8eefefec50493ddcb1f42ca9e051c8133b940891838552602d825261154481604087209060ff801983541691151516179055565b60405162461bcd60e51b8152602060048201526013602482015272496e76616c696420415049206164647265737360681b6044820152606490fd5b50346104de5760403660031901126104de57600435906001600160401b0382116104de5760e060031983360301126104de576001600160401b03602435116104de576060602435360360031901126104de576116d0616acc565b6116d8616b04565b338152602d60205260ff60408220541680156131d7575b15613187576001600160a01b036117086004840161656b565b168152601e60205260408120546064830135036131525760ff5f516020617f5a5f395f51905f52541661311b576001600160a01b036117496004840161656b565b168152602b602052604081205442106130e2576001600160a01b036117706024840161656b565b16156130a75760448201351561306e5742608483013511156130355761179a4260848401356164d1565b60035410612ffd57600254604483013511612fc2576117bf60a483018360040161657f565b905015612f8e576117f960ff60206117dd60a486018660040161657f565b91908260405193849283378101601a81520301902054166165b1565b61180960c483018360040161657f565b905015612f5957602061182260c484018460040161657f565b905011612f215761183f610a44610a3d60c485018560040161657f565b60208151910120808252603260205260ff60408320541615612edc578152603360205260408120548015908115612ed2575b5015612e8d576118838260040161656b565b602061189560a485018560040161657f565b919082604051938492833781016024815203019020805460ff8116612cca575b60ff915060081c16612822575b6118d8610a44610a3d60c486018660040161657f565b6118e48460040161656b565b906118f16024860161656b565b90611905610a3d60a488018860040161657f565b602081519101209060208151910120906040519260208401947f57557986231729f927f7ba1b4b64309a298dc00d2d45ce36d3a416176f864d51865260018060a01b0316604085015260018060a01b0316606084015260448701356080840152606487013560a0840152608487013560c08401524660e0840152610100830152610120820152610120815261199c610140826161ed565b5190206119a7617bfd565b9060405190602082019261190160f01b845260228301526042820152604281526119d26062826161ed565b519020906119fc6119f46119ee610a3d6004602435018061657f565b8461798f565b9190916179c0565b338452602d602052604084205460ff1615612595575f516020617f7a5f395f51905f5284525f516020617f3a5f395f51905f52602052604084209060018060a01b03165f5260205260ff60405f20541615612550575b611a6260a485018560040161657f565b916040518383823760208185810160248152030190209060018060a01b0316928386526026602052611aa7611a9b6040882083866164de565b546003840154906164c4565b421061250b5762015180420492848752602860205283611acb6040892084846164de565b54036124fe57611aed611afa91600293878a52602760205260408a20916164de565b545b6044890135906164c4565b910154106124c257338452602d60205260ff60408520541615612465575b611b7790611b2c60a487018760040161657f565b9091848752602660205242611b456040892084866164de565b55848752602860205280611b5d6040892084866164de565b5403612430575b50838652602760205260408620916164de565b60448501358154019055808352602e6020526040832054801561241b575b338452602d60205260ff6040852054161561229c575b5080835260296020526040832054600981029080820460091490151715612288576044850135606481810292918304900361227457600a91611bec916164c4565b04908352602960205260408320556040611c3c611c1360243560040160243560040161657f565b92908382519485926020840197885284840137810186838201520301601f1981018352826161ed565b519020808252601b60205260ff60408320541661223c57808252601b60205260408220600160ff1982541617905560016084840135019081608485013511612228578252601c6020526040822055611c9a60a483018360040161657f565b9092906001600160a01b03611cb16004840161656b565b1683526020805260408320906001600160401b03811161221457611cd582546162d9565b601f81116121cf575b5083601f821160011461216c5781908596611d0f94959692612161575b50508160011b915f199060031b1c19161790565b90555b6001600160a01b03611d266004830161656b565b168252601f60205260408220611d41604483013582546164c4565b9055600160448201351061212657611d5f60015460448301356164b1565b90611d6c6024820161656b565b6001600160a01b0381169290919083156120e15780156120a857611d8e617614565b611f408102818104611f4003612094576127109004936103e882028281046103e80361208057612710900490611dcd82611dc888866164d1565b6164d1565b90611dd882886164c4565b96611e08611df4895f516020617e5a5f395f51905f52546164c4565b6b033b2e3c9fd0803ce8000000101561768f565b60075496611e1689896164c4565b600b5410612044578860019960649901600755600a5401600a55611e38617ad8565b81611ff4575b50505080611f91575b5080611f37575b50611e65610a44610a3d60c485018560040161657f565b7f30ffb8867378b05f6a4543f373937528d520ee2f264a4c2c493d487a2d6db866611ee0611e958560040161656b565b93611efe611ea56024880161656b565b611eb560a489018960040161657f565b949060405195869560448c01358752602087015242604087015260a0606087015260a08601916165ee565b9083820360808501528a8060a01b0316968a8060a01b03169561611e565b0390a3828060a01b03611f138260040161656b565b168452601e602052013501604082205560015f516020617f9a5f395f51905f525580f35b611f4181306178f7565b611f4b8130617474565b5f516020617e5a5f395f51905f525460405191825260208201527fccbea4088a3b7ae9ca2d15fab9a9742a4075b4d7247768a1eecea917565aba0060403092a25f611e4e565b7f2e8ac5177a616f2aec08c3048f5021e4e9743ece034e8d83ba5caf76688bb4756040878060a01b03600f541692611fca84151561672e565b611fd481856178f7565b5f516020617e5a5f395f51905f525482519182526020820152a25f611e47565b816120227f2e8ac5177a616f2aec08c3048f5021e4e9743ece034e8d83ba5caf76688bb475936040936178f7565b5f516020617e5a5f395f51905f525482519182526020820152a25f8080611e3e565b60405162461bcd60e51b8152602060048201526014602482015273135bdb9d1a1b1e4818d85c08195e18d95959195960621b6044820152606490fd5b634e487b7160e01b87526011600452602487fd5b634e487b7160e01b86526011600452602486fd5b60405162461bcd60e51b8152602060048201526011602482015270135a5b9d0e881e995c9bc8185b5bdd5b9d607a1b6044820152606490fd5b60405162461bcd60e51b815260206004820152601f60248201527f45524332303a206d696e7420746f20746865207a65726f2061646472657373006044820152606490fd5b60405162461bcd60e51b815260206004820152601360248201527253746570732062656c6f77206d696e696d756d60681b6044820152606490fd5b013590505f80611cfb565b601f198216958386526020862091865b8881106121b75750836001959697981061219e575b505050811b019055611d12565b01355f19600384901b60f8161c191690555f8080612191565b9092602060018192868601358155019401910161217c565b825f5260205f20601f830160051c8101916020841061220a575b601f0160051c01905b8181106121ff5750611cde565b5f81556001016121f2565b90915081906121e9565b634e487b7160e01b84526041600452602484fd5b634e487b7160e01b83526011600452602483fd5b60405162461bcd60e51b815260206004820152601060248201526f14da59db985d1d5c99481c995d5cd95960821b6044820152606490fd5b634e487b7160e01b85526011600452602485fd5b634e487b7160e01b84526011600452602484fd5b818452602960205260408420549062093a808101809111612274574210158061240f575b15611bab576044850135606481810292918304900361227457602f546122e5916164b1565b106122f1575b5f611bab565b61230160175460448601356164b1565b601e810290808204601e14901517156122885760648291048015612407575b818552602c60205260408520549081811161240057905b816123b7575b50508352602a60205260408320546001810180911161228857600390828552602a602052806040862055106122eb5762278d004201804211612288577f04ce1307cb320c8ce6afc20575351e36d962930f2f354c598664f940b881aa9b60208392838752602b8252806040882055604051908152a26122eb565b816123e57f4b28c7dc138644f27518388387393ecbd08ef8d180a4a6799c954be166a37ab3936020936164d1565b848852602c83526040882055604051908152a2805f8061233d565b5080612337565b506001612320565b506101f48110156122c0565b50808352602e60205242604084205542611b95565b84875260286020526124466040882083856164de565b5583865260276020528561245e6040822083856164de565b555f611b64565b61247560175460448701356164b1565b828552602c60205260408520541015611b185760405162461bcd60e51b8152602060048201526012602482015271496e73756666696369656e74207374616b6560701b6044820152606490fd5b60405162461bcd60e51b815260206004820152601460248201527311185a5b1e481b1a5b5a5d08195e18d95959195960621b6044820152606490fd5b50506002611afa86611aef565b60405162461bcd60e51b815260206004820152601760248201527f5375626d697373696f6e20746f6f206672657175656e740000000000000000006044820152606490fd5b60405162461bcd60e51b815260206004820152601760248201527f556e617574686f72697a656420415049207369676e65720000000000000000006044820152606490fd5b813b1561278857506001600160a01b0381168084526021602052604084205460ff1615612743576125f960206125d06004602435018061657f565b6040519384928392630b135d3f60e11b84528960048501526040602485015260448401916165ee565b0381855afa9081156127385785916126f1575b506001600160e01b0319166374eca2c160e11b016126ac5780845260356020526040842083855260205260ff60408520541661266757835260356020526040832082845260205260408320600160ff19825416179055611a52565b60405162461bcd60e51b815260206004820152601b60248201527f455243313237312064696765737420616c7265616479207573656400000000006044820152606490fd5b60405162461bcd60e51b815260206004820152601a60248201527f496e76616c696420636f6e7472616374207369676e61747572650000000000006044820152606490fd5b90506020813d602011612730575b8161270c602093836161ed565b8101031261272c57516001600160e01b03198116810361272c575f61260c565b8480fd5b3d91506126ff565b6040513d87823e3d90fd5b60405162461bcd60e51b815260206004820152601a60248201527f556e74727573746564204552433132373120636f6e74726163740000000000006044820152606490fd5b5f516020617f7a5f395f51905f5284525f516020617f3a5f395f51905f526020526040842060018060a01b0382165f5260205260ff60405f205416156127cf575b50611a52565b6001600160a01b038281169116036127e7575f6127c9565b60405162461bcd60e51b815260206004820152601360248201527229b4b3b732b91036bab9ba103132903ab9b2b960691b6044820152606490fd5b61283660446024350160243560040161657f565b8101608082820312612cc65781356001600160a01b0381168103610ded5760208301359160408401356001600160401b038111612cbe57840181601f82011215612cbe578181602061288a9335910161676d565b936060810135906001600160401b038211612cc2570181601f82011215612cbe57908160206128bb9335910161676d565b83516001600160a01b03831694919391908015159081612cb2575b5015612c78576128e590617894565b6020815191012091828752603060205260ff60408820541615612c3357828752603160205260408720548015908115612c29575b5015612be457848752602560205260ff60408820541615612bac57610e1061294183426164d1565b1015612b73578287526036602052604087205460ff1615612a53575091612a056119f492612a0a946129758a60040161656b565b916040519160208301937f9387d105284ba50a24ddd344aff28f662b0037fc6f7bf9597ef4dae4a7f95c7a855260018060a01b0316604084015260448c01356060840152608083015260a082015260648a013560c082015260c081526129dc60e0826161ed565b5190205b6129e8617bfd565b6042916040519161190160f01b8352600283015260228201522090565b61798f565b6001600160a01b0316146118c25760405162461bcd60e51b815260206004820152601360248201527224b73b30b634b21030ba3a32b9ba30ba34b7b760691b6044820152606490fd5b9190612a618860040161656b565b916040519160208301937fc49bd533da7d3e67e9ffbedd30551d652e40982f406c8756033164f40f686800855260018060a01b0316604084015260448a01356060840152608083015260a082015260a08152612abe60c0826161ed565b51902090612ace826129e8617bfd565b6040519060208201926001600160601b03199060601b168352603482015260348152612afb6054826161ed565b51902091828652603460205260ff604087205416612b3957612a056119f492612a0a948852603460205260408820600160ff198254161790556129e0565b60405162461bcd60e51b8152602060048201526012602482015271105d1d195cdd185d1a5bdb881c995d5cd95960721b6044820152606490fd5b60405162461bcd60e51b815260206004820152601160248201527029ba30b6329030ba3a32b9ba30ba34b7b760791b6044820152606490fd5b60405162461bcd60e51b815260206004820152601060248201526f556e747275737465642064657669636560801b6044820152606490fd5b60405162461bcd60e51b815260206004820152601e60248201527f4174746573746174696f6e2076657273696f6e206465707265636174656400006044820152606490fd5b905042105f612919565b60405162461bcd60e51b815260206004820152601f60248201527f556e737570706f72746564206174746573746174696f6e2076657273696f6e006044820152606490fd5b60405162461bcd60e51b81526020600482015260126024820152712130b21030ba3a32b9ba103b32b939b4b7b760711b6044820152606490fd5b6020915011155f6128d6565b8680fd5b8780fd5b8380fd5b60248035016020612ce08260243560040161785f565b905011612e575760018060a01b0384165f526004830160205260405f205490604051602081019060018060a01b03871682526044890135604082015283606082015260608152612d316080826161ed565b51902090818752602360205260ff604088205416612e1e57818752602360205260408720805460ff19166001179055612d6f9060046024350161785f565b6001860154929188915b808310612de05750505003612dab57600460ff9360018060a01b0386165f5201602052600160405f20910190556118b5565b60405162461bcd60e51b815260206004820152600d60248201526c24b73b30b634b210383937b7b360991b6044820152606490fd5b909192612dee84838561648d565b359081811015612e0d578a52602052600160408a205b93019190612d79565b908a52602052600160408a20612e04565b60405162461bcd60e51b81526020600482015260116024820152701319585988185b1c9958591e481d5cd959607a1b6044820152606490fd5b60405162461bcd60e51b815260206004820152600e60248201526d50726f6f6620746f6f206c6f6e6760901b6044820152606490fd5b60405162461bcd60e51b815260206004820152601a60248201527f5061796c6f61642076657273696f6e20646570726563617465640000000000006044820152606490fd5b905042105f611871565b60405162461bcd60e51b815260206004820152601b60248201527f556e737570706f72746564207061796c6f61642076657273696f6e00000000006044820152606490fd5b60405162461bcd60e51b815260206004820152601060248201526f56657273696f6e20746f6f206c6f6e6760801b6044820152606490fd5b60405162461bcd60e51b815260206004820152600d60248201526c22b6b83a3c903b32b939b4b7b760991b6044820152606490fd5b60405162461bcd60e51b815260206004820152600c60248201526b456d70747920736f7572636560a01b6044820152606490fd5b60405162461bcd60e51b815260206004820152601360248201527214dd195c081b1a5b5a5d08195e18d959591959606a1b6044820152606490fd5b60405162461bcd60e51b815260206004820152601060248201526f2232b0b23634b732903a37b7903330b960811b6044820152606490fd5b60405162461bcd60e51b815260206004820152601160248201527014da59db985d1d5c9948195e1c1a5c9959607a1b6044820152606490fd5b60405162461bcd60e51b8152602060048201526011602482015270139bc81cdd195c1cc81c1c9bdd9a591959607a1b6044820152606490fd5b60405162461bcd60e51b8152602060048201526013602482015272496e76616c69642062656e656669636961727960681b6044820152606490fd5b60405162461bcd60e51b81526020600482015260116024820152701058d8dbdd5b9d081cdd5cdc195b991959607a1b6044820152606490fd5b60405162461bcd60e51b815260206004820152600f60248201526e10dbdb9d1c9858dd081c185d5cd959608a1b6044820152606490fd5b60405162461bcd60e51b815260206004820152600d60248201526c496e76616c6964206e6f6e636560981b6044820152606490fd5b60405162461bcd60e51b815260206004820152602260248201527f43616c6c6572206d7573742062652075736572206f7220747275737465642041604482015261504960f01b6064820152608490fd5b506001600160a01b036131ec6004840161656b565b1633146116ef565b50346104de57806003193601126104de57602090604051908152f35b50346104de5760203660031901126104de576004356001600160401b0381116108fc576132419036906004016160bf565b9061324a61684d565b60ff60405183838237602081858101601a8152030190205416156132bd5760405182828237602081848101601a81520301902060ff19815416905581604051928392833781015f81520390207f77c6579aab1409b66c5b67c79bb3df4532a1164cfcdff8eeb3e91f86b017882f8280a280f35b60405162461bcd60e51b815260206004820152601560248201527414dbdd5c98d9481b9bdd081c9959da5cdd195c9959605a1b6044820152606490fd5b50346104de5760203660031901126104de576004356001600160401b0381116108fc57610aa5613367610a446133557f8d1c6685a34f0d317022b7016510683d5bb9b2113877481ee1ee58cf0ebbff329436906004016160bf565b61335d61684d565b610a3d818361780d565b805160208201208452603260205260408420600160ff1982541617905560405191829160208352602083019061611e565b50346104de57806003193601126104de576040515f5f516020617e3a5f395f51905f52546133c5816162d9565b808452906001811690811561345757506001146133ed575b61054883611576818503826161ed565b5f516020617e3a5f395f51905f525f9081527f46a2803e59a4de4e7a4c574b1243f25977ac4c77d5a1a4a609b5394cebb4a2aa939250905b80821061343d575090915081016020016115766133dd565b919260018160209254838588010152019101909291613425565b60ff191660208086019190915291151560051b8401909101915061157690506133dd565b50346104de5760403660031901126104de57604061349761608b565b9160043581525f516020617f3a5f395f51905f52602052209060018060a01b03165f52602052602060ff60405f2054166040519015158152f35b50346104de5760603660031901126104de576004356001600160401b0381116108fc576135029036906004016160bf565b9061350b6160a1565b60443590811515809203610ded5761354a6135da937f2e05e0fba3ec364ba1385f14b1086c8209fc02216de40d2048994d870230754c95610a3d61684d565b91610e106003604051855190602081818901938085835e8101601a815203019020600160ff198254161790556020604051809288518091835e810160248152030190206135a385829060ff801983541691151516179055565b805461ff008560081b169061ff0019161781555f60018201556127106002820155015560405193849360608552606085019061611e565b911515602084015260408301520390a180f35b50346104de57806003193601126104de577fa16a46d94261c7517cc8ff89f61c0ce93598e3c849801011dee649a6a557d100541580613712575b156136d55761367990613638616311565b906136416163e0565b9060206136876040519361365583866161ed565b8385525f368137604051968796600f60f81b885260e08589015260e088019061611e565b90868203604088015261611e565b904660608601523060808601528260a086015284820360c08601528080855193848152019401925b8281106136be57505050500390f35b8351855286955093810193928101926001016136af565b60405162461bcd60e51b81526020600482015260156024820152741152540dcc4c8e88155b9a5b9a5d1a585b1a5e9959605a1b6044820152606490fd5b507fa16a46d94261c7517cc8ff89f61c0ce93598e3c849801011dee649a6a557d1015415613627565b50346104de57806003193601126104de57613754616896565b61375c616b04565b600160ff195f516020617f5a5f395f51905f525416175f516020617f5a5f395f51905f52557f62e78cea01bee320cd4e420270b5ea74000d11b0c9f74754ebdbfc544b05a2586020604051338152a180f35b50346104de57806003193601126104de576137c76167fe565b600d546001600160a01b03811633036139c55760a01c60ff1661398a57600e546001600160a01b031615613952576040519060e082018281106001600160401b0382111761393e576040528082525f516020617eba5f395f51905f5260208301527f9f2df0fed2c77648de5860a4cc508cd0818c85b8b8a1ab4ceeef8d981c8956a660408301525f516020617eda5f395f51905f5260608301525f516020617fba5f395f51905f5260808301525f516020617f1a5f395f51905f5260a08301527f189ab7a9244df0848122154315af71fe140f3db0fe014031783b0946b8c9d2e360c0830152805b60078110156138e157600581901b830151600d54600192916138da916001600160a01b0316906173d8565b50016138af565b50600e546138f7906001600160a01b0316616bab565b50600d805460ff60a01b1916600160a01b179055600e546001600160a01b03167f702e3fa04ed68db1cc744b2fe75e903f185da608e34f20bc50c63c8f7a3996978280a280f35b634e487b7160e01b5f52604160045260245ffd5b60405162461bcd60e51b815260206004820152601060248201526f135d5b1d1a5cda59c81b9bdd081cd95d60821b6044820152606490fd5b60405162461bcd60e51b8152602060048201526013602482015272105b1c9958591e481d1c985b9cd9995c9c9959606a1b6044820152606490fd5b60405162461bcd60e51b815260206004820152601260248201527127b7363c9034b734ba34b0b61030b236b4b760711b6044820152606490fd5b50346104de5760203660031901126104de576004356001600160401b0381116108fc57613a517f2c0af4023f3cb37dafba930e27bc09a6c4df291d72c9beab47b8a7abcd648ba89136906004016160bf565b613a5961684d565b613a63818361778a565b610aa56040519283926020845260208401916165ee565b50346104de5760203660031901126104de5760209060ff906040906001600160a01b03613aa5616075565b168152602584522054166040519015158152f35b50346104de5760203660031901126104de576020906040906001600160a01b03613ae1616075565b168152601e83522054604051908152f35b34610ded575f366003190112610ded57610200604051613b1282826161ed565b813682376b014adf4b7320334b90000000815266038d7ea4c68000602082015262278d006040820152662386f26fc10000606082015260646080820152610e1060a082015262093a8060c0820152670de0b6b3a764000060e0820152600161010082015260056101208201526101f461014082015262093a80610160820152602061018082015260206101a0820152600a6101c0820152613bbb6a01a784379d99db4200000090565b6101e0820152604051905f825b60108210613bd557505050f35b6020806001928551815201930191019091613bc8565b34610ded575f366003190112610ded57610548611576616229565b34610ded576080366003190112610ded57600435613c2261608b565b6044356001600160a01b038116929190839003610ded576064356001600160a01b0381169290839003610ded575f516020617fda5f395f51905f52549160ff8360401c1615926001600160401b03811680159081614875575b600114908161486b575b159081614862575b506148535767ffffffffffffffff1981166001175f516020617fda5f395f51905f525583614827575b506001600160a01b0381169081156147ea5785156147ae57613cd985151561672e565b6b014adf4b7320334b90000000830361476957613cf4616229565b94604095865190613d0588836161ed565b6005825264047535445560dc1b6020830152613d1f6178cc565b613d276178cc565b8051906001600160401b03821161393e57613d4f5f516020617dba5f395f51905f52546162d9565b601f81116146fa575b50602090601f831160011461467d57613d8792915f918361448f5750508160011b915f199060031b1c19161790565b5f516020617dba5f395f51905f52555b8051906001600160401b03821161393e57613dbf5f516020617e3a5f395f51905f52546162d9565b601f811161460e575b50602090601f831160011461459157613df792915f91836145865750508160011b915f199060031b1c19161790565b5f516020617e3a5f395f51905f52555b613e0f6178cc565b613e176178cc565b613e1f6178cc565b613e276178cc565b60015f516020617f9a5f395f51905f5255613e40616229565b96613e4961624e565b97613e526178cc565b613e5a6178cc565b8051906001600160401b03821161393e57613e825f516020617e1a5f395f51905f52546162d9565b601f8111614517575b50602090601f831160011461449a57613eba92915f918361448f5750508160011b915f199060031b1c19161790565b5f516020617e1a5f395f51905f52555b87516001600160401b03811161393e57613ef15f516020617e7a5f395f51905f52546162d9565b601f8111614420575b506020601f8211600114614399578161404e95949392613f34926140e09a9b9c5f9261438e5750508160011b915f199060031b1c19161790565b5f516020617e7a5f395f51905f52555b5f7fa16a46d94261c7517cc8ff89f61c0ce93598e3c849801011dee649a6a557d100555f7fa16a46d94261c7517cc8ff89f61c0ce93598e3c849801011dee649a6a557d10155846001600160601b0360a01b600d541617600d55738315177ab297ba92a06054ce80a67ed4dbd7ed3a6001600160601b0360a01b60155416176015556001600160601b0360a01b60165416176016556001600160601b0360a01b600f541617600f5564174876e80060175560ff19601954166019554260185561400c81616bab565b5061401681616c42565b5061402081616ce8565b5061402a81616b2b565b5061403481616da1565b5061403e81616e47565b5061404881616f00565b50616fa6565b503303614339575b5f805566038d7ea4c68000600155611388600255610e1060035562278d0042046008554260095561408f6a01a784379d99db4200000090565b6006556a01a784379d99db42000000600b556140a9617614565b6140d88160018060a01b03600f54166140d3611df4835f516020617e5a5f395f51905f52546164c4565b6178f7565b600a546164c4565b600a5561410a82516140f284826161ed565b6006815265199a5d189a5d60d21b60208201526176db565b614134825161411984826161ed565b600981526819dbdbd9db19599a5d60ba1b60208201526176db565b7f2e05e0fba3ec364ba1385f14b1086c8209fc02216de40d2048994d870230754c6141e8835161416485826161ed565b600b8152610e106003602083016a0c2e0e0d8cad0cac2d8e8d60ab1b8152875160208186518085835e8101601a815203019020600160ff1982541617905560208851809286518091835e602490820190815203019020805461ffff191681555f6001820155612710600282015501558451606080825290928392909183019061611e565b5f60208301525f868301520390a16141fe61624e565b602081519101205f526032602052815f20600160ff198254161790557f8d1c6685a34f0d317022b7016510683d5bb9b2113877481ee1ee58cf0ebbff3261425961424661624e565b845191829160208352602083019061611e565b0390a161426461624e565b60208151910120805f526030602052825f20600160ff198254161790557feedab8eaa8b4d79b239eb46bc7462090269cc1393333d78e0476ab46c7d796836142c06142ad61624e565b855191829160208352602083019061611e565b0390a15f526036602052815f20600160ff198254161790556005602f556142e357005b60207fc7f505b2f371ae2175ee4913f4499e1f2633a7b5936321eed1cdaeb6115181d29168ff0000000000000000195f516020617fda5f395f51905f5254165f516020617fda5f395f51905f52555160018152a1005b61434233616bab565b5061434c33616c42565b5061435633616ce8565b5061436033616b2b565b5061436a33616da1565b5061437433616e47565b5061437e33616f00565b5061438833616fa6565b50614056565b015190508c80611cfb565b601f198216995f516020617e7a5f395f51905f525f52815f209a5f5b81811061440857509a600192849261404e989796956140e09c9d9e106143f0575b505050811b015f516020617e7a5f395f51905f5255613f44565b01515f1960f88460031b161c191690558b80806143d6565b838301518d556001909c019b602093840193016143b5565b5f516020617e7a5f395f51905f525f527f5f9ce34815f8e11431c7bb75a8e6886a91478f7ffc1dbb0a98dc240fddd76b75601f830160051c81019160208410614485575b601f0160051c01905b81811061447a5750613efa565b5f815560010161446d565b9091508190614464565b015190508b80611cfb565b90601f198316915f516020617e1a5f395f51905f525f52815f20925f5b8181106144ff57509084600195949392106144e7575b505050811b015f516020617e1a5f395f51905f5255613eca565b01515f1960f88460031b161c191690558a80806144cd565b929360206001819287860151815501950193016144b7565b5f516020617e1a5f395f51905f525f527f42ad5d3e1f2e6e70edcf6d991b8a3023d3fca8047a131592f9edb9fd9b89d57d601f840160051c8101916020851061457c575b601f0160051c01905b8181106145715750613e8b565b5f8155600101614564565b909150819061455b565b015190508a80611cfb565b90601f198316915f516020617e3a5f395f51905f525f52815f20925f5b8181106145f657509084600195949392106145de575b505050811b015f516020617e3a5f395f51905f5255613e07565b01515f1960f88460031b161c191690558980806145c4565b929360206001819287860151815501950193016145ae565b5f516020617e3a5f395f51905f525f527f46a2803e59a4de4e7a4c574b1243f25977ac4c77d5a1a4a609b5394cebb4a2aa601f840160051c81019160208510614673575b601f0160051c01905b8181106146685750613dc8565b5f815560010161465b565b9091508190614652565b90601f198316915f516020617dba5f395f51905f525f52815f20925f5b8181106146e257509084600195949392106146ca575b505050811b015f516020617dba5f395f51905f5255613d97565b01515f1960f88460031b161c191690558a80806146b0565b9293602060018192878601518155019501930161469a565b5f516020617dba5f395f51905f525f527f2ae08a8e29253f69ac5d979a101956ab8f8d9d7ded63fa7a83b16fc47648eab0601f840160051c8101916020851061475f575b601f0160051c01905b8181106147545750613d58565b5f8155600101614747565b909150819061473e565b60405162461bcd60e51b815260206004820152601f60248201527f696e697469616c537570706c7920213d20494e495449414c5f535550504c59006044820152606490fd5b60405162461bcd60e51b8152602060048201526014602482015273496e76616c6964207072696365206f7261636c6560601b6044820152606490fd5b60405162461bcd60e51b8152602060048201526015602482015274496e76616c69642061646d696e206164647265737360581b6044820152606490fd5b68ffffffffffffffffff191668010000000000000001175f516020617fda5f395f51905f525585613cb6565b63f92ee8a960e01b5f5260045ffd5b90501587613c8d565b303b159150613c85565b859150613c7b565b34610ded576020366003190112610ded576004356001600160401b038111610ded5760ff60206148b2819336906004016160bf565b91908260405193849283378101601a81520301902054166040519015158152f35b34610ded575f366003190112610ded5760a060085460075460065460095490600c54926040519485526020850152604084015260608301526080820152f35b34610ded576020366003190112610ded576001600160a01b03614933616075565b165f525f516020617dfa5f395f51905f52602052602060405f2054604051908152f35b34610ded576020366003190112610ded577fc6476a40ff1414a9b8fd9a0536c6fbe966dfd2cd4080a53f0bd41eb8eb9f95b16149906160b0565b6149986168f2565b60ff196004541660ff8215151617600455805f146149d8576202a30042016005555b6005546040805192151583526020830191909152819081015b0390a1005b5f6005556149ba565b34610ded575f366003190112610ded576020602f54604051908152f35b34610ded575f366003190112610ded57606060175460185460ff6019541690604051928352602083015215156040820152f35b34610ded576020366003190112610ded57600435614a4d6168f2565b614a5c60ff60195416156166e2565b64174876e80081101580614ae5575b15614aaa5760407fc4c553da0c857da00863fb442a80dbbf19d9301dc6c37a81554ad697cf393b8f9142601855806017558151908152426020820152a1005b60405162461bcd60e51b81526020600482015260136024820152725374616b65206f7574206f6620626f756e647360681b6044820152606490fd5b5066038d7ea4c68000811115614a6b565b34610ded576040366003190112610ded576004356001600160401b038111610ded57614bb7610a44614b63614b507f15956a3f8fc5fb015d5b42646f2fea3821aa3f33e95fbf24214c7a3c3f689e729436906004016160bf565b9290614b5a6160a1565b93610a3d61684d565b9081516020830120805f526030602052614b8360ff60405f205416616271565b5f526036602052614ba38160405f209060ff801983541691151516179055565b60405192839260408452604084019061611e565b90151560208301520390a1005b34610ded575f366003190112610ded57600f546040516001600160a01b039091168152602090f35b34610ded575f366003190112610ded57602060ff5f516020617f5a5f395f51905f5254166040519015158152f35b34610ded576020366003190112610ded576004355f526034602052602060ff60405f2054166040519015158152f35b34610ded576060366003190112610ded576004356001600160a01b03811690819003610ded57614c7761608b565b9060443591614c846168f2565b614c8c616acc565b614c94617574565b6001600160a01b031691614ca983151561669e565b5f80604051602081019063a9059cbb60e01b825286602482015284604482015260448152614cd86064826161ed565b519082865af1614ce66164f7565b81614d75575b5015614d305760207fda568f14cc33c45f2866f24477f9007a04f029daa19ea7192cf685a53b9b92c891604051908152a360015f516020617f9a5f395f51905f5255005b60405162461bcd60e51b815260206004820152601960248201527f47533a204552433230207472616e73666572206661696c6564000000000000006044820152606490fd5b8051801592508215614d8a575b505084614cec565b8192509060209181010312610ded57602001518015158103610ded578480614d82565b34610ded576020366003190112610ded57614dc66160b0565b603754614de1906001600160a01b031661069f81151561660e565b8015614e6d5760207fe71cfad5ee2c535dad6478993dbf32aad1a2ade4ae6ad13079ada87d18cd3f9491614e13616b04565b600160ff195f516020617f5a5f395f51905f525416175f516020617f5a5f395f51905f52557f62e78cea01bee320cd4e420270b5ea74000d11b0c9f74754ebdbfc544b05a25882604051338152a15b6040519015158152a1005b5f516020617f5a5f395f51905f525460ff811615614eeb577fe71cfad5ee2c535dad6478993dbf32aad1a2ade4ae6ad13079ada87d18cd3f949160209160ff19165f516020617f5a5f395f51905f52557f5db9ee0a495bf2e6ff9c91a7834c1ba4fdd244a5e8aa4e537bd38aeae4b073aa82604051338152a1614e62565b638dfc202b60e01b5f5260045ffd5b34610ded576020366003190112610ded57600435614f166168f2565b614f1e616acc565b614f26617574565b335f52602260205260ff60405f20541615614f9957614f46813330616994565b5f516020617e5a5f395f51905f525460405191825260208201527fbb757047c2b5f3974fe26b7c10f732e7bce710b0952a71082702781e62ae059560403392a260015f516020617f9a5f395f51905f5255005b60405162461bcd60e51b815260206004820152601a60248201527f47533a20756e617574686f72697a656420726563697069656e740000000000006044820152606490fd5b34610ded576020366003190112610ded57614ff7616075565b614fff6167fe565b6001600160a01b0316801561504657601680546001600160a01b031916821790557f3df77beb5db05fcdd70a30fc8adf3f83f9501b68579455adbd100b81809403945f80a2005b60405162461bcd60e51b815260206004820152600e60248201526d496e76616c6964206f7261636c6560901b6044820152606490fd5b34610ded575f366003190112610ded576037546060906001600160a01b031680156150c7576150aa81617540565b60018060a01b031660405191825280602083015233146040820152f35b5f6150aa565b34610ded576040366003190112610ded576004356001600160401b038111610ded5761511e7f95c604bce60c48b7c643e84e802d9f6d51beb87adb385e1394bdd6518f49eb089136906004016160bf565b60243561512961684d565b61514a60ff60405184868237602081868101601a81520301902054166165b1565b806001604051848682376020818681016024815203019020015561517b6040519384936040855260408501916165ee565b9060208301520390a1005b34610ded576040366003190112610ded576001600160a01b036151a7616075565b165f52603560205260405f206024355f52602052602060ff60405f2054166040519015158152f35b34610ded57602060046151e136616172565b91939082604051938492833781016024815203019020019060018060a01b03165f52602052602060405f2054604051908152f35b34610ded576020366003190112610ded5761523260043533617474565b005b34610ded575f366003190112610ded5761524c616896565b5f516020617f5a5f395f51905f525460ff811615614eeb5760ff19165f516020617f5a5f395f51905f52557f5db9ee0a495bf2e6ff9c91a7834c1ba4fdd244a5e8aa4e537bd38aeae4b073aa6020604051338152a1005b5f366003190112610ded5734156152f457335f52602c60205260405f203481540190556040513481527f9e71bc8eea02a63969f509818f2dafb9254532904319f9dbda79b67bd34a5f3d60203392a2005b60405162461bcd60e51b815260206004820152600b60248201526a139bc8115512081cd95b9d60aa1b6044820152606490fd5b34610ded576040366003190112610ded5761534061608b565b336001600160a01b0382160361535c57615232906004356173d8565b63334bd91960e11b5f5260045ffd5b34610ded575f366003190112610ded5760206b033b2e3c9fd0803ce8000000611071565b34610ded576020366003190112610ded576004356001600160401b038111610ded576153bf903690600401616142565b6153c761684d565b6153d4600a821115616526565b5f5b81811015615232576001906153f96153f38260051b86018661657f565b906170b7565b016153d6565b34610ded576020366003190112610ded576004356001600160401b038111610ded5761542f903690600401616142565b906154386167fe565b6154456014831115616526565b5f5b82811061545057005b61545e61084482858561648d565b906001600160a01b03821680156154fc575f8181525f516020617e9a5f395f51905f52602052604090205460ff166154c65761549b600193616b2b565b507f47d1c22a25bb3a5d4e481b9b1e6944c2eade3181a0a20b495ed61d35b5323f245f80a201615447565b60405162461bcd60e51b815260206004820152600e60248201526d20b63932b0b23c9039b4b3b732b960911b6044820152606490fd5b60405162461bcd60e51b815260206004820152600e60248201526d24b73b30b634b21039b4b3b732b960911b6044820152606490fd5b34610ded575f366003190112610ded5760405161555060e0826161ed565b60e03682375f516020617eba5f395f51905f5281527f9f2df0fed2c77648de5860a4cc508cd0818c85b8b8a1ab4ceeef8d981c8956a660208201525f516020617eda5f395f51905f5260408201525f516020617fba5f395f51905f5260608201525f516020617f1a5f395f51905f5260808201527f189ab7a9244df0848122154315af71fe140f3db0fe014031783b0946b8c9d2e360a08201525f516020617f7a5f395f51905f5260c082015260405190815f905b600782106156125760e084f35b6020806001928551815201930191019091615605565b34610ded575f366003190112610ded57602060405160128152f35b34610ded576040366003190112610ded5761523260043561566261608b565b90615688611005825f525f516020617f3a5f395f51905f52602052600160405f20015490565b617026565b34610ded576020366003190112610ded576004356156a961684d565b60028110158061572e575b156156f9575f516020617efa5f395f51905f526040602f5483602f55601082516f185b9bdb585b1e551a1c995cda1bdb1960821b8152209382519182526020820152a2005b60405162461bcd60e51b815260206004820152600d60248201526c189859081d1a1c995cda1bdb19609a1b6044820152606490fd5b50600a8111156156b4565b34610ded576020366003190112610ded57600435615755616acc565b61575d616b04565b801561584f57335f52602c60205260405f2054818110615813578190335f52602c6020520360405f20555f80808084335af16157976164f7565b50156157dc576040519081527f7084f5476618d8e60b11ef0d7d3f06914655adb8793e28ff7f018d4c76d505d560203392a260015f516020617f9a5f395f51905f5255005b60405162461bcd60e51b815260206004820152600f60248201526e115512081cd95b990819985a5b1959608a1b6044820152606490fd5b60405162461bcd60e51b8152602060048201526014602482015273496e73756666696369656e742062616c616e636560601b6044820152606490fd5b60405162461bcd60e51b815260206004820152600e60248201526d125b9d985b1a5908185b5bdd5b9d60921b6044820152606490fd5b34610ded576020366003190112610ded5760206110716004355f525f516020617f3a5f395f51905f52602052600160405f20015490565b34610ded576060366003190112610ded576158d5616075565b6158dd61608b565b604435906158ea836161b5565b335f9081526020919091526040902054925f19841061590e575b6115b19350616994565b828410615979576001600160a01b03811615615966573315615953576115b193615937826161b5565b60018060a01b0333165f526020528360405f2091039055615904565b634a1406b160e11b5f525f60045260245ffd5b63e602df0560e01b5f525f60045260245ffd5b8284637dc7a0d960e11b5f523360045260245260445260645ffd5b34610ded575f366003190112610ded576040600a54600b5482519182526020820152f35b34610ded576020366003190112610ded576004356001600160401b038111610ded5760206159ec60a09236906004016160bf565b919082604051938492833781016024815203019020805490600181015490600360028201549101549160ff604051948181161515865260081c1615156020850152604084015260608301526080820152f35b34610ded576020366003190112610ded576004355f90815260326020908152604080832054603383529281902054815160ff909416151584529183019190915290f35b34610ded575f366003190112610ded5760205f516020617e5a5f395f51905f5254604051908152f35b34610ded57615b0d610548615abe36616172565b929160018060a09693961b031693845f526026602052615ae260405f2085836164de565b5493855f526027602052615afa60405f2082846164de565b54955f52602860205260405f20916164de565b54604051938493846040919493926060820195825260208201520152565b34610ded576060366003190112610ded57615b4461684d565b600435601155602435601255604435601355005b34610ded575f366003190112610ded57600c54600181016b033b2e3c9fd0803ce8000000818311615bd05780615b8f921c906164d1565b90600a548083115f14615bc657615ba961054891846164d1565b604051938493846040919493926060820195825260208201520152565b506105485f615ba9565b634e487b7160e01b5f52601160045260245ffd5b34610ded576020366003190112610ded576004356001600160401b038111610ded57615c14903690600401616142565b615c1c61684d565b60328111615cb8575f5b818110615c2f57005b80615c3d600192848661648d565b35805f52601c60205260405f20548015159081615cae575b50615c62575b5001615c26565b805f52601b60205260405f2060ff198154169055805f52601c6020525f60408120557f381e26b872032ced7056a59b9964dccc17682df54313b56303a11660ac1d475b5f80a284615c5b565b9050421186615c55565b60405162461bcd60e51b815260206004820152601b60248201527f45786365656473206d617820636c656172616e636520626174636800000000006044820152606490fd5b34610ded575f366003190112610ded5760a0600180821b0360105416600180831b036014541660115460125490601354926040519485526020850152604084015260608301526080820152f35b34610ded576040366003190112610ded57615d63616075565b602435903315615966576001600160a01b031690811561595357615d86336161b5565b825f526020528060405f20556040519081527f8c5be1e5ebec7d5bd14f71427d1e84f3dd0314c0f7b2291e5b200ac8c7c3b92560203392a3602060405160018152f35b34610ded575f366003190112610ded576040515f5f516020617dba5f395f51905f5254615df5816162d9565b80845290600181169081156134575750600114615e1c5761054883611576818503826161ed565b5f516020617dba5f395f51905f525f9081527f2ae08a8e29253f69ac5d979a101956ab8f8d9d7ded63fa7a83b16fc47648eab0939250905b808210615e6c575090915081016020016115766133dd565b919260018160209254838588010152019101909291615e54565b34610ded577fac0f66e3d1a8a7f44dba239d65133bfd60b756b29dd6a4b01c24967cf9711daa610a44615ebb610a32366160ec565b80516020820120805f526030602052615eda60ff60405f205416616271565b5f5260316020528160405f20556149d3604051928392836162bd565b34610ded576040366003190112610ded57615f0f616075565b615f176160a1565b90615f206167fe565b6001600160a01b0316908115615f7f5760207f5aada98892218bdd00b2f2dc837b5a51867fedcf13db320aa714028dc2faa7ab91835f5260218252615f748160405f209060ff801983541691151516179055565b6040519015158152a2005b60405162461bcd60e51b815260206004820152601160248201527024b73b30b634b21018991b989030b2323960791b6044820152606490fd5b34610ded576020366003190112610ded576060600435805f52603060205260ff60405f20541690805f52603160205260405f2054905f52603660205260ff60405f205416906040519215158352602083015215156040820152f35b34610ded576020366003190112610ded576004359063ffffffff60e01b8216809203610ded576020916301ffc9a760e01b8114908115616055575b5015158152f35b637965db0b60e01b1490811561606d575b508361604e565b905083616066565b600435906001600160a01b0382168203610ded57565b602435906001600160a01b0382168203610ded57565b602435908115158203610ded57565b600435908115158203610ded57565b9181601f84011215610ded578235916001600160401b038311610ded5760208381860195010111610ded57565b6040600319820112610ded57600435906001600160401b038211610ded57616116916004016160bf565b909160243590565b805180835260209291819084018484015e5f828201840152601f01601f1916010190565b9181601f84011215610ded578235916001600160401b038311610ded576020808501948460051b010111610ded57565b906040600319830112610ded576004356001600160a01b0381168103610ded5791602435906001600160401b038211610ded576161b1916004016160bf565b9091565b6001600160a01b03165f9081527f52c63247e1f47db19d5ce0460030c497f067ca4cebf71ba98eeadabe20bace016020526040902090565b90601f801991011681019081106001600160401b0382111761393e57604052565b6001600160401b03811161393e57601f01601f191660200190565b604051906162386040836161ed565b6007825266047656d537465760cc1b6020830152565b6040519061625d6040836161ed565b60058252640312e302e360dc1b6020830152565b1561627857565b60405162461bcd60e51b815260206004820152601860248201527f41747465737420766572206e6f7420737570706f7274656400000000000000006044820152606490fd5b9291906162d460209160408652604086019061611e565b930152565b90600182811c92168015616307575b60208310146162f357565b634e487b7160e01b5f52602260045260245ffd5b91607f16916162e8565b604051905f825f516020617e1a5f395f51905f525491616330836162d9565b80835292600181169081156163c15750600114616356575b616354925003836161ed565b565b505f516020617e1a5f395f51905f525f90815290917f42ad5d3e1f2e6e70edcf6d991b8a3023d3fca8047a131592f9edb9fd9b89d57d5b8183106163a557505090602061635492820101616348565b602091935080600191548385890101520191019091849261638d565b6020925061635494915060ff191682840152151560051b820101616348565b604051905f825f516020617e7a5f395f51905f5254916163ff836162d9565b80835292600181169081156163c1575060011461642257616354925003836161ed565b505f516020617e7a5f395f51905f525f90815290917f5f9ce34815f8e11431c7bb75a8e6886a91478f7ffc1dbb0a98dc240fddd76b755b81831061647157505090602061635492820101616348565b6020919350806001915483858901015201910190918492616459565b919081101561649d5760051b0190565b634e487b7160e01b5f52603260045260245ffd5b81810292918115918404141715615bd057565b91908201809211615bd057565b91908203918211615bd057565b6020919283604051948593843782019081520301902090565b3d15616521573d906165088261620e565b9161651660405193846161ed565b82523d5f602084013e565b606090565b1561652d57565b60405162461bcd60e51b815260206004820152601660248201527545786365656473206d61782062617463682073697a6560501b6044820152606490fd5b356001600160a01b0381168103610ded5790565b903590601e1981360301821215610ded57018035906001600160401b038211610ded57602001918136038313610ded57565b156165b857565b60405162461bcd60e51b815260206004820152600e60248201526d496e76616c696420736f7572636560901b6044820152606490fd5b908060209392818452848401375f828201840152601f01601f1916010190565b1561661557565b60405162461bcd60e51b815260206004820152601960248201527f47533a204c3120676f7665726e616e6365206e6f7420736574000000000000006044820152606490fd5b1561666157565b60405162461bcd60e51b815260206004820152601560248201527447533a206e6f74204c3120676f7665726e616e636560581b6044820152606490fd5b156166a557565b60405162461bcd60e51b815260206004820152601560248201527411d4ce881a5b9d985b1a59081c9958da5c1a595b9d605a1b6044820152606490fd5b156166e957565b60405162461bcd60e51b815260206004820152601760248201527f5374616b6520706172616d6574657273206c6f636b65640000000000000000006044820152606490fd5b1561673557565b60405162461bcd60e51b815260206004820152601060248201526f151c99585cdd5c9e481b9bdd081cd95d60821b6044820152606490fd5b9291926167798261620e565b9161678760405193846161ed565b829481845281830111610ded578281602093845f960137010152565b600181106167d4576001546167b7916164b1565b611f40810290808204611f401490151715615bd057612710900490565b505f90565b6001600160a01b0390911681526040602082018190526167fb939101916165ee565b90565b335f9081527fb7db2dd08fcb62d0c9e08c51941cae53c267786a0b75803fb7960902fc8ef97d602052604090205460ff161561683657565b63e2517d3f60e01b5f52336004525f60245260445ffd5b335f9081525f516020617dda5f395f51905f52602052604090205460ff161561687257565b63e2517d3f60e01b5f52336004525f516020617fba5f395f51905f5260245260445ffd5b335f9081527f75442b0a96088b5456bc4ed01394c96a4feec0f883c9494257d76b96ab1c9b6b602052604090205460ff16156168ce57565b63e2517d3f60e01b5f52336004525f516020617eba5f395f51905f5260245260445ffd5b335f9081527fc9a598eacddc3eb83aa1c19f909080ee19b7a1d21b2710f5c44b7431f642875f602052604090205460ff161561692a57565b63e2517d3f60e01b5f52336004525f516020617f1a5f395f51905f5260245260445ffd5b5f8181525f516020617f3a5f395f51905f526020908152604080832033845290915290205460ff161561697e5750565b63e2517d3f60e01b5f523360045260245260445ffd5b6001600160a01b0316908115616ab9576001600160a01b0316918215616aa65760ff5f516020617f5a5f395f51905f525416616a6857815f525f516020617dfa5f395f51905f5260205260405f2054818110616a4f57817fddf252ad1be2c89b69c2b068fc378daa952ba7f163c4a11628f55a4df523b3ef92602092855f525f516020617dfa5f395f51905f5284520360405f2055845f525f516020617dfa5f395f51905f52825260405f20818154019055604051908152a3565b8263391434e360e21b5f5260045260245260445260645ffd5b60405162461bcd60e51b8152602060048201526016602482015275151bdad95b881d1c985b9cd9995c9cc81c185d5cd95960521b6044820152606490fd5b63ec442f0560e01b5f525f60045260245ffd5b634b637e8f60e11b5f525f60045260245ffd5b60025f516020617f9a5f395f51905f525414616af55760025f516020617f9a5f395f51905f5255565b633ee5aeb560e01b5f5260045ffd5b60ff5f516020617f5a5f395f51905f525416616b1c57565b63d93c066560e01b5f5260045ffd5b6001600160a01b0381165f9081525f516020617e9a5f395f51905f52602052604090205460ff166167d4576001600160a01b03165f8181525f516020617e9a5f395f51905f5260205260408120805460ff191660011790553391905f516020617eda5f395f51905f52905f516020617d9a5f395f51905f529080a4600190565b6001600160a01b0381165f9081527fb7db2dd08fcb62d0c9e08c51941cae53c267786a0b75803fb7960902fc8ef97d602052604090205460ff166167d4576001600160a01b03165f8181527fb7db2dd08fcb62d0c9e08c51941cae53c267786a0b75803fb7960902fc8ef97d60205260408120805460ff191660011790553391905f516020617d9a5f395f51905f528180a4600190565b6001600160a01b0381165f9081527f75442b0a96088b5456bc4ed01394c96a4feec0f883c9494257d76b96ab1c9b6b602052604090205460ff166167d4576001600160a01b03165f8181527f75442b0a96088b5456bc4ed01394c96a4feec0f883c9494257d76b96ab1c9b6b60205260408120805460ff191660011790553391905f516020617eba5f395f51905f52905f516020617d9a5f395f51905f529080a4600190565b6001600160a01b0381165f9081527f549fe2656c81d2947b3b913f0a53b9ea86c71e049f3a1b8aa23c09a8a05cb8d4602052604090205460ff166167d4576001600160a01b03165f8181527f549fe2656c81d2947b3b913f0a53b9ea86c71e049f3a1b8aa23c09a8a05cb8d460205260408120805460ff191660011790553391907f9f2df0fed2c77648de5860a4cc508cd0818c85b8b8a1ab4ceeef8d981c8956a6905f516020617d9a5f395f51905f529080a4600190565b6001600160a01b0381165f9081527fc9a598eacddc3eb83aa1c19f909080ee19b7a1d21b2710f5c44b7431f642875f602052604090205460ff166167d4576001600160a01b03165f8181527fc9a598eacddc3eb83aa1c19f909080ee19b7a1d21b2710f5c44b7431f642875f60205260408120805460ff191660011790553391905f516020617f1a5f395f51905f52905f516020617d9a5f395f51905f529080a4600190565b6001600160a01b0381165f9081527fab71e3f32666744d246edff3f96e4bdafee2e9867098cdd118a979a7464786a8602052604090205460ff166167d4576001600160a01b03165f8181527fab71e3f32666744d246edff3f96e4bdafee2e9867098cdd118a979a7464786a860205260408120805460ff191660011790553391907f189ab7a9244df0848122154315af71fe140f3db0fe014031783b0946b8c9d2e3905f516020617d9a5f395f51905f529080a4600190565b6001600160a01b0381165f9081527f4e82fbf4a49d060aef499240110a0d87090de43e0de40fc184ec78f4868ed271602052604090205460ff166167d4576001600160a01b03165f8181527f4e82fbf4a49d060aef499240110a0d87090de43e0de40fc184ec78f4868ed27160205260408120805460ff191660011790553391905f516020617f7a5f395f51905f52905f516020617d9a5f395f51905f529080a4600190565b6001600160a01b0381165f9081525f516020617dda5f395f51905f52602052604090205460ff166167d4576001600160a01b03165f8181525f516020617dda5f395f51905f5260205260408120805460ff191660011790553391905f516020617fba5f395f51905f52905f516020617d9a5f395f51905f529080a4600190565b5f8181525f516020617f3a5f395f51905f52602090815260408083206001600160a01b038616845290915290205460ff166170b1575f8181525f516020617f3a5f395f51905f52602090815260408083206001600160a01b0395909516808452949091528120805460ff19166001179055339291905f516020617d9a5f395f51905f529080a4600190565b50505f90565b335f9081525f516020617dda5f395f51905f52602052604090205460ff16801561733e575b1561730a576170ec36838361676d565b805190600382106172d2576014821161729b5760ff60405185858237602081878101601a815203019020541661725e575f5b82811061717f5750505060405182828237602081848101601a815203019020600160ff1982541617905581604051928392833781015f81520390207f75115c99042d894d76fbc90c7bbca27de298d397fa273b3bd50ea1794e07fee85f80a2565b815181101561649d5760ff60f81b6020828401015116606160f81b811015908161724f575b811561722b575b8115617205575b50156171c05760010161711e565b60405162461bcd60e51b815260206004820152601960248201527f496e76616c696420736f757263652063686172616374657273000000000000006044820152606490fd5b600360fc1b81101591508161721c575b505f6171b2565b603960f81b101590505f617215565b9050604160f81b81101580617241575b906171ab565b50602d60f91b81111561723b565b603d60f91b81111591506171a4565b60405162461bcd60e51b8152602060048201526015602482015274536f7572636520616c72656164792065786973747360581b6044820152606490fd5b60405162461bcd60e51b815260206004820152600f60248201526e536f7572636520746f6f206c6f6e6760881b6044820152606490fd5b60405162461bcd60e51b815260206004820152601060248201526f14dbdd5c98d9481d1bdbc81cda1bdc9d60821b6044820152606490fd5b60405162461bcd60e51b815260206004820152600c60248201526b155b985d5d1a1bdc9a5e995960a21b6044820152606490fd5b503033146170dc565b6001600160a01b0381165f9081525f516020617e9a5f395f51905f52602052604090205460ff16156167d4576001600160a01b03165f8181525f516020617e9a5f395f51905f5260205260408120805460ff191690553391905f516020617eda5f395f51905f52907ff6391f5c32d9c69d2a47ea670b442974b53935d1edc7fd64eb21e047a839171b9080a4600190565b5f8181525f516020617f3a5f395f51905f52602090815260408083206001600160a01b038616845290915290205460ff16156170b1575f8181525f516020617f3a5f395f51905f52602090815260408083206001600160a01b0395909516808452949091528120805460ff19169055339291907ff6391f5c32d9c69d2a47ea670b442974b53935d1edc7fd64eb21e047a839171b9080a4600190565b9091906001600160a01b03168015616ab95760ff5f516020617f5a5f395f51905f525416616a6857805f525f516020617dfa5f395f51905f5260205260405f2054838110617526576020845f94957fddf252ad1be2c89b69c2b068fc378daa952ba7f163c4a11628f55a4df523b3ef938587525f516020617dfa5f395f51905f528452036040862055805f516020617e5a5f395f51905f5254035f516020617e5a5f395f51905f5255604051908152a3565b915063391434e360e21b5f5260045260245260445260645ffd5b6001600160a01b0390811673111100000000000000000000000000000000111101908111615bd0576001600160a01b031690565b60ff60045416156175cf57600554421061758a57565b60405162461bcd60e51b815260206004820152601a60248201527f456d657267656e63792064656c6179206e6f74207061737365640000000000006044820152606490fd5b60405162461bcd60e51b815260206004820152601e60248201527f456d657267656e6379207769746864726177616c732064697361626c656400006044820152606490fd5b62278d00420460085481116176265750565b6040817fe173c9ac4c014501a8c96fc91234d51d22061172cbbbbed60e3649ec31eb3288926008555f600755426009557fbb06e862fa56ed4f76476cc209090725269eba93ce87444dd31f5d6807f647d760208351838152a1600b5482519182526020820152a1565b1561769657565b60405162461bcd60e51b815260206004820152601960248201527f45524332304361707065643a20636170206578636565646564000000000000006044820152606490fd5b6177777f2e05e0fba3ec364ba1385f14b1086c8209fc02216de40d2048994d870230754c91610e106003604051835190602081818701938085835e8101601a815203019020600160ff198254161790556020604051809286518091835e602490820190815203019020805461ffff19166101011781555f600182015561271060028201550155604051606080825290928392909183019061611e565b60016020830152600160408301520390a1565b6177c0610a44617808927feedab8eaa8b4d79b239eb46bc7462090269cc1393333d78e0476ab46c7d7968394610a3d818361780d565b80516020820120805f52603060205260405f20600160ff198254161790555f52603660205260405f20600160ff1982541617905560405191829160208352602083019061611e565b0390a1565b508015159081617853575b501561782057565b60405162461bcd60e51b815260206004820152600b60248201526a2130b2103b32b939b4b7b760a91b6044820152606490fd5b6020915011155f617818565b903590601e1981360301821215610ded57018035906001600160401b038211610ded57602001918160051b36038313610ded57565b80516020820120600360206040516178ad6040826161ed565b82815201620312e360ec1b815220146178c35790565b506167fb61624e565b60ff5f516020617fda5f395f51905f525460401c16156178e857565b631afcd79f60e31b5f5260045ffd5b6001600160a01b0316908115616aa65760ff5f516020617f5a5f395f51905f525416616a68577fddf252ad1be2c89b69c2b068fc378daa952ba7f163c4a11628f55a4df523b3ef60208261795a5f945f516020617e5a5f395f51905f52546164c4565b5f516020617e5a5f395f51905f52558484525f516020617dfa5f395f51905f52825260408420818154019055604051908152a3565b9060418151145f146179b7576161b191602082015190606060408401519301515f1a90617c64565b50505f90600290565b6005811015617ac457806179d15750565b60018103617a1e5760405162461bcd60e51b815260206004820152601860248201527f45434453413a20696e76616c6964207369676e617475726500000000000000006044820152606490fd5b60028103617a6b5760405162461bcd60e51b815260206004820152601f60248201527f45434453413a20696e76616c6964207369676e6174757265206c656e677468006044820152606490fd5b600314617a7457565b60405162461bcd60e51b815260206004820152602260248201527f45434453413a20696e76616c6964207369676e6174757265202773272076616c604482015261756560f01b6064820152608490fd5b634e487b7160e01b5f52602160045260245ffd5b600c54603f811015617bfa576b033b2e3c9fd0803ce80000008060018301809311615bd057617b0991831c906164d1565b600a5410617bfa57600c819055600b54600154906001600160ff1b038111617bbe578060011b9080820460021490151715615bd05780600b558160011c928315617bb5575b917f9047807716ea1aa478fa752fa46e66d563d53fe2b8e3d47dbbdee3ac5873ee46604080935f516020617efa5f395f51905f52958760015582519182526020820152a1600a8251697265776172645261746560b01b8152209382519182526020820152a2565b60019350617b4e565b60405162461bcd60e51b81526020600482015260146024820152734d6f6e74686c7920636170206f766572666c6f7760601b6044820152606490fd5b50565b617c05617cea565b617c0d617d54565b6040519060208201927f8b73c3c69bb8fe3d512ecc4cf759cc79239f7b179b0ffacaa9a75d522b39400f8452604083015260608201524660808201523060a082015260a08152617c5e60c0826161ed565b51902090565b7f7fffffffffffffffffffffffffffffff5d576e7357a4501ddfe92f46681b20a08411617cdf576020935f9360ff60809460405194855216868401526040830152606082015282805260015afa15617cd4575f516001600160a01b03811615617ccc57905f90565b505f90600190565b6040513d5f823e3d90fd5b505050505f90600390565b617cf2616311565b8051908115617d02576020012090565b50507fa16a46d94261c7517cc8ff89f61c0ce93598e3c849801011dee649a6a557d100548015617d2f5790565b507fc5d2460186f7233c927e7db2dcc703c0e500b653ca82273b7bfad8045d85a47090565b617d5c6163e0565b8051908115617d6c576020012090565b50507fa16a46d94261c7517cc8ff89f61c0ce93598e3c849801011dee649a6a557d101548015617d2f579056fe2f8788117e7eff1d82e926ec794901d17c78024a50270940304540a733656f0d52c63247e1f47db19d5ce0460030c497f067ca4cebf71ba98eeadabe20bace03343583874d6a6b866e04a9f1c90919b6e17fde381cc318cd7d14ee418184279e52c63247e1f47db19d5ce0460030c497f067ca4cebf71ba98eeadabe20bace00a16a46d94261c7517cc8ff89f61c0ce93598e3c849801011dee649a6a557d10252c63247e1f47db19d5ce0460030c497f067ca4cebf71ba98eeadabe20bace0452c63247e1f47db19d5ce0460030c497f067ca4cebf71ba98eeadabe20bace02a16a46d94261c7517cc8ff89f61c0ce93598e3c849801011dee649a6a557d103ed82e8858f919528fd86c81da277f0812ef4876fae8bc5251645af9640d3f49f65d7a28e3265b37a6474929f336521b332c1681b933f6cb9f3376673440d862ae2f4eaae4a9751e85a3e4a7b9587827a877f29914755229b07a7b2da98285f70185daf617c465de5e0042f7aae1503b1a216ea8927cacf296e58b516e82afea85c91514091af31f62f596a314af7d5be40146b2f2355969392f055e12e0982fb02dd7bc7dec4dceedda775e58dd541e08a116c6c53815c0bd028192f7b626800cd5ed15c6e187e77e9aee88184c21f4f2182ab5827cb3b7e07fbedcd63f0330080cbedfe0feb1a5b3c44b4c40063bbd0c1bf0466bcf48b89d24bb496164df58b9b779b17422d0df92223018b32b4d1fa46e071723d6817e2486d003becc55f00896f2fe212e7ed9631b6dfe8fc24cd35f4d47b9e9a854d5b0eb08db6295a922cf0c57e16840df040f15088dc2f81fe391c3923bec73e23a9662efc9c229c6a00a2646970667358221220ac2e243d2502e583d9affa93eb8606d76ea58d113e7007075472cf592962152364736f6c634300081e0033f0c57e16840df040f15088dc2f81fe391c3923bec73e23a9662efc9c229c6a00",
    "sourcePath": "c:/Users/DShar/OneDrive/08-BlockchainDev/8 - GST GemStep_Prod/GSTEP/contracts/GemStepToken.sol",
    "compiler": {
        "name": "solc",
        "version": "0.8.30+commit.73712a01"
    },
    "functionHashes": {
        "DECIMALS()": "2e0f2625",
        "DEFAULT_ADMIN_ROLE()": "a217fddf",
        "DOMAIN_NAME()": "796f077b",
        "DOMAIN_VERSION()": "acb8cc49",
        "addSource(string)": "ed62d2ff",
        "addSupportedAttestationVersion(string)": "c3483a2a",
        "addSupportedPayloadVersion(string)": "991c6a95",
        "addSupportedVersion(string)": "8032c297",
        "addTrustedDevice(address)": "e4bafabb",
        "adjustStakeRequirements()": "c374653c",
        "allowance(address,address)": "dd62ed3e",
        "anomalyThreshold()": "6f83a586",
        "approve(address,uint256)": "095ea7b3",
        "approveRecipient(address,bool)": "ae0bbe4d",
        "approvedRecipients(address)": "dead610a",
        "balanceOf(address)": "70a08231",
        "batchAddSigners(address[])": "3492600d",
        "batchAddSources(string[])": "35466aca",
        "batchRemoveSigners(address[])": "f217ba6c",
        "burn(uint256)": "42966c68",
        "cap()": "355274ea",
        "clearExpiredSignatures(bytes32[])": "1039917e",
        "configureSource(string,bool,bool)": "86b414e9",
        "decimals()": "313ce567",
        "deprecateAttestationVersion(string,uint256)": "05152742",
        "deprecatePayloadVersion(string,uint256)": "e976f5d3",
        "eip712Domain()": "84b0196e",
        "emergencyPingL1(address,bytes)": "d957caaa",
        "emergencyWithdraw(uint256)": "5312ea8e",
        "emergencyWithdrawERC20(address,address,uint256)": "55b8fb81",
        "emergencyWithdrawETH(address,uint256)": "d79e8567",
        "estimateReward(uint256)": "d2e87561",
        "getArbitrumConfig()": "0e1508d9",
        "getAttestationVersionInfo(bytes32)": "0420da88",
        "getCoreParams()": "fb41f710",
        "getDistribution()": "1cced51b",
        "getEmergencyStatus()": "fa37273c",
        "getHalvingInfo()": "10d60dc4",
        "getL1Governance()": "f5e2bebb",
        "getL1GovernanceStatus()": "51596c56",
        "getMonthInfo()": "70d99188",
        "getPayloadVersionInfo(bytes32)": "1a7be7c0",
        "getPolicyConstantsPacked()": "f64ba145",
        "getPriceOracle()": "fca513a8",
        "getPublicConstantsPacked()": "7ca94024",
        "getRoleAdmin(bytes32)": "248a9ca3",
        "getRoleIdsPacked()": "31491075",
        "getSourceConfig(string)": "1c30fbc1",
        "getStakeConstants()": "eeed0fd9",
        "getStakeParams()": "6cc3eac8",
        "getUserCoreStatus(address)": "d8e5194e",
        "getUserSourceNonce(address,string)": "455fba88",
        "getUserSourceStats(address,string)": "11c9a3a6",
        "getUserTotalSteps(address)": "f77e4bb1",
        "grantRole(bytes32,address)": "2f2ff15d",
        "hasRole(bytes32,address)": "91d14854",
        "initialize(uint256,address,address,address)": "754d1d54",
        "initializeArbitrum(address,address)": "c7f6fbfe",
        "isSourceValid(string)": "71f91a8f",
        "isTrustedDevice(address)": "7ed56410",
        "l2SetPause(bool)": "541992f7",
        "l2UpdateParams(uint256,uint256)": "f4e7a0e5",
        "logSteps((address,address,uint256,uint256,uint256,string,string),(bytes,bytes32[],bytes))": "a4e521dd",
        "manualOverrideStake(uint256)": "6be27d4e",
        "name()": "06fdde03",
        "nonces(address)": "7ecebe00",
        "pause()": "8456cb59",
        "paused()": "5c975abb",
        "removeSource(string)": "99934fcd",
        "renounceRole(bytes32,address)": "36568abe",
        "revokeRole(bytes32,address)": "d547741f",
        "setAnomalyThreshold(uint256)": "29798846",
        "setAttestationNonceRequired(string,bool)": "66639b9e",
        "setL1Governance(address)": "e40272d7",
        "setMultisig(address)": "f3283fba",
        "setPriceOracle(address)": "530e784f",
        "setSourceMerkleRoot(string,bytes32)": "48ea00aa",
        "setTreasury(address)": "f0f44260",
        "setTrusted1271(address,bool)": "0493287c",
        "setTrustedAPI(address,bool)": "a5414649",
        "stake()": "3a4b66f1",
        "supportsInterface(bytes4)": "01ffc9a7",
        "symbol()": "95d89b41",
        "toggleEmergencyWithdraw(bool)": "706bb6ab",
        "toggleStakeParamLock()": "b218d19f",
        "totalSupply()": "18160ddd",
        "transfer(address,uint256)": "a9059cbb",
        "transferAdminRoles()": "81f9a84b",
        "transferFrom(address,address,uint256)": "23b872dd",
        "treasury()": "61d027b3",
        "trustedERC1271Contracts(address)": "d3117136",
        "unpause()": "3f4ba83a",
        "updateArbitrumGasParams(uint256,uint256,uint256)": "1175a1c9",
        "used1271Digests(address,bytes32)": "45ef827e",
        "usedAttestations(bytes32)": "5a553572",
        "usedSignatures(bytes32)": "f978fd61",
        "withdrawStake(uint256)": "25d5971f"
    },
    "gasEstimates": {
        "creation": {
            "codeDepositCost": "6563000",
            "executionCost": "infinite",
            "totalCost": "infinite"
        },
        "external": {
            "DECIMALS()": "576",
            "DEFAULT_ADMIN_ROLE()": "1550",
            "DOMAIN_NAME()": "1588",
            "DOMAIN_VERSION()": "1965",
            "addSource(string)": "infinite",
            "addSupportedAttestationVersion(string)": "infinite",
            "addSupportedPayloadVersion(string)": "infinite",
            "addSupportedVersion(string)": "infinite",
            "addTrustedDevice(address)": "infinite",
            "adjustStakeRequirements()": "infinite",
            "allowance(address,address)": "4340",
            "anomalyThreshold()": "3229",
            "approve(address,uint256)": "24470",
            "approveRecipient(address,bool)": "29835",
            "approvedRecipients(address)": "4193",
            "balanceOf(address)": "infinite",
            "batchAddSigners(address[])": "infinite",
            "batchAddSources(string[])": "infinite",
            "batchRemoveSigners(address[])": "infinite",
            "burn(uint256)": "infinite",
            "cap()": "723",
            "clearExpiredSignatures(bytes32[])": "infinite",
            "configureSource(string,bool,bool)": "infinite",
            "decimals()": "620",
            "deprecateAttestationVersion(string,uint256)": "infinite",
            "deprecatePayloadVersion(string,uint256)": "infinite",
            "eip712Domain()": "infinite",
            "emergencyPingL1(address,bytes)": "infinite",
            "emergencyWithdraw(uint256)": "infinite",
            "emergencyWithdrawERC20(address,address,uint256)": "infinite",
            "emergencyWithdrawETH(address,uint256)": "infinite",
            "estimateReward(uint256)": "4075",
            "getArbitrumConfig()": "10907",
            "getAttestationVersionInfo(bytes32)": "6739",
            "getCoreParams()": "10711",
            "getDistribution()": "4687",
            "getEmergencyStatus()": "6493",
            "getHalvingInfo()": "infinite",
            "getL1Governance()": "4268",
            "getL1GovernanceStatus()": "3183",
            "getMonthInfo()": "11773",
            "getPayloadVersionInfo(bytes32)": "4805",
            "getPolicyConstantsPacked()": "infinite",
            "getPriceOracle()": "4394",
            "getPublicConstantsPacked()": "infinite",
            "getRoleAdmin(bytes32)": "infinite",
            "getRoleIdsPacked()": "infinite",
            "getSourceConfig(string)": "infinite",
            "getStakeConstants()": "2067",
            "getStakeParams()": "7458",
            "getUserCoreStatus(address)": "15044",
            "getUserSourceNonce(address,string)": "infinite",
            "getUserSourceStats(address,string)": "infinite",
            "getUserTotalSteps(address)": "4442",
            "grantRole(bytes32,address)": "33867",
            "hasRole(bytes32,address)": "infinite",
            "initialize(uint256,address,address,address)": "infinite",
            "initializeArbitrum(address,address)": "52674",
            "isSourceValid(string)": "infinite",
            "isTrustedDevice(address)": "3599",
            "l2SetPause(bool)": "infinite",
            "l2UpdateParams(uint256,uint256)": "infinite",
            "logSteps((address,address,uint256,uint256,uint256,string,string),(bytes,bytes32[],bytes))": "infinite",
            "manualOverrideStake(uint256)": "51024",
            "name()": "infinite",
            "nonces(address)": "3562",
            "pause()": "infinite",
            "paused()": "infinite",
            "removeSource(string)": "infinite",
            "renounceRole(bytes32,address)": "29476",
            "revokeRole(bytes32,address)": "35052",
            "setAnomalyThreshold(uint256)": "infinite",
            "setAttestationNonceRequired(string,bool)": "infinite",
            "setL1Governance(address)": "29649",
            "setMultisig(address)": "29674",
            "setPriceOracle(address)": "28578",
            "setSourceMerkleRoot(string,bytes32)": "infinite",
            "setTreasury(address)": "29728",
            "setTrusted1271(address,bool)": "28304",
            "setTrustedAPI(address,bool)": "infinite",
            "stake()": "26417",
            "supportsInterface(bytes4)": "315",
            "symbol()": "infinite",
            "toggleEmergencyWithdraw(bool)": "53209",
            "toggleStakeParamLock()": "29164",
            "totalSupply()": "infinite",
            "transfer(address,uint256)": "infinite",
            "transferAdminRoles()": "infinite",
            "transferFrom(address,address,uint256)": "infinite",
            "treasury()": "3165",
            "trustedERC1271Contracts(address)": "4061",
            "unpause()": "infinite",
            "updateArbitrumGasParams(uint256,uint256,uint256)": "68905",
            "used1271Digests(address,bytes32)": "3169",
            "usedAttestations(bytes32)": "3174",
            "usedSignatures(bytes32)": "4388",
            "withdrawStake(uint256)": "infinite"
        }
    }
}