{
    "contractName": "GemStepToken",
    "abi": [
        {
            "inputs": [],
            "name": "AccessControlBadConfirmation",
            "type": "error"
        },
        {
            "inputs": [
                {
                    "internalType": "address",
                    "name": "account",
                    "type": "address"
                },
                {
                    "internalType": "bytes32",
                    "name": "neededRole",
                    "type": "bytes32"
                }
            ],
            "name": "AccessControlUnauthorizedAccount",
            "type": "error"
        },
        {
            "inputs": [
                {
                    "internalType": "address",
                    "name": "spender",
                    "type": "address"
                },
                {
                    "internalType": "uint256",
                    "name": "allowance",
                    "type": "uint256"
                },
                {
                    "internalType": "uint256",
                    "name": "needed",
                    "type": "uint256"
                }
            ],
            "name": "ERC20InsufficientAllowance",
            "type": "error"
        },
        {
            "inputs": [
                {
                    "internalType": "address",
                    "name": "sender",
                    "type": "address"
                },
                {
                    "internalType": "uint256",
                    "name": "balance",
                    "type": "uint256"
                },
                {
                    "internalType": "uint256",
                    "name": "needed",
                    "type": "uint256"
                }
            ],
            "name": "ERC20InsufficientBalance",
            "type": "error"
        },
        {
            "inputs": [
                {
                    "internalType": "address",
                    "name": "approver",
                    "type": "address"
                }
            ],
            "name": "ERC20InvalidApprover",
            "type": "error"
        },
        {
            "inputs": [
                {
                    "internalType": "address",
                    "name": "receiver",
                    "type": "address"
                }
            ],
            "name": "ERC20InvalidReceiver",
            "type": "error"
        },
        {
            "inputs": [
                {
                    "internalType": "address",
                    "name": "sender",
                    "type": "address"
                }
            ],
            "name": "ERC20InvalidSender",
            "type": "error"
        },
        {
            "inputs": [
                {
                    "internalType": "address",
                    "name": "spender",
                    "type": "address"
                }
            ],
            "name": "ERC20InvalidSpender",
            "type": "error"
        },
        {
            "inputs": [],
            "name": "EnforcedPause",
            "type": "error"
        },
        {
            "inputs": [],
            "name": "ExpectedPause",
            "type": "error"
        },
        {
            "inputs": [],
            "name": "InvalidInitialization",
            "type": "error"
        },
        {
            "inputs": [],
            "name": "NotInitializing",
            "type": "error"
        },
        {
            "inputs": [],
            "name": "ReentrancyGuardReentrantCall",
            "type": "error"
        },
        {
            "anonymous": false,
            "inputs": [
                {
                    "indexed": true,
                    "internalType": "address",
                    "name": "newAdmin",
                    "type": "address"
                }
            ],
            "name": "AdminRolesTransferred",
            "type": "event"
        },
        {
            "anonymous": false,
            "inputs": [
                {
                    "indexed": true,
                    "internalType": "address",
                    "name": "owner",
                    "type": "address"
                },
                {
                    "indexed": true,
                    "internalType": "address",
                    "name": "spender",
                    "type": "address"
                },
                {
                    "indexed": false,
                    "internalType": "uint256",
                    "name": "value",
                    "type": "uint256"
                }
            ],
            "name": "Approval",
            "type": "event"
        },
        {
            "anonymous": false,
            "inputs": [
                {
                    "indexed": false,
                    "internalType": "string",
                    "name": "normVersion",
                    "type": "string"
                },
                {
                    "indexed": false,
                    "internalType": "bool",
                    "name": "required",
                    "type": "bool"
                }
            ],
            "name": "AttestationNonceRequirementSet",
            "type": "event"
        },
        {
            "anonymous": false,
            "inputs": [
                {
                    "indexed": false,
                    "internalType": "string",
                    "name": "version",
                    "type": "string"
                }
            ],
            "name": "AttestationVersionAdded",
            "type": "event"
        },
        {
            "anonymous": false,
            "inputs": [
                {
                    "indexed": false,
                    "internalType": "string",
                    "name": "version",
                    "type": "string"
                },
                {
                    "indexed": false,
                    "internalType": "uint256",
                    "name": "deprecatesAt",
                    "type": "uint256"
                }
            ],
            "name": "AttestationVersionDeprecated",
            "type": "event"
        },
        {
            "anonymous": false,
            "inputs": [],
            "name": "EIP712DomainChanged",
            "type": "event"
        },
        {
            "anonymous": false,
            "inputs": [
                {
                    "indexed": true,
                    "internalType": "address",
                    "name": "contractAddress",
                    "type": "address"
                }
            ],
            "name": "ERC1271ContractAdded",
            "type": "event"
        },
        {
            "anonymous": false,
            "inputs": [
                {
                    "indexed": true,
                    "internalType": "address",
                    "name": "contractAddress",
                    "type": "address"
                }
            ],
            "name": "ERC1271ContractRemoved",
            "type": "event"
        },
        {
            "anonymous": false,
            "inputs": [
                {
                    "indexed": true,
                    "internalType": "address",
                    "name": "sender",
                    "type": "address"
                },
                {
                    "indexed": false,
                    "internalType": "uint256",
                    "name": "amount",
                    "type": "uint256"
                }
            ],
            "name": "ETHReceived",
            "type": "event"
        },
        {
            "anonymous": false,
            "inputs": [
                {
                    "indexed": true,
                    "internalType": "address",
                    "name": "admin",
                    "type": "address"
                },
                {
                    "indexed": false,
                    "internalType": "uint256",
                    "name": "amount",
                    "type": "uint256"
                },
                {
                    "indexed": false,
                    "internalType": "uint256",
                    "name": "newTotalSupply",
                    "type": "uint256"
                }
            ],
            "name": "EmergencyWithdraw",
            "type": "event"
        },
        {
            "anonymous": false,
            "inputs": [
                {
                    "indexed": true,
                    "internalType": "address",
                    "name": "token",
                    "type": "address"
                },
                {
                    "indexed": true,
                    "internalType": "address",
                    "name": "to",
                    "type": "address"
                },
                {
                    "indexed": false,
                    "internalType": "uint256",
                    "name": "amount",
                    "type": "uint256"
                }
            ],
            "name": "EmergencyWithdrawERC20",
            "type": "event"
        },
        {
            "anonymous": false,
            "inputs": [
                {
                    "indexed": true,
                    "internalType": "address",
                    "name": "to",
                    "type": "address"
                },
                {
                    "indexed": false,
                    "internalType": "uint256",
                    "name": "amount",
                    "type": "uint256"
                }
            ],
            "name": "EmergencyWithdrawETH",
            "type": "event"
        },
        {
            "anonymous": false,
            "inputs": [
                {
                    "indexed": false,
                    "internalType": "bool",
                    "name": "enabled",
                    "type": "bool"
                },
                {
                    "indexed": false,
                    "internalType": "uint256",
                    "name": "unlockTime",
                    "type": "uint256"
                }
            ],
            "name": "EmergencyWithdrawEnabledChanged",
            "type": "event"
        },
        {
            "anonymous": false,
            "inputs": [
                {
                    "indexed": false,
                    "internalType": "uint64",
                    "name": "version",
                    "type": "uint64"
                }
            ],
            "name": "Initialized",
            "type": "event"
        },
        {
            "anonymous": false,
            "inputs": [
                {
                    "indexed": true,
                    "internalType": "address",
                    "name": "l1",
                    "type": "address"
                }
            ],
            "name": "L1GovernanceSet",
            "type": "event"
        },
        {
            "anonymous": false,
            "inputs": [
                {
                    "indexed": false,
                    "internalType": "uint256",
                    "name": "stepLimit",
                    "type": "uint256"
                },
                {
                    "indexed": false,
                    "internalType": "uint256",
                    "name": "rewardRate",
                    "type": "uint256"
                }
            ],
            "name": "L2ParamsUpdatedByL1",
            "type": "event"
        },
        {
            "anonymous": false,
            "inputs": [
                {
                    "indexed": false,
                    "internalType": "bool",
                    "name": "paused",
                    "type": "bool"
                }
            ],
            "name": "L2PausedByL1",
            "type": "event"
        },
        {
            "anonymous": false,
            "inputs": [
                {
                    "indexed": true,
                    "internalType": "uint256",
                    "name": "id",
                    "type": "uint256"
                },
                {
                    "indexed": false,
                    "internalType": "address",
                    "name": "to",
                    "type": "address"
                },
                {
                    "indexed": false,
                    "internalType": "bytes",
                    "name": "data",
                    "type": "bytes"
                }
            ],
            "name": "L2ToL1Tx",
            "type": "event"
        },
        {
            "anonymous": false,
            "inputs": [
                {
                    "indexed": false,
                    "internalType": "uint256",
                    "name": "newMonth",
                    "type": "uint256"
                }
            ],
            "name": "MonthAdvanced",
            "type": "event"
        },
        {
            "anonymous": false,
            "inputs": [
                {
                    "indexed": false,
                    "internalType": "uint256",
                    "name": "newStart",
                    "type": "uint256"
                },
                {
                    "indexed": false,
                    "internalType": "uint256",
                    "name": "currentCap",
                    "type": "uint256"
                }
            ],
            "name": "MonthRollover",
            "type": "event"
        },
        {
            "anonymous": false,
            "inputs": [
                {
                    "indexed": false,
                    "internalType": "uint256",
                    "name": "newCap",
                    "type": "uint256"
                },
                {
                    "indexed": false,
                    "internalType": "uint256",
                    "name": "halvingCount",
                    "type": "uint256"
                }
            ],
            "name": "MonthlyCapUpdated",
            "type": "event"
        },
        {
            "anonymous": false,
            "inputs": [
                {
                    "indexed": false,
                    "internalType": "address",
                    "name": "multisig",
                    "type": "address"
                }
            ],
            "name": "MultisigSet",
            "type": "event"
        },
        {
            "anonymous": false,
            "inputs": [
                {
                    "indexed": true,
                    "internalType": "address",
                    "name": "newOracle",
                    "type": "address"
                }
            ],
            "name": "OracleUpdated",
            "type": "event"
        },
        {
            "anonymous": false,
            "inputs": [
                {
                    "indexed": true,
                    "internalType": "string",
                    "name": "parameter",
                    "type": "string"
                },
                {
                    "indexed": false,
                    "internalType": "uint256",
                    "name": "oldValue",
                    "type": "uint256"
                },
                {
                    "indexed": false,
                    "internalType": "uint256",
                    "name": "newValue",
                    "type": "uint256"
                }
            ],
            "name": "ParameterUpdated",
            "type": "event"
        },
        {
            "anonymous": false,
            "inputs": [
                {
                    "indexed": false,
                    "internalType": "address",
                    "name": "account",
                    "type": "address"
                }
            ],
            "name": "Paused",
            "type": "event"
        },
        {
            "anonymous": false,
            "inputs": [
                {
                    "indexed": false,
                    "internalType": "string",
                    "name": "version",
                    "type": "string"
                }
            ],
            "name": "PayloadVersionAdded",
            "type": "event"
        },
        {
            "anonymous": false,
            "inputs": [
                {
                    "indexed": false,
                    "internalType": "string",
                    "name": "version",
                    "type": "string"
                },
                {
                    "indexed": false,
                    "internalType": "uint256",
                    "name": "deprecatesAt",
                    "type": "uint256"
                }
            ],
            "name": "PayloadVersionDeprecated",
            "type": "event"
        },
        {
            "anonymous": false,
            "inputs": [
                {
                    "indexed": true,
                    "internalType": "address",
                    "name": "user",
                    "type": "address"
                },
                {
                    "indexed": false,
                    "internalType": "uint256",
                    "name": "amount",
                    "type": "uint256"
                }
            ],
            "name": "PenaltyApplied",
            "type": "event"
        },
        {
            "anonymous": false,
            "inputs": [
                {
                    "indexed": true,
                    "internalType": "address",
                    "name": "recipient",
                    "type": "address"
                },
                {
                    "indexed": false,
                    "internalType": "bool",
                    "name": "approved",
                    "type": "bool"
                }
            ],
            "name": "RecipientApprovalChanged",
            "type": "event"
        },
        {
            "anonymous": false,
            "inputs": [
                {
                    "indexed": true,
                    "internalType": "address",
                    "name": "user",
                    "type": "address"
                },
                {
                    "indexed": true,
                    "internalType": "address",
                    "name": "beneficiary",
                    "type": "address"
                },
                {
                    "indexed": false,
                    "internalType": "uint256",
                    "name": "steps",
                    "type": "uint256"
                },
                {
                    "indexed": false,
                    "internalType": "uint256",
                    "name": "rewardAmount",
                    "type": "uint256"
                },
                {
                    "indexed": false,
                    "internalType": "uint256",
                    "name": "timestamp",
                    "type": "uint256"
                },
                {
                    "indexed": false,
                    "internalType": "string",
                    "name": "source",
                    "type": "string"
                },
                {
                    "indexed": false,
                    "internalType": "string",
                    "name": "version",
                    "type": "string"
                }
            ],
            "name": "RewardClaimed",
            "type": "event"
        },
        {
            "anonymous": false,
            "inputs": [
                {
                    "indexed": true,
                    "internalType": "bytes32",
                    "name": "role",
                    "type": "bytes32"
                },
                {
                    "indexed": true,
                    "internalType": "bytes32",
                    "name": "previousAdminRole",
                    "type": "bytes32"
                },
                {
                    "indexed": true,
                    "internalType": "bytes32",
                    "name": "newAdminRole",
                    "type": "bytes32"
                }
            ],
            "name": "RoleAdminChanged",
            "type": "event"
        },
        {
            "anonymous": false,
            "inputs": [
                {
                    "indexed": true,
                    "internalType": "bytes32",
                    "name": "role",
                    "type": "bytes32"
                },
                {
                    "indexed": true,
                    "internalType": "address",
                    "name": "account",
                    "type": "address"
                },
                {
                    "indexed": true,
                    "internalType": "address",
                    "name": "sender",
                    "type": "address"
                }
            ],
            "name": "RoleGranted",
            "type": "event"
        },
        {
            "anonymous": false,
            "inputs": [
                {
                    "indexed": true,
                    "internalType": "bytes32",
                    "name": "role",
                    "type": "bytes32"
                },
                {
                    "indexed": true,
                    "internalType": "address",
                    "name": "account",
                    "type": "address"
                },
                {
                    "indexed": true,
                    "internalType": "address",
                    "name": "sender",
                    "type": "address"
                }
            ],
            "name": "RoleRevoked",
            "type": "event"
        },
        {
            "anonymous": false,
            "inputs": [
                {
                    "indexed": true,
                    "internalType": "bytes32",
                    "name": "signatureHash",
                    "type": "bytes32"
                }
            ],
            "name": "SignatureCleared",
            "type": "event"
        },
        {
            "anonymous": false,
            "inputs": [
                {
                    "indexed": true,
                    "internalType": "address",
                    "name": "signer",
                    "type": "address"
                }
            ],
            "name": "SignerAdded",
            "type": "event"
        },
        {
            "anonymous": false,
            "inputs": [
                {
                    "indexed": true,
                    "internalType": "address",
                    "name": "signer",
                    "type": "address"
                }
            ],
            "name": "SignerRemoved",
            "type": "event"
        },
        {
            "anonymous": false,
            "inputs": [
                {
                    "indexed": true,
                    "internalType": "string",
                    "name": "source",
                    "type": "string"
                }
            ],
            "name": "SourceAdded",
            "type": "event"
        },
        {
            "anonymous": false,
            "inputs": [
                {
                    "indexed": false,
                    "internalType": "string",
                    "name": "source",
                    "type": "string"
                },
                {
                    "indexed": false,
                    "internalType": "bool",
                    "name": "requiresProof",
                    "type": "bool"
                },
                {
                    "indexed": false,
                    "internalType": "bool",
                    "name": "requiresAttestation",
                    "type": "bool"
                }
            ],
            "name": "SourceConfigured",
            "type": "event"
        },
        {
            "anonymous": false,
            "inputs": [
                {
                    "indexed": false,
                    "internalType": "string",
                    "name": "source",
                    "type": "string"
                },
                {
                    "indexed": false,
                    "internalType": "bytes32",
                    "name": "root",
                    "type": "bytes32"
                }
            ],
            "name": "SourceMerkleRootSet",
            "type": "event"
        },
        {
            "anonymous": false,
            "inputs": [
                {
                    "indexed": true,
                    "internalType": "string",
                    "name": "source",
                    "type": "string"
                }
            ],
            "name": "SourceRemoved",
            "type": "event"
        },
        {
            "anonymous": false,
            "inputs": [],
            "name": "SourcesInitialized",
            "type": "event"
        },
        {
            "anonymous": false,
            "inputs": [
                {
                    "indexed": false,
                    "internalType": "bool",
                    "name": "locked",
                    "type": "bool"
                }
            ],
            "name": "StakeEmergencyLocked",
            "type": "event"
        },
        {
            "anonymous": false,
            "inputs": [
                {
                    "indexed": false,
                    "internalType": "uint256",
                    "name": "newStakePerStep",
                    "type": "uint256"
                },
                {
                    "indexed": false,
                    "internalType": "uint256",
                    "name": "timestamp",
                    "type": "uint256"
                }
            ],
            "name": "StakeParametersUpdated",
            "type": "event"
        },
        {
            "anonymous": false,
            "inputs": [
                {
                    "indexed": true,
                    "internalType": "address",
                    "name": "user",
                    "type": "address"
                },
                {
                    "indexed": false,
                    "internalType": "uint256",
                    "name": "amount",
                    "type": "uint256"
                }
            ],
            "name": "Staked",
            "type": "event"
        },
        {
            "anonymous": false,
            "inputs": [
                {
                    "indexed": false,
                    "internalType": "bool",
                    "name": "paused",
                    "type": "bool"
                }
            ],
            "name": "StakingPauseSet",
            "type": "event"
        },
        {
            "anonymous": false,
            "inputs": [
                {
                    "indexed": true,
                    "internalType": "string",
                    "name": "parameter",
                    "type": "string"
                },
                {
                    "indexed": false,
                    "internalType": "uint256",
                    "name": "unlockTime",
                    "type": "uint256"
                }
            ],
            "name": "TimelockSet",
            "type": "event"
        },
        {
            "anonymous": false,
            "inputs": [
                {
                    "indexed": true,
                    "internalType": "address",
                    "name": "from",
                    "type": "address"
                },
                {
                    "indexed": false,
                    "internalType": "uint256",
                    "name": "amount",
                    "type": "uint256"
                },
                {
                    "indexed": false,
                    "internalType": "uint256",
                    "name": "newTotalSupply",
                    "type": "uint256"
                }
            ],
            "name": "TokensBurned",
            "type": "event"
        },
        {
            "anonymous": false,
            "inputs": [
                {
                    "indexed": true,
                    "internalType": "address",
                    "name": "to",
                    "type": "address"
                },
                {
                    "indexed": false,
                    "internalType": "uint256",
                    "name": "amount",
                    "type": "uint256"
                },
                {
                    "indexed": false,
                    "internalType": "uint256",
                    "name": "newTotalSupply",
                    "type": "uint256"
                }
            ],
            "name": "TokensMinted",
            "type": "event"
        },
        {
            "anonymous": false,
            "inputs": [
                {
                    "indexed": true,
                    "internalType": "address",
                    "name": "from",
                    "type": "address"
                },
                {
                    "indexed": true,
                    "internalType": "address",
                    "name": "to",
                    "type": "address"
                },
                {
                    "indexed": false,
                    "internalType": "uint256",
                    "name": "value",
                    "type": "uint256"
                }
            ],
            "name": "Transfer",
            "type": "event"
        },
        {
            "anonymous": false,
            "inputs": [
                {
                    "indexed": true,
                    "internalType": "address",
                    "name": "treasury",
                    "type": "address"
                }
            ],
            "name": "TreasurySet",
            "type": "event"
        },
        {
            "anonymous": false,
            "inputs": [
                {
                    "indexed": true,
                    "internalType": "address",
                    "name": "contractAddr",
                    "type": "address"
                },
                {
                    "indexed": false,
                    "internalType": "bool",
                    "name": "trusted",
                    "type": "bool"
                }
            ],
            "name": "Trusted1271Set",
            "type": "event"
        },
        {
            "anonymous": false,
            "inputs": [
                {
                    "indexed": true,
                    "internalType": "address",
                    "name": "api",
                    "type": "address"
                },
                {
                    "indexed": false,
                    "internalType": "bool",
                    "name": "trusted",
                    "type": "bool"
                }
            ],
            "name": "TrustedAPISet",
            "type": "event"
        },
        {
            "anonymous": false,
            "inputs": [
                {
                    "indexed": true,
                    "internalType": "address",
                    "name": "device",
                    "type": "address"
                }
            ],
            "name": "TrustedDeviceAdded",
            "type": "event"
        },
        {
            "anonymous": false,
            "inputs": [
                {
                    "indexed": false,
                    "internalType": "address",
                    "name": "account",
                    "type": "address"
                }
            ],
            "name": "Unpaused",
            "type": "event"
        },
        {
            "anonymous": false,
            "inputs": [
                {
                    "indexed": true,
                    "internalType": "address",
                    "name": "cancelledImplementation",
                    "type": "address"
                }
            ],
            "name": "UpgradeCancelled",
            "type": "event"
        },
        {
            "anonymous": false,
            "inputs": [
                {
                    "indexed": true,
                    "internalType": "address",
                    "name": "newImplementation",
                    "type": "address"
                },
                {
                    "indexed": false,
                    "internalType": "uint256",
                    "name": "scheduledTime",
                    "type": "uint256"
                }
            ],
            "name": "UpgradeScheduled",
            "type": "event"
        },
        {
            "anonymous": false,
            "inputs": [
                {
                    "indexed": false,
                    "internalType": "uint256",
                    "name": "version",
                    "type": "uint256"
                },
                {
                    "indexed": true,
                    "internalType": "address",
                    "name": "newImplementation",
                    "type": "address"
                }
            ],
            "name": "Upgraded",
            "type": "event"
        },
        {
            "anonymous": false,
            "inputs": [
                {
                    "indexed": true,
                    "internalType": "address",
                    "name": "user",
                    "type": "address"
                },
                {
                    "indexed": false,
                    "internalType": "uint256",
                    "name": "until",
                    "type": "uint256"
                }
            ],
            "name": "UserSuspended",
            "type": "event"
        },
        {
            "anonymous": false,
            "inputs": [
                {
                    "indexed": false,
                    "internalType": "string",
                    "name": "version",
                    "type": "string"
                }
            ],
            "name": "VersionAdded",
            "type": "event"
        },
        {
            "anonymous": false,
            "inputs": [
                {
                    "indexed": true,
                    "internalType": "address",
                    "name": "user",
                    "type": "address"
                },
                {
                    "indexed": false,
                    "internalType": "uint256",
                    "name": "amount",
                    "type": "uint256"
                }
            ],
            "name": "Withdrawn",
            "type": "event"
        },
        {
            "inputs": [],
            "name": "DECIMALS",
            "outputs": [
                {
                    "internalType": "uint8",
                    "name": "",
                    "type": "uint8"
                }
            ],
            "stateMutability": "view",
            "type": "function"
        },
        {
            "inputs": [],
            "name": "DEFAULT_ADMIN_ROLE",
            "outputs": [
                {
                    "internalType": "bytes32",
                    "name": "",
                    "type": "bytes32"
                }
            ],
            "stateMutability": "view",
            "type": "function"
        },
        {
            "inputs": [],
            "name": "DEFAULT_PAYLOAD_VERSION",
            "outputs": [
                {
                    "internalType": "string",
                    "name": "",
                    "type": "string"
                }
            ],
            "stateMutability": "view",
            "type": "function"
        },
        {
            "inputs": [],
            "name": "DOMAIN_NAME",
            "outputs": [
                {
                    "internalType": "string",
                    "name": "",
                    "type": "string"
                }
            ],
            "stateMutability": "view",
            "type": "function"
        },
        {
            "inputs": [],
            "name": "DOMAIN_VERSION",
            "outputs": [
                {
                    "internalType": "string",
                    "name": "",
                    "type": "string"
                }
            ],
            "stateMutability": "view",
            "type": "function"
        },
        {
            "inputs": [
                {
                    "internalType": "string",
                    "name": "source",
                    "type": "string"
                }
            ],
            "name": "addSource",
            "outputs": [],
            "stateMutability": "nonpayable",
            "type": "function"
        },
        {
            "inputs": [
                {
                    "internalType": "string",
                    "name": "version",
                    "type": "string"
                }
            ],
            "name": "addSupportedAttestationVersion",
            "outputs": [],
            "stateMutability": "nonpayable",
            "type": "function"
        },
        {
            "inputs": [
                {
                    "internalType": "string",
                    "name": "version",
                    "type": "string"
                }
            ],
            "name": "addSupportedPayloadVersion",
            "outputs": [],
            "stateMutability": "nonpayable",
            "type": "function"
        },
        {
            "inputs": [
                {
                    "internalType": "string",
                    "name": "version",
                    "type": "string"
                }
            ],
            "name": "addSupportedVersion",
            "outputs": [],
            "stateMutability": "nonpayable",
            "type": "function"
        },
        {
            "inputs": [
                {
                    "internalType": "address",
                    "name": "device",
                    "type": "address"
                }
            ],
            "name": "addTrustedDevice",
            "outputs": [],
            "stateMutability": "nonpayable",
            "type": "function"
        },
        {
            "inputs": [
                {
                    "internalType": "address",
                    "name": "owner",
                    "type": "address"
                },
                {
                    "internalType": "address",
                    "name": "spender",
                    "type": "address"
                }
            ],
            "name": "allowance",
            "outputs": [
                {
                    "internalType": "uint256",
                    "name": "",
                    "type": "uint256"
                }
            ],
            "stateMutability": "view",
            "type": "function"
        },
        {
            "inputs": [
                {
                    "internalType": "address",
                    "name": "spender",
                    "type": "address"
                },
                {
                    "internalType": "uint256",
                    "name": "value",
                    "type": "uint256"
                }
            ],
            "name": "approve",
            "outputs": [
                {
                    "internalType": "bool",
                    "name": "",
                    "type": "bool"
                }
            ],
            "stateMutability": "nonpayable",
            "type": "function"
        },
        {
            "inputs": [
                {
                    "internalType": "address",
                    "name": "recipient",
                    "type": "address"
                },
                {
                    "internalType": "bool",
                    "name": "approved",
                    "type": "bool"
                }
            ],
            "name": "approveRecipient",
            "outputs": [],
            "stateMutability": "nonpayable",
            "type": "function"
        },
        {
            "inputs": [
                {
                    "internalType": "address",
                    "name": "account",
                    "type": "address"
                }
            ],
            "name": "balanceOf",
            "outputs": [
                {
                    "internalType": "uint256",
                    "name": "",
                    "type": "uint256"
                }
            ],
            "stateMutability": "view",
            "type": "function"
        },
        {
            "inputs": [
                {
                    "internalType": "address[]",
                    "name": "signers",
                    "type": "address[]"
                }
            ],
            "name": "batchAddSigners",
            "outputs": [],
            "stateMutability": "nonpayable",
            "type": "function"
        },
        {
            "inputs": [
                {
                    "internalType": "string[]",
                    "name": "sources",
                    "type": "string[]"
                }
            ],
            "name": "batchAddSources",
            "outputs": [],
            "stateMutability": "nonpayable",
            "type": "function"
        },
        {
            "inputs": [
                {
                    "internalType": "address[]",
                    "name": "signers",
                    "type": "address[]"
                }
            ],
            "name": "batchRemoveSigners",
            "outputs": [],
            "stateMutability": "nonpayable",
            "type": "function"
        },
        {
            "inputs": [
                {
                    "internalType": "uint256",
                    "name": "amount",
                    "type": "uint256"
                }
            ],
            "name": "burn",
            "outputs": [],
            "stateMutability": "nonpayable",
            "type": "function"
        },
        {
            "inputs": [],
            "name": "cap",
            "outputs": [
                {
                    "internalType": "uint256",
                    "name": "",
                    "type": "uint256"
                }
            ],
            "stateMutability": "pure",
            "type": "function"
        },
        {
            "inputs": [
                {
                    "internalType": "bytes32[]",
                    "name": "sigHashes",
                    "type": "bytes32[]"
                }
            ],
            "name": "clearExpiredSignatures",
            "outputs": [],
            "stateMutability": "nonpayable",
            "type": "function"
        },
        {
            "inputs": [
                {
                    "internalType": "string",
                    "name": "source",
                    "type": "string"
                },
                {
                    "internalType": "bool",
                    "name": "requiresProof",
                    "type": "bool"
                },
                {
                    "internalType": "bool",
                    "name": "requiresAttestation",
                    "type": "bool"
                }
            ],
            "name": "configureSource",
            "outputs": [],
            "stateMutability": "nonpayable",
            "type": "function"
        },
        {
            "inputs": [],
            "name": "decimals",
            "outputs": [
                {
                    "internalType": "uint8",
                    "name": "",
                    "type": "uint8"
                }
            ],
            "stateMutability": "view",
            "type": "function"
        },
        {
            "inputs": [
                {
                    "internalType": "string",
                    "name": "version",
                    "type": "string"
                },
                {
                    "internalType": "uint256",
                    "name": "when",
                    "type": "uint256"
                }
            ],
            "name": "deprecateAttestationVersion",
            "outputs": [],
            "stateMutability": "nonpayable",
            "type": "function"
        },
        {
            "inputs": [
                {
                    "internalType": "string",
                    "name": "version",
                    "type": "string"
                },
                {
                    "internalType": "uint256",
                    "name": "when",
                    "type": "uint256"
                }
            ],
            "name": "deprecatePayloadVersion",
            "outputs": [],
            "stateMutability": "nonpayable",
            "type": "function"
        },
        {
            "inputs": [],
            "name": "eip712Domain",
            "outputs": [
                {
                    "internalType": "bytes1",
                    "name": "fields",
                    "type": "bytes1"
                },
                {
                    "internalType": "string",
                    "name": "name",
                    "type": "string"
                },
                {
                    "internalType": "string",
                    "name": "version",
                    "type": "string"
                },
                {
                    "internalType": "uint256",
                    "name": "chainId",
                    "type": "uint256"
                },
                {
                    "internalType": "address",
                    "name": "verifyingContract",
                    "type": "address"
                },
                {
                    "internalType": "bytes32",
                    "name": "salt",
                    "type": "bytes32"
                },
                {
                    "internalType": "uint256[]",
                    "name": "extensions",
                    "type": "uint256[]"
                }
            ],
            "stateMutability": "view",
            "type": "function"
        },
        {
            "inputs": [
                {
                    "internalType": "address",
                    "name": "l1Target",
                    "type": "address"
                },
                {
                    "internalType": "bytes",
                    "name": "data",
                    "type": "bytes"
                }
            ],
            "name": "emergencyPingL1",
            "outputs": [
                {
                    "internalType": "uint256",
                    "name": "id",
                    "type": "uint256"
                }
            ],
            "stateMutability": "nonpayable",
            "type": "function"
        },
        {
            "inputs": [
                {
                    "internalType": "uint256",
                    "name": "amount",
                    "type": "uint256"
                }
            ],
            "name": "emergencyWithdraw",
            "outputs": [],
            "stateMutability": "nonpayable",
            "type": "function"
        },
        {
            "inputs": [
                {
                    "internalType": "contract IERC20Upgradeable",
                    "name": "token",
                    "type": "address"
                },
                {
                    "internalType": "address",
                    "name": "to",
                    "type": "address"
                },
                {
                    "internalType": "uint256",
                    "name": "amount",
                    "type": "uint256"
                }
            ],
            "name": "emergencyWithdrawERC20",
            "outputs": [],
            "stateMutability": "nonpayable",
            "type": "function"
        },
        {
            "inputs": [
                {
                    "internalType": "address payable",
                    "name": "to",
                    "type": "address"
                },
                {
                    "internalType": "uint256",
                    "name": "amount",
                    "type": "uint256"
                }
            ],
            "name": "emergencyWithdrawETH",
            "outputs": [],
            "stateMutability": "nonpayable",
            "type": "function"
        },
        {
            "inputs": [],
            "name": "getArbitrumConfig",
            "outputs": [
                {
                    "internalType": "address",
                    "name": "inbox",
                    "type": "address"
                },
                {
                    "internalType": "address",
                    "name": "l1Validator_",
                    "type": "address"
                },
                {
                    "internalType": "uint256",
                    "name": "maxGas",
                    "type": "uint256"
                },
                {
                    "internalType": "uint256",
                    "name": "gasPriceBid",
                    "type": "uint256"
                },
                {
                    "internalType": "uint256",
                    "name": "maxSubmissionCost",
                    "type": "uint256"
                },
                {
                    "internalType": "address",
                    "name": "oracle",
                    "type": "address"
                }
            ],
            "stateMutability": "view",
            "type": "function"
        },
        {
            "inputs": [],
            "name": "getContractStakingState",
            "outputs": [
                {
                    "internalType": "uint256",
                    "name": "contractBal",
                    "type": "uint256"
                },
                {
                    "internalType": "uint256",
                    "name": "totalStaked_",
                    "type": "uint256"
                },
                {
                    "internalType": "uint256",
                    "name": "freeBal",
                    "type": "uint256"
                }
            ],
            "stateMutability": "view",
            "type": "function"
        },
        {
            "inputs": [],
            "name": "getCoreParams",
            "outputs": [
                {
                    "internalType": "uint256",
                    "name": "burnFee_",
                    "type": "uint256"
                },
                {
                    "internalType": "uint256",
                    "name": "rewardRate_",
                    "type": "uint256"
                },
                {
                    "internalType": "uint256",
                    "name": "stepLimit_",
                    "type": "uint256"
                },
                {
                    "internalType": "uint256",
                    "name": "signatureValidityPeriod_",
                    "type": "uint256"
                }
            ],
            "stateMutability": "view",
            "type": "function"
        },
        {
            "inputs": [],
            "name": "getEmergencyStatus",
            "outputs": [
                {
                    "internalType": "bool",
                    "name": "enabled",
                    "type": "bool"
                },
                {
                    "internalType": "uint256",
                    "name": "unlockTime",
                    "type": "uint256"
                }
            ],
            "stateMutability": "view",
            "type": "function"
        },
        {
            "inputs": [
                {
                    "internalType": "bytes32",
                    "name": "sigHash",
                    "type": "bytes32"
                },
                {
                    "internalType": "address",
                    "name": "wallet",
                    "type": "address"
                },
                {
                    "internalType": "bytes32",
                    "name": "digest",
                    "type": "bytes32"
                },
                {
                    "internalType": "address",
                    "name": "recipient",
                    "type": "address"
                },
                {
                    "internalType": "bytes32",
                    "name": "attestKey",
                    "type": "bytes32"
                }
            ],
            "name": "getGuardsBundle",
            "outputs": [
                {
                    "internalType": "bool",
                    "name": "sigUsed",
                    "type": "bool"
                },
                {
                    "internalType": "bool",
                    "name": "erc1271Trusted",
                    "type": "bool"
                },
                {
                    "internalType": "bool",
                    "name": "recipientApproved",
                    "type": "bool"
                },
                {
                    "internalType": "bool",
                    "name": "attUsed",
                    "type": "bool"
                },
                {
                    "internalType": "bool",
                    "name": "digestUsed",
                    "type": "bool"
                },
                {
                    "internalType": "uint256",
                    "name": "anomalyThreshold_",
                    "type": "uint256"
                }
            ],
            "stateMutability": "view",
            "type": "function"
        },
        {
            "inputs": [],
            "name": "getL1Governance",
            "outputs": [
                {
                    "internalType": "address",
                    "name": "",
                    "type": "address"
                }
            ],
            "stateMutability": "view",
            "type": "function"
        },
        {
            "inputs": [],
            "name": "getL1GovernanceStatus",
            "outputs": [
                {
                    "internalType": "address",
                    "name": "configuredL1Governance",
                    "type": "address"
                },
                {
                    "internalType": "address",
                    "name": "aliasedL1Governance",
                    "type": "address"
                },
                {
                    "internalType": "bool",
                    "name": "isL1GovernanceCall",
                    "type": "bool"
                }
            ],
            "stateMutability": "view",
            "type": "function"
        },
        {
            "inputs": [],
            "name": "getMintingState",
            "outputs": [
                {
                    "internalType": "uint256",
                    "name": "month",
                    "type": "uint256"
                },
                {
                    "internalType": "uint256",
                    "name": "minted",
                    "type": "uint256"
                },
                {
                    "internalType": "uint256",
                    "name": "limit",
                    "type": "uint256"
                },
                {
                    "internalType": "uint256",
                    "name": "lastUpdate",
                    "type": "uint256"
                },
                {
                    "internalType": "uint256",
                    "name": "distributedTotal_",
                    "type": "uint256"
                },
                {
                    "internalType": "uint256",
                    "name": "currentMonthlyCap_",
                    "type": "uint256"
                },
                {
                    "internalType": "uint256",
                    "name": "halvingIdx",
                    "type": "uint256"
                }
            ],
            "stateMutability": "view",
            "type": "function"
        },
        {
            "inputs": [
                {
                    "internalType": "bytes32",
                    "name": "role",
                    "type": "bytes32"
                }
            ],
            "name": "getRoleAdmin",
            "outputs": [
                {
                    "internalType": "bytes32",
                    "name": "",
                    "type": "bytes32"
                }
            ],
            "stateMutability": "view",
            "type": "function"
        },
        {
            "inputs": [
                {
                    "internalType": "string",
                    "name": "source",
                    "type": "string"
                }
            ],
            "name": "getSourceConfigFields",
            "outputs": [
                {
                    "internalType": "bool",
                    "name": "requiresProof",
                    "type": "bool"
                },
                {
                    "internalType": "bool",
                    "name": "requiresAttestation",
                    "type": "bool"
                },
                {
                    "internalType": "bytes32",
                    "name": "merkleRoot",
                    "type": "bytes32"
                },
                {
                    "internalType": "uint256",
                    "name": "maxStepsPerDay",
                    "type": "uint256"
                },
                {
                    "internalType": "uint256",
                    "name": "minInterval",
                    "type": "uint256"
                }
            ],
            "stateMutability": "view",
            "type": "function"
        },
        {
            "inputs": [
                {
                    "internalType": "address",
                    "name": "user",
                    "type": "address"
                }
            ],
            "name": "getStakeInfo",
            "outputs": [
                {
                    "internalType": "uint256",
                    "name": "balance",
                    "type": "uint256"
                },
                {
                    "internalType": "uint256",
                    "name": "startTs",
                    "type": "uint256"
                }
            ],
            "stateMutability": "view",
            "type": "function"
        },
        {
            "inputs": [],
            "name": "getStakeParams",
            "outputs": [
                {
                    "internalType": "uint256",
                    "name": "stakePerStep",
                    "type": "uint256"
                },
                {
                    "internalType": "uint256",
                    "name": "lastAdjustTs",
                    "type": "uint256"
                },
                {
                    "internalType": "bool",
                    "name": "locked",
                    "type": "bool"
                }
            ],
            "stateMutability": "view",
            "type": "function"
        },
        {
            "inputs": [],
            "name": "getStakePolicy",
            "outputs": [
                {
                    "internalType": "uint256",
                    "name": "minAge",
                    "type": "uint256"
                },
                {
                    "internalType": "uint256",
                    "name": "maxAge",
                    "type": "uint256"
                },
                {
                    "internalType": "uint256",
                    "name": "maxDiscountBps",
                    "type": "uint256"
                },
                {
                    "internalType": "uint256",
                    "name": "minCutBps",
                    "type": "uint256"
                },
                {
                    "internalType": "uint256",
                    "name": "tier1",
                    "type": "uint256"
                },
                {
                    "internalType": "uint256",
                    "name": "tier2",
                    "type": "uint256"
                },
                {
                    "internalType": "uint256",
                    "name": "tier3",
                    "type": "uint256"
                },
                {
                    "internalType": "uint256",
                    "name": "d1",
                    "type": "uint256"
                },
                {
                    "internalType": "uint256",
                    "name": "d2",
                    "type": "uint256"
                },
                {
                    "internalType": "uint256",
                    "name": "d3",
                    "type": "uint256"
                }
            ],
            "stateMutability": "pure",
            "type": "function"
        },
        {
            "inputs": [
                {
                    "internalType": "address",
                    "name": "user",
                    "type": "address"
                }
            ],
            "name": "getUserBasics",
            "outputs": [
                {
                    "internalType": "uint256",
                    "name": "totalSteps_",
                    "type": "uint256"
                },
                {
                    "internalType": "string",
                    "name": "lastSource_",
                    "type": "string"
                }
            ],
            "stateMutability": "view",
            "type": "function"
        },
        {
            "inputs": [
                {
                    "internalType": "address",
                    "name": "user",
                    "type": "address"
                }
            ],
            "name": "getUserCoreStatus",
            "outputs": [
                {
                    "internalType": "uint256",
                    "name": "stepAverageScaled",
                    "type": "uint256"
                },
                {
                    "internalType": "uint256",
                    "name": "flaggedCount",
                    "type": "uint256"
                },
                {
                    "internalType": "uint256",
                    "name": "suspendedUntilTs",
                    "type": "uint256"
                },
                {
                    "internalType": "uint256",
                    "name": "stakedTokens",
                    "type": "uint256"
                },
                {
                    "internalType": "bool",
                    "name": "apiTrusted",
                    "type": "bool"
                },
                {
                    "internalType": "uint256",
                    "name": "firstSubmissionTs",
                    "type": "uint256"
                }
            ],
            "stateMutability": "view",
            "type": "function"
        },
        {
            "inputs": [
                {
                    "internalType": "address",
                    "name": "user",
                    "type": "address"
                },
                {
                    "internalType": "string",
                    "name": "source",
                    "type": "string"
                }
            ],
            "name": "getUserSourceNonce",
            "outputs": [
                {
                    "internalType": "uint256",
                    "name": "nonce",
                    "type": "uint256"
                }
            ],
            "stateMutability": "view",
            "type": "function"
        },
        {
            "inputs": [
                {
                    "internalType": "address",
                    "name": "user",
                    "type": "address"
                },
                {
                    "internalType": "string",
                    "name": "source",
                    "type": "string"
                }
            ],
            "name": "getUserSourceStats",
            "outputs": [
                {
                    "internalType": "uint256",
                    "name": "lastTs",
                    "type": "uint256"
                },
                {
                    "internalType": "uint256",
                    "name": "dailyTotal",
                    "type": "uint256"
                },
                {
                    "internalType": "uint256",
                    "name": "dayIndex",
                    "type": "uint256"
                }
            ],
            "stateMutability": "view",
            "type": "function"
        },
        {
            "inputs": [
                {
                    "internalType": "bytes32",
                    "name": "v",
                    "type": "bytes32"
                }
            ],
            "name": "getVersionPolicy",
            "outputs": [
                {
                    "internalType": "bool",
                    "name": "attestSupported",
                    "type": "bool"
                },
                {
                    "internalType": "uint256",
                    "name": "attestDeprecatesAt",
                    "type": "uint256"
                },
                {
                    "internalType": "bool",
                    "name": "attestRequiresNonce_",
                    "type": "bool"
                },
                {
                    "internalType": "bool",
                    "name": "payloadSupported",
                    "type": "bool"
                },
                {
                    "internalType": "uint256",
                    "name": "payloadDeprecatesAt",
                    "type": "uint256"
                }
            ],
            "stateMutability": "view",
            "type": "function"
        },
        {
            "inputs": [
                {
                    "internalType": "bytes32",
                    "name": "role",
                    "type": "bytes32"
                },
                {
                    "internalType": "address",
                    "name": "account",
                    "type": "address"
                }
            ],
            "name": "grantRole",
            "outputs": [],
            "stateMutability": "nonpayable",
            "type": "function"
        },
        {
            "inputs": [
                {
                    "internalType": "bytes32",
                    "name": "role",
                    "type": "bytes32"
                },
                {
                    "internalType": "address",
                    "name": "account",
                    "type": "address"
                }
            ],
            "name": "hasRole",
            "outputs": [
                {
                    "internalType": "bool",
                    "name": "",
                    "type": "bool"
                }
            ],
            "stateMutability": "view",
            "type": "function"
        },
        {
            "inputs": [
                {
                    "internalType": "uint256",
                    "name": "initialSupply",
                    "type": "uint256"
                },
                {
                    "internalType": "address",
                    "name": "admin",
                    "type": "address"
                },
                {
                    "internalType": "address",
                    "name": "_priceOracle",
                    "type": "address"
                },
                {
                    "internalType": "address",
                    "name": "_treasury",
                    "type": "address"
                }
            ],
            "name": "initialize",
            "outputs": [],
            "stateMutability": "nonpayable",
            "type": "function"
        },
        {
            "inputs": [
                {
                    "internalType": "address",
                    "name": "inbox",
                    "type": "address"
                },
                {
                    "internalType": "address",
                    "name": "validator",
                    "type": "address"
                }
            ],
            "name": "initializeArbitrum",
            "outputs": [],
            "stateMutability": "nonpayable",
            "type": "function"
        },
        {
            "inputs": [
                {
                    "internalType": "string",
                    "name": "source",
                    "type": "string"
                }
            ],
            "name": "isSourceValid",
            "outputs": [
                {
                    "internalType": "bool",
                    "name": "",
                    "type": "bool"
                }
            ],
            "stateMutability": "view",
            "type": "function"
        },
        {
            "inputs": [],
            "name": "isStakingPaused",
            "outputs": [
                {
                    "internalType": "bool",
                    "name": "",
                    "type": "bool"
                }
            ],
            "stateMutability": "view",
            "type": "function"
        },
        {
            "inputs": [
                {
                    "internalType": "address",
                    "name": "device",
                    "type": "address"
                }
            ],
            "name": "isTrustedDevice",
            "outputs": [
                {
                    "internalType": "bool",
                    "name": "",
                    "type": "bool"
                }
            ],
            "stateMutability": "view",
            "type": "function"
        },
        {
            "inputs": [
                {
                    "internalType": "bool",
                    "name": "paused_",
                    "type": "bool"
                }
            ],
            "name": "l2SetPause",
            "outputs": [],
            "stateMutability": "nonpayable",
            "type": "function"
        },
        {
            "inputs": [
                {
                    "internalType": "bool",
                    "name": "paused_",
                    "type": "bool"
                }
            ],
            "name": "l2SetStakingPause",
            "outputs": [],
            "stateMutability": "nonpayable",
            "type": "function"
        },
        {
            "inputs": [
                {
                    "internalType": "uint256",
                    "name": "newStepLimit",
                    "type": "uint256"
                },
                {
                    "internalType": "uint256",
                    "name": "newRewardRate",
                    "type": "uint256"
                }
            ],
            "name": "l2UpdateParams",
            "outputs": [],
            "stateMutability": "nonpayable",
            "type": "function"
        },
        {
            "inputs": [
                {
                    "components": [
                        {
                            "internalType": "address",
                            "name": "user",
                            "type": "address"
                        },
                        {
                            "internalType": "address",
                            "name": "beneficiary",
                            "type": "address"
                        },
                        {
                            "internalType": "uint256",
                            "name": "steps",
                            "type": "uint256"
                        },
                        {
                            "internalType": "uint256",
                            "name": "nonce",
                            "type": "uint256"
                        },
                        {
                            "internalType": "uint256",
                            "name": "deadline",
                            "type": "uint256"
                        },
                        {
                            "internalType": "string",
                            "name": "source",
                            "type": "string"
                        },
                        {
                            "internalType": "string",
                            "name": "version",
                            "type": "string"
                        }
                    ],
                    "internalType": "struct GemStepStorage.StepSubmission",
                    "name": "data",
                    "type": "tuple"
                },
                {
                    "components": [
                        {
                            "internalType": "bytes",
                            "name": "signature",
                            "type": "bytes"
                        },
                        {
                            "internalType": "bytes32[]",
                            "name": "proof",
                            "type": "bytes32[]"
                        },
                        {
                            "internalType": "bytes",
                            "name": "attestation",
                            "type": "bytes"
                        }
                    ],
                    "internalType": "struct GemStepStorage.VerificationData",
                    "name": "verification",
                    "type": "tuple"
                }
            ],
            "name": "logSteps",
            "outputs": [],
            "stateMutability": "nonpayable",
            "type": "function"
        },
        {
            "inputs": [],
            "name": "name",
            "outputs": [
                {
                    "internalType": "string",
                    "name": "",
                    "type": "string"
                }
            ],
            "stateMutability": "view",
            "type": "function"
        },
        {
            "inputs": [
                {
                    "internalType": "address",
                    "name": "",
                    "type": "address"
                }
            ],
            "name": "nonces",
            "outputs": [
                {
                    "internalType": "uint256",
                    "name": "",
                    "type": "uint256"
                }
            ],
            "stateMutability": "view",
            "type": "function"
        },
        {
            "inputs": [],
            "name": "pause",
            "outputs": [],
            "stateMutability": "nonpayable",
            "type": "function"
        },
        {
            "inputs": [],
            "name": "paused",
            "outputs": [
                {
                    "internalType": "bool",
                    "name": "",
                    "type": "bool"
                }
            ],
            "stateMutability": "view",
            "type": "function"
        },
        {
            "inputs": [
                {
                    "internalType": "string",
                    "name": "source",
                    "type": "string"
                }
            ],
            "name": "removeSource",
            "outputs": [],
            "stateMutability": "nonpayable",
            "type": "function"
        },
        {
            "inputs": [
                {
                    "internalType": "bytes32",
                    "name": "role",
                    "type": "bytes32"
                },
                {
                    "internalType": "address",
                    "name": "callerConfirmation",
                    "type": "address"
                }
            ],
            "name": "renounceRole",
            "outputs": [],
            "stateMutability": "nonpayable",
            "type": "function"
        },
        {
            "inputs": [
                {
                    "internalType": "bytes32",
                    "name": "role",
                    "type": "bytes32"
                },
                {
                    "internalType": "address",
                    "name": "account",
                    "type": "address"
                }
            ],
            "name": "revokeRole",
            "outputs": [],
            "stateMutability": "nonpayable",
            "type": "function"
        },
        {
            "inputs": [
                {
                    "internalType": "uint256",
                    "name": "newThreshold",
                    "type": "uint256"
                }
            ],
            "name": "setAnomalyThreshold",
            "outputs": [],
            "stateMutability": "nonpayable",
            "type": "function"
        },
        {
            "inputs": [
                {
                    "internalType": "string",
                    "name": "version",
                    "type": "string"
                },
                {
                    "internalType": "bool",
                    "name": "required",
                    "type": "bool"
                }
            ],
            "name": "setAttestationNonceRequired",
            "outputs": [],
            "stateMutability": "nonpayable",
            "type": "function"
        },
        {
            "inputs": [
                {
                    "internalType": "address",
                    "name": "_l1",
                    "type": "address"
                }
            ],
            "name": "setL1Governance",
            "outputs": [],
            "stateMutability": "nonpayable",
            "type": "function"
        },
        {
            "inputs": [
                {
                    "internalType": "address",
                    "name": "m",
                    "type": "address"
                }
            ],
            "name": "setMultisig",
            "outputs": [],
            "stateMutability": "nonpayable",
            "type": "function"
        },
        {
            "inputs": [
                {
                    "internalType": "address",
                    "name": "newOracle",
                    "type": "address"
                }
            ],
            "name": "setPriceOracle",
            "outputs": [],
            "stateMutability": "nonpayable",
            "type": "function"
        },
        {
            "inputs": [
                {
                    "internalType": "string",
                    "name": "source",
                    "type": "string"
                },
                {
                    "internalType": "bytes32",
                    "name": "root",
                    "type": "bytes32"
                }
            ],
            "name": "setSourceMerkleRoot",
            "outputs": [],
            "stateMutability": "nonpayable",
            "type": "function"
        },
        {
            "inputs": [
                {
                    "internalType": "bool",
                    "name": "paused_",
                    "type": "bool"
                }
            ],
            "name": "setStakingPaused",
            "outputs": [],
            "stateMutability": "nonpayable",
            "type": "function"
        },
        {
            "inputs": [
                {
                    "internalType": "address",
                    "name": "t",
                    "type": "address"
                }
            ],
            "name": "setTreasury",
            "outputs": [],
            "stateMutability": "nonpayable",
            "type": "function"
        },
        {
            "inputs": [
                {
                    "internalType": "address",
                    "name": "contractAddr",
                    "type": "address"
                },
                {
                    "internalType": "bool",
                    "name": "trusted",
                    "type": "bool"
                }
            ],
            "name": "setTrusted1271",
            "outputs": [],
            "stateMutability": "nonpayable",
            "type": "function"
        },
        {
            "inputs": [
                {
                    "internalType": "address",
                    "name": "api",
                    "type": "address"
                },
                {
                    "internalType": "bool",
                    "name": "trusted",
                    "type": "bool"
                }
            ],
            "name": "setTrustedAPI",
            "outputs": [],
            "stateMutability": "nonpayable",
            "type": "function"
        },
        {
            "inputs": [
                {
                    "internalType": "uint256",
                    "name": "amount",
                    "type": "uint256"
                }
            ],
            "name": "stake",
            "outputs": [],
            "stateMutability": "nonpayable",
            "type": "function"
        },
        {
            "inputs": [
                {
                    "internalType": "bytes4",
                    "name": "interfaceId",
                    "type": "bytes4"
                }
            ],
            "name": "supportsInterface",
            "outputs": [
                {
                    "internalType": "bool",
                    "name": "",
                    "type": "bool"
                }
            ],
            "stateMutability": "view",
            "type": "function"
        },
        {
            "inputs": [],
            "name": "symbol",
            "outputs": [
                {
                    "internalType": "string",
                    "name": "",
                    "type": "string"
                }
            ],
            "stateMutability": "view",
            "type": "function"
        },
        {
            "inputs": [
                {
                    "internalType": "bool",
                    "name": "enabled",
                    "type": "bool"
                }
            ],
            "name": "toggleEmergencyWithdraw",
            "outputs": [],
            "stateMutability": "nonpayable",
            "type": "function"
        },
        {
            "inputs": [],
            "name": "totalSupply",
            "outputs": [
                {
                    "internalType": "uint256",
                    "name": "",
                    "type": "uint256"
                }
            ],
            "stateMutability": "view",
            "type": "function"
        },
        {
            "inputs": [
                {
                    "internalType": "address",
                    "name": "to",
                    "type": "address"
                },
                {
                    "internalType": "uint256",
                    "name": "value",
                    "type": "uint256"
                }
            ],
            "name": "transfer",
            "outputs": [
                {
                    "internalType": "bool",
                    "name": "",
                    "type": "bool"
                }
            ],
            "stateMutability": "nonpayable",
            "type": "function"
        },
        {
            "inputs": [],
            "name": "transferAdminRoles",
            "outputs": [],
            "stateMutability": "nonpayable",
            "type": "function"
        },
        {
            "inputs": [
                {
                    "internalType": "address",
                    "name": "from",
                    "type": "address"
                },
                {
                    "internalType": "address",
                    "name": "to",
                    "type": "address"
                },
                {
                    "internalType": "uint256",
                    "name": "value",
                    "type": "uint256"
                }
            ],
            "name": "transferFrom",
            "outputs": [
                {
                    "internalType": "bool",
                    "name": "",
                    "type": "bool"
                }
            ],
            "stateMutability": "nonpayable",
            "type": "function"
        },
        {
            "inputs": [],
            "name": "treasury",
            "outputs": [
                {
                    "internalType": "address",
                    "name": "",
                    "type": "address"
                }
            ],
            "stateMutability": "view",
            "type": "function"
        },
        {
            "inputs": [],
            "name": "unpause",
            "outputs": [],
            "stateMutability": "nonpayable",
            "type": "function"
        },
        {
            "inputs": [
                {
                    "internalType": "uint256",
                    "name": "maxGas",
                    "type": "uint256"
                },
                {
                    "internalType": "uint256",
                    "name": "gasPriceBid",
                    "type": "uint256"
                },
                {
                    "internalType": "uint256",
                    "name": "maxSubmissionCost",
                    "type": "uint256"
                }
            ],
            "name": "updateArbitrumGasParams",
            "outputs": [],
            "stateMutability": "nonpayable",
            "type": "function"
        },
        {
            "inputs": [
                {
                    "internalType": "uint256",
                    "name": "amount",
                    "type": "uint256"
                }
            ],
            "name": "withdrawStake",
            "outputs": [],
            "stateMutability": "nonpayable",
            "type": "function"
        },
        {
            "stateMutability": "payable",
            "type": "receive"
        }
    ],
    "bytecode": "6080806040523460aa575f516020617a305f395f51905f525460ff8160401c16609b576002600160401b03196001600160401b038216016049575b60405161798190816100af8239f35b6001600160401b0319166001600160401b039081175f516020617a305f395f51905f525581527fc7f505b2f371ae2175ee4913f4499e1f2633a7b5936321eed1cdaeb6115181d290602090a15f80603a565b63f92ee8a960e01b5f5260045ffd5b5f80fdfe60a0806040526004361015610083575b50361561001a575f80fd5b341561004e576040513481527fbfe611b001dfcd411432f7bf0d79b82b4b2ee81511edac123a3403c357fb972a60203392a2005b60405162461bcd60e51b815260206004820152600d60248201526c4e6f207a65726f2076616c756560981b6044820152606490fd5b5f3560e01c90816301ffc9a7146158ab575080630493287c146157f4578063051527421461578457806306fdde03146156c7578063095ea7b3146156485780630e1508d9146155ed5780631039917e146154d45780631175a1c9146154a757806311c9a3a61461542657806315b31bbb1461540257806318160ddd146153d95780631ea7ca89146153b457806323b872dd146152dc578063248a9ca3146152a557806325d5971f1461519157806327701f751461514157806329798846146150955780632e0f262514614f575780632f2ff15d1461504b5780632fc9cbaf14614fcb57806330a12f8814614f72578063313ce56714614f575780633492600d14614e2457806335466aca14614db4578063355274ea14614d8c57806336568abe14614d485780633a5ceb2e14614cc25780633f4ba83a14614c5357806342966c6814614c36578063455fba8814614bf057806348ea00aa14614b3757806350ce155f14614a7257806351596c5614614a21578063530e784f146149835780635312ea8e14614832578063541992f7146146e557806354e1eb4c1461106657806355b8fb81146145815780635c975abb1461455357806361d027b31461452b57806366639b9e1461445d5780636cc3eac81461442a578063706bb6ab146143a057806370a082311461435c57806371f91a8f14614306578063754d1d5414613640578063796f077b146136255780637ecebe00146135ee5780637ed56410146135b15780638032c2971461353757806381f9a84b146132b257806383a7ede4146131bd5780638456cb591461314c57806384b0196e1461300257806386b414e914612ee857806391d1485414612e9357806395d89b4114612d9d578063991c6a9514612d0057806399934fcd14612c185780639e4484dd14612bdc578063a217fddf14612bc2578063a4e521dd14611258578063a54146491461119f578063a694fc3a1461109c578063a9059cbb1461106b578063acb8cc4914611066578063ae0bbe4d14610fc8578063c345315314610f80578063c3483a2a14610f3f578063c7f6fbfe14610e75578063d547741f14610e26578063d79e856714610d43578063d8e5194e14610cb7578063d957caaa14610b9d578063dd62ed3e14610b56578063e40272d714610a56578063e4bafabb146109ab578063e60edc4714610926578063e976f5d31461085d578063ed62d2ff1461081a578063f0f442601461077a578063f217ba6c14610675578063f3283fba146105cc578063f4e7a0e5146104e2578063f5e2bebb146104ba578063fa37273c146104865763fb41f7101461044c575f61000f565b34610482575f36600319011261048257608060025460035460045460055491604051938452602084015260408301526060820152f35b5f80fd5b34610482575f366003190112610482576006546007546040805160ff909316151583526020830191909152819081015b0390f35b34610482575f36600319011261048257603a546040516001600160a01b039091168152602090f35b34610482576040366003190112610482577fd730a567ef2eebd983bad54a507955546b52055ed81d47a5772155fc896dbf77604060043560243561054f60018060a01b03603a5416610535811515615fa9565b6001600160a01b039061054790616ebe565b163314615ff5565b6004546003549083600455826003555f5160206178ac5f395f51905f528560098151681cdd195c131a5b5a5d60ba1b815220928151908152866020820152a25f5160206178ac5f395f51905f5284600a8151697265776172645261746560b01b815220928151908152846020820152a282519182526020820152a1005b34610482576020366003190112610482576105e56158fe565b6105ed616107565b6001600160a01b0316801561063d576020817ff2a068f9de5c16d8cfc486ef064153275cef08f1aee2e6d946ee343cb1471ff8926001600160601b0360a01b6010541617601055604051908152a1005b60405162461bcd60e51b815260206004820152601060248201526f496e76616c6964206d756c746973696760801b6044820152606490fd5b34610482576020366003190112610482576004356001600160401b038111610482576106a59036906004016159e1565b906106ae616107565b6106bb6014831115615eae565b5f5b8281106106c657005b6106d96106d4828585615d6c565b615ef3565b6001600160a01b0381165f9081525f51602061786c5f395f51905f52602052604090205490919060ff16156107465781610714600193616cb2565b50828060a01b03167f3525e22824a8a7df2c9a6029941c824cf95b6447f1e13d5128fd3826d35afe8b5f80a2016106bd565b60405162461bcd60e51b815260206004820152600c60248201526b2737ba10309039b4b3b732b960a11b6044820152606490fd5b34610482576020366003190112610482576107936158fe565b61079b616107565b6001600160a01b031680156107e257601180546001600160a01b031916821790557f3c864541ef71378c6229510ed90f376565ee42d9c5e0904a984a9e863e6db44f5f80a2005b60405162461bcd60e51b815260206004820152601060248201526f496e76616c696420747265617375727960801b6044820152606490fd5b34610482576020366003190112610482576004356001600160401b0381116104825761084d61085b91369060040161595e565b90610856616156565b616a22565b005b34610482576108836108886108713661598b565b93919061087c616156565b36916160ac565b617158565b908151602083012091825f52603560205260ff60405f205416156108e9577f02f0822c0e58c11712689bcd4e336d192ce85e7d8a14f97faf438077d0bd2ade925f5260366020528160405f20556108e460405192839283615b9c565b0390a1005b60405162461bcd60e51b815260206004820152601560248201527415995c9cda5bdb881b9bdd081cdd5c1c1bdc9d1959605a1b6044820152606490fd5b346104825760203660031901126104825760a0600435805f52603360205260ff60405f20541690805f52603460205260405f205490805f52603960205260ff60405f205416815f52603560205260ff60405f205416915f52603660205260405f2054926040519415158552602085015215156040840152151560608301526080820152f35b34610482576020366003190112610482576109c46158fe565b6109cc616156565b6001600160a01b03168015610a1857805f52602760205260405f20600160ff198254161790557f988f61989f2ee842af78494fb84c1192752f75fa969952d663a251693ff2fa0a5f80a2005b60405162461bcd60e51b8152602060048201526016602482015275496e76616c696420646576696365206164647265737360501b6044820152606490fd5b3461048257602036600319011261048257610a6f6158fe565b610a77616107565b6001600160a01b03168015610b1157603a546001600160a01b038116610acc576001600160a01b0319168117603a557f28f7b8c07704cdf39a713f75ced4785a2f27a6e5d1cfd0cfec96cca4e4342b855f80a2005b60405162461bcd60e51b815260206004820152601d60248201527f47533a204c3120676f7665726e616e636520616c7265616479207365740000006044820152606490fd5b60405162461bcd60e51b815260206004820152601e60248201527f47533a204c3120676f7665726e616e6365207a65726f206164647265737300006044820152606490fd5b3461048257604036600319011261048257610b6f6158fe565b610b80610b7a615914565b91615af3565b9060018060a01b03165f52602052602060405f2054604051908152f35b3461048257610bab36615a11565b9091610bb56161b2565b6001600160a01b03811615610c7e576040516349460b4d60e11b81529160208380610be5848887600485016160e2565b03815f60645af1928315610c73575f93610c3c575b506020938392610c317f74a7ecfc0f948858581a2c75f3ac5d7550a8c48fbf7a18a7fd8c01ea2f1742a393604051938493846160e2565b0390a2604051908152f35b909192506020813d602011610c6b575b81610c5960209383615a54565b81010312610482575191906020610bfa565b3d9150610c4c565b6040513d5f823e3d90fd5b60405162461bcd60e51b815260206004820152601160248201527011d4ce8818985908130c481d185c99d95d607a1b6044820152606490fd5b346104825760203660031901126104825760c06001600160a01b03610cda6158fe565b165f908152602b6020908152604080832054602c835281842054602d845282852054602e855283862054603086528487205460318752968590205485519485529584019290925292820192909252606081019190915260ff9092161515608083015260a0820152f35b3461048257604036600319011261048257610d5c6158fe565b60243590610d686161b2565b610d706163f9565b610d78616ef2565b6001600160a01b031690610d8d821515616039565b5f80808084865af1610d9d61607d565b5015610de15760207f20f907b58305c7b76035bc03b26f32b1c4f6560f96be6f3bb54c5c848a2d4ddd91604051908152a260015f51602061790c5f395f51905f5255005b60405162461bcd60e51b815260206004820152601760248201527f47533a20455448207472616e73666572206661696c65640000000000000000006044820152606490fd5b346104825760403660031901126104825761085b600435610e45615914565b90610e70610e6b825f525f5160206178cc5f395f51905f52602052600160405f20015490565b616290565b616d56565b3461048257604036600319011261048257610e8e6158fe565b610e96615914565b90610e9f616107565b6001600160a01b031680151580610f2d575b15610ee8576001600160601b0360a01b601254161760125560018060a01b03166001600160601b0360a01b60165416176016555f80f35b60405162461bcd60e51b815260206004820152601760248201527f47533a2062616420417262697472756d20706172616d730000000000000000006044820152606490fd5b506001600160a01b0382161515610eb1565b34610482576020366003190112610482576004356001600160401b03811161048257610f7261085b91369060040161595e565b90610f7b616156565b61704e565b346104825760203660031901126104825760406001600160a01b03610fa36158fe565b16805f52602e602052815f2054905f52602f602052815f205482519182526020820152f35b3461048257604036600319011261048257610fe16158fe565b7fdce08b4e8453bf87ea367ba35cd5ea441228b68cdf66c1a0be97e2220d961927602061100c615940565b92611015616107565b6001600160a01b0316928315158061105c575b61103190616039565b835f52602482526110518160405f209060ff801983541691151516179055565b6040519015158152a2005b5030841415611028565b615ab3565b34610482576040366003190112610482576110916110876158fe565b60243590336162d6565b602060405160018152f35b34610482576020366003190112610482576004356110b8616431565b6110ca60ff601b5460081c1615615ded565b6110d5811515615e2e565b335f52602e60205260405f205481810190335f52602f60205260405f20549080155f1461115b575050335f52602f6020524260405f20555b335f52602e60205260405f2055806001540160015561112d8130336162d6565b6040519081527f9e71bc8eea02a63969f509818f2dafb9254532904319f9dbda79b67bd34a5f3d60203392a2005b8115611197575b821561118357829142850291020104335f52602f60205260405f205561110d565b634e487b7160e01b5f52601260045260245ffd5b429150611162565b34610482576040366003190112610482576111b86158fe565b6111c0615940565b906111c9616156565b6001600160a01b031690811561121d5760207f60db98dc6cf1e5d67dd092e1ee8eefefec50493ddcb1f42ca9e051c8133b940891835f52603082526110518160405f209060ff801983541691151516179055565b60405162461bcd60e51b8152602060048201526013602482015272496e76616c696420415049206164647265737360681b6044820152606490fd5b34610482576040366003190112610482576004356001600160401b03811161048257806004019060e06003198236030112610482576024356001600160401b03811161048257806004019060606003198236030112610482576112b96163f9565b6112c1616431565b335f52603060205260ff60405f2054168015612ba8575b15612b585760648301356080526001600160a01b036112f685615ef3565b165f526020805260405f205460805103612b23576001600160a01b0361131b85615ef3565b165f52602d60205260405f20544210612aea576001600160a01b0361134260248501615ef3565b1615612aaf5760448301358015612a7657608484013542811115612a3d5761136a4282615ea1565b60055410612a055760045482116129ca5760a485019361138a8588615f07565b905015612996576113be60ff60206113a2888b615f07565b91908260405193849283378101601c8152030190205416615f4c565b60c48601936113cd8589615f07565b9050156129615760206113e0868a615f07565b905011612929576113f761088361087c878b615f07565b60208151910120805f52603560205260ff60405f205416156128e4575f52603660205260405f205480159081156128da575b50156128955761143888615ef3565b906020611445888b615f07565b919082604051938492833781016026815203019020805460ff81166126e0575b60ff915060081c16612251575b5061148361088361087c878b615f07565b61148c89615ef3565b9061149960248a01615ef3565b906114a761087c8a8d615f07565b602081519101209060208151910120906040519260208401947f57557986231729f927f7ba1b4b64309a298dc00d2d45ce36d3a416176f864d51865260018060a01b0316604085015260018060a01b0316606084015287608084015260805160a08401528660c08401524660e0840152610100830152610120820152610120815261153461014082615a54565b51902061153f61739c565b9060405190602082019261190160f01b8452602283015260428201526042815261156a606282615a54565b5190209161158f61158761158161087c8480615f07565b85617253565b919091617284565b335f52603060205260ff60405f2054165f14611feb576001600160a01b03165f9081525f51602061788c5f395f51905f52602052604090205460ff1615611fa6575b6115db878a615f07565b926040518483823760208186810160268152030190209060018060a01b031693845f52602860205261162061161460405f208386615d90565b54600384015490616f92565b4210611f615762015180420492855f52602a602052888461164560405f208585615d90565b5403611f525761166761166d92600294895f52602960205260405f2091615d90565b54616f92565b91015410611f1657335f52603060205260ff60405f20541615611e55575b6116e490611699898c615f07565b9091855f526028602052426116b260405f208486615d90565b55855f52602a602052806116ca60405f208486615d90565b5403611e20575b50845f52602960205260405f2091615d90565b858154019055815f52603160205260405f205415611e0d575b335f52603060205260ff60405f20541615611df6575b815f52602b60205260405f2054600981029080820460091490151715611daa576064860291868304606403611daa57604093600a6117576117939561176a95616f92565b04905f52602b602052845f205580615f07565b9290838251948592602084019788528484013781015f838201520301601f198101835282615a54565b519020805f52601d60205260ff60405f205416611dbe57805f52601d60205260405f20600160ff1982541617905560018201809211611daa575f52601e60205260405f20556117e28386615f07565b6001600160a01b036117f388615ef3565b165f52602260205260405f20916001600160401b038211611d96576118188354615bb8565b601f8111611d45575b505f90601f8311600114611ce15761185092915f9183611cd6575b50508160011b915f199060031b1c19161790565b90555b6001600160a01b0361186486615ef3565b165f52602160205260405f2061187b828254616f92565b905560018110611c9b5761189160035482615f39565b9061189e60248601615ef3565b6001600160a01b03811693908415611c7257612710946118bf851515615e2e565b62278d004204600a548111611c05575b506118ef866118ff816118f76118e487617652565b9c918c979197615f39565b04948a615f39565b049888615f39565b049283820161191c815f51602061782c5f395f51905f5254616f92565b6b033b2e3c9fd0803ce800000010611bda5760095461193b8282616f92565b600d5410611baf578101600955600c5401600c5561195761747e565b81611b5f575b50505080611a9d575b506119a361088361087c611a0793877f30ffb8867378b05f6a4543f373937528d520ee2f264a4c2c493d487a2d6db86698611a43575b508a615f07565b946119ea6119c66119bf60246119b88c615ef3565b9a01615ef3565b928a615f07565b6040519687968752602087015242604087015260a0606087015260a0860191615f89565b83810360808501526001600160a01b0391821697909116956159bd565b0390a36001600160a01b0390611a1c90615ef3565b165f526020805260016080510160405f205560015f51602061790c5f395f51905f52555f80f35b611a4d81306171bb565b611a578130616df2565b5f51602061782c5f395f51905f525460405191825260208201527fccbea4088a3b7ae9ca2d15fab9a9742a4075b4d7247768a1eecea917565aba0060403092a28b61199c565b6011549094906001600160a01b03168015611b355761087c611a07936119a393837f2e8ac5177a616f2aec08c3048f5021e4e9743ece034e8d83ba5caf76688bb47560408b611b107f30ffb8867378b05f6a4543f373937528d520ee2f264a4c2c493d487a2d6db8669d610883996171bb565b5f51602061782c5f395f51905f525482519182526020820152a2975093505050611966565b60405162461bcd60e51b81526020600482015260026024820152612a2960f11b6044820152606490fd5b81611b8d7f2e8ac5177a616f2aec08c3048f5021e4e9743ece034e8d83ba5caf76688bb475936040936171bb565b5f51602061782c5f395f51905f525482519182526020820152a288808061195d565b606460405162461bcd60e51b815260206004820152600460248201526304d4341560e41b6044820152fd5b60405162461bcd60e51b815260206004820152600360248201526204341560ec1b6044820152606490fd5b6040817fe173c9ac4c014501a8c96fc91234d51d22061172cbbbbed60e3649ec31eb328892600a555f60095542600b557fbb06e862fa56ed4f76476cc209090725269eba93ce87444dd31f5d6807f647d760208351838152a1600d5482519182526020820152a1896118cf565b60405162461bcd60e51b81526020600482015260016024820152602d60f91b6044820152606490fd5b60405162461bcd60e51b815260206004820152601360248201527253746570732062656c6f77206d696e696d756d60681b6044820152606490fd5b01359050898061183c565b601f19831691845f5260205f20925f5b818110611d2d5750908460019594939210611d14575b505050811b019055611853565b01355f19600384901b60f8161c19169055888080611d07565b91936020600181928787013581550195019201611cf1565b8281111561182157835f5260205f20601f840160051c9060208510611d8e575b81601f9101920160051c03905f5b828110611d81575050611821565b5f82820155600101611d73565b5f9150611d65565b634e487b7160e01b5f52604160045260245ffd5b634e487b7160e01b5f52601160045260245ffd5b60405162461bcd60e51b815260206004820152601060248201526f14da59db985d1d5c99481c995d5cd95960821b6044820152606490fd5b815f525f60205260405f2060018154019055611713565b815f5260316020524260405f20556116fd565b855f52602a602052611e3660405f208385615d90565b55845f5260296020525f611e4e604082208385615d90565b558c6116d1565b825f525f60205260405f20546032541115611ed157662386f26fc100008602868104662386f26fc1000003611daa57835f52602e60205260405f2054101561168b5760405162461bcd60e51b8152602060048201526012602482015271496e73756666696369656e74207374616b6560701b6044820152606490fd5b60405162461bcd60e51b815260206004820152601760248201527f47533a20415049207369676e65722072657175697265640000000000000000006044820152606490fd5b60405162461bcd60e51b815260206004820152601460248201527311185a5b1e481b1a5b5a5d08195e18d95959195960621b6044820152606490fd5b6002925061166d91505f616f92565b60405162461bcd60e51b815260206004820152601760248201527f5375626d697373696f6e20746f6f206672657175656e740000000000000000006044820152606490fd5b60405162461bcd60e51b815260206004820152601760248201527f556e617574686f72697a656420415049207369676e65720000000000000000006044820152606490fd5b823b156121cb57506001600160a01b0382165f8181526023602052604090205460ff16156121865761204b60206120228480615f07565b6040519384928392630b135d3f60e11b84528a6004850152604060248501526044840191615f89565b0381855afa908115610c73575f91612143575b506001600160e01b0319166374eca2c160e11b016120fe57805f52603860205260405f20845f5260205260ff60405f2054166120b9575f52603860205260405f20835f5260205260405f20600160ff198254161790556115d1565b60405162461bcd60e51b815260206004820152601b60248201527f455243313237312064696765737420616c7265616479207573656400000000006044820152606490fd5b60405162461bcd60e51b815260206004820152601a60248201527f496e76616c696420636f6e7472616374207369676e61747572650000000000006044820152606490fd5b90506020813d60201161217e575b8161215e60209383615a54565b8101031261048257516001600160e01b031981168103610482578b61205e565b3d9150612151565b60405162461bcd60e51b815260206004820152601a60248201527f556e74727573746564204552433132373120636f6e74726163740000000000006044820152606490fd5b6001600160a01b0381165f9081525f51602061788c5f395f51905f52602052604090205460ff16156121fe575b506115d1565b6001600160a01b0383811691160361221657896121f8565b60405162461bcd60e51b815260206004820152601360248201527229b4b3b732b91036bab9ba103132903ab9b2b960691b6044820152606490fd5b604461225e910183615f07565b8101608082820312610482578135906001600160a01b03821682036104825760208301359060408401356001600160401b03811161048257840181601f8201121561048257818160206122b3933591016160ac565b936060810135906001600160401b03821161048257019080601f83011215610482578160206122e4933591016160ac565b83516001600160a01b038416949192919080151590816126d4575b501561269a5761230e90617158565b6020815191012090815f52603360205260ff60405f2054161561265557815f52603460205260405f2054801590811561264b575b501561260657845f52602760205260ff60405f205416156125ce57610e1061236a8242615ea1565b1015612595578c93825f52603960205260ff60405f2054165f1461247c575061158792916124289161239e61242d96615ef3565b916040519160208301937f9387d105284ba50a24ddd344aff28f662b0037fc6f7bf9597ef4dae4a7f95c7a855260018060a01b031660408401528c6060840152608083015260a082015260805160c082015260c081526123ff60e082615a54565b5190205b61240b61739c565b6042916040519161190160f01b8352600283015260228201522090565b617253565b6001600160a01b0316036124415788611472565b60405162461bcd60e51b815260206004820152601360248201527224b73b30b634b21030ba3a32b9ba30ba34b7b760691b6044820152606490fd5b929361248790615ef3565b916040519160208301937fc49bd533da7d3e67e9ffbedd30551d652e40982f406c8756033164f40f686800855260018060a01b031660408401528a6060840152608083015260a082015260a081526124e060c082615a54565b519020906124f08261240b61739c565b6040519060208201926001600160601b03199060601b16835260348201526034815261251d605482615a54565b51902091825f52603760205260ff60405f20541661255b576124286115879261242d945f52603760205260405f20600160ff19825416179055612403565b60405162461bcd60e51b8152602060048201526012602482015271105d1d195cdd185d1a5bdb881c995d5cd95960721b6044820152606490fd5b60405162461bcd60e51b815260206004820152601160248201527029ba30b6329030ba3a32b9ba30ba34b7b760791b6044820152606490fd5b60405162461bcd60e51b815260206004820152601060248201526f556e747275737465642064657669636560801b6044820152606490fd5b60405162461bcd60e51b815260206004820152601e60248201527f4174746573746174696f6e2076657273696f6e206465707265636174656400006044820152606490fd5b905042108e612342565b60405162461bcd60e51b815260206004820152601f60248201527f556e737570706f72746564206174746573746174696f6e2076657273696f6e006044820152606490fd5b60405162461bcd60e51b81526020600482015260126024820152712130b21030ba3a32b9ba103b32b939b4b7b760711b6044820152606490fd5b6020915011158e6122ff565b6024830160206126f08288617123565b90501161285f57600483019260018060a01b0386165f528360205260405f205491604051602081019060018060a01b03891682528b60408201528460608201526060815261273f608082615a54565b51902091825f52602560205260ff60405f205416612826579061277a600191845f52602560205260405f208360ff198254161790558a617123565b919092015492915f915b8083106127e857505050036127b35760ff9260018060a01b0386165f52602052600160405f2091019055611465565b60405162461bcd60e51b815260206004820152600d60248201526c24b73b30b634b210383937b7b360991b6044820152606490fd5b9091926127f6848385615d6c565b359081811015612815575f52602052600160405f205b93019190612784565b905f52602052600160405f2061280c565b60405162461bcd60e51b81526020600482015260116024820152701319585988185b1c9958591e481d5cd959607a1b6044820152606490fd5b60405162461bcd60e51b815260206004820152600e60248201526d50726f6f6620746f6f206c6f6e6760901b6044820152606490fd5b60405162461bcd60e51b815260206004820152601a60248201527f5061796c6f61642076657273696f6e20646570726563617465640000000000006044820152606490fd5b9050421089611429565b60405162461bcd60e51b815260206004820152601b60248201527f556e737570706f72746564207061796c6f61642076657273696f6e00000000006044820152606490fd5b60405162461bcd60e51b815260206004820152601060248201526f56657273696f6e20746f6f206c6f6e6760801b6044820152606490fd5b60405162461bcd60e51b815260206004820152600d60248201526c22b6b83a3c903b32b939b4b7b760991b6044820152606490fd5b60405162461bcd60e51b815260206004820152600c60248201526b456d70747920736f7572636560a01b6044820152606490fd5b60405162461bcd60e51b815260206004820152601360248201527214dd195c081b1a5b5a5d08195e18d959591959606a1b6044820152606490fd5b60405162461bcd60e51b815260206004820152601060248201526f2232b0b23634b732903a37b7903330b960811b6044820152606490fd5b60405162461bcd60e51b815260206004820152601160248201527014da59db985d1d5c9948195e1c1a5c9959607a1b6044820152606490fd5b60405162461bcd60e51b8152602060048201526011602482015270139bc81cdd195c1cc81c1c9bdd9a591959607a1b6044820152606490fd5b60405162461bcd60e51b8152602060048201526013602482015272496e76616c69642062656e656669636961727960681b6044820152606490fd5b60405162461bcd60e51b81526020600482015260116024820152701058d8dbdd5b9d081cdd5cdc195b991959607a1b6044820152606490fd5b60405162461bcd60e51b815260206004820152600d60248201526c496e76616c6964206e6f6e636560981b6044820152606490fd5b60405162461bcd60e51b815260206004820152602260248201527f43616c6c6572206d7573742062652075736572206f7220747275737465642041604482015261504960f01b6064820152608490fd5b506001600160a01b03612bba85615ef3565b1633146112d8565b34610482575f3660031901126104825760206040515f8152f35b346104825760203660031901126104825761085b612bf861594f565b603a54612c13906001600160a01b0316610535811515615fa9565b615da9565b34610482576020366003190112610482576004356001600160401b03811161048257612c4890369060040161595e565b90612c51616156565b60ff60405183838237602081858101601c815203019020541615612cc35760405182828237602081848101601c81520301902060ff19815416905581604051928392833781015f81520390207f77c6579aab1409b66c5b67c79bb3df4532a1164cfcdff8eeb3e91f86b017882f5f80a2005b60405162461bcd60e51b815260206004820152601560248201527414dbdd5c98d9481b9bdd081c9959da5cdd195c9959605a1b6044820152606490fd5b34610482576020366003190112610482576004356001600160401b038111610482576108e4612d6c610883612d5a7f8d1c6685a34f0d317022b7016510683d5bb9b2113877481ee1ee58cf0ebbff3294369060040161595e565b612d62616156565b61087c81836170d1565b805160208201205f52603560205260405f20600160ff198254161790556040519182916020835260208301906159bd565b34610482575f366003190112610482576040515f5f51602061780c5f395f51905f5254612dc981615bb8565b8084529060018116908115612e6f5750600114612e05575b6104b683612df181850382615a54565b6040519182916020835260208301906159bd565b5f51602061780c5f395f51905f525f9081527f46a2803e59a4de4e7a4c574b1243f25977ac4c77d5a1a4a609b5394cebb4a2aa939250905b808210612e5557509091508101602001612df1612de1565b919260018160209254838588010152019101909291612e3d565b60ff191660208086019190915291151560051b84019091019150612df19050612de1565b3461048257604036600319011261048257612eac615914565b6004355f525f5160206178cc5f395f51905f5260205260405f209060018060a01b03165f52602052602060ff60405f2054166040519015158152f35b34610482576060366003190112610482576004356001600160401b03811161048257612f1890369060040161595e565b90612f21615940565b6044359081151580920361048257612f60612ff0937f2e05e0fba3ec364ba1385f14b1086c8209fc02216de40d2048994d870230754c9561087c616156565b91610e106003604051855190602081818901938085835e8101601c815203019020600160ff198254161790556020604051809288518091835e81016026815203019020612fb985829060ff801983541691151516179055565b805461ff008560081b169061ff0019161781555f6001820155612710600282015501556040519384936060855260608501906159bd565b911515602084015260408301520390a1005b34610482575f366003190112610482577fa16a46d94261c7517cc8ff89f61c0ce93598e3c849801011dee649a6a557d100541580613123575b156130e65761308a61304b615bf0565b613053615cbf565b6020613098604051926130668385615a54565b5f84525f368137604051958695600f60f81b875260e08588015260e08701906159bd565b9085820360408701526159bd565b4660608501523060808501525f60a085015283810360c08501528180845192838152019301915f5b8281106130cf57505050500390f35b8351855286955093810193928101926001016130c0565b60405162461bcd60e51b81526020600482015260156024820152741152540dcc4c8e88155b9a5b9a5d1a585b1a5e9959605a1b6044820152606490fd5b507fa16a46d94261c7517cc8ff89f61c0ce93598e3c849801011dee649a6a557d101541561303b565b34610482575f36600319011261048257613164616221565b61316c616431565b600160ff195f5160206178ec5f395f51905f525416175f5160206178ec5f395f51905f52557f62e78cea01bee320cd4e420270b5ea74000d11b0c9f74754ebdbfc544b05a2586020604051338152a1005b34610482576020366003190112610482576001600160a01b036131de6158fe565b16805f52602160205260405f2054905f52602260205260405f209060405191825f82549261320b84615bb8565b8084529360018116908115613290575060011461324c575b5061323092500383615a54565b6104b660405192839283526040602084015260408301906159bd565b90505f9291925260205f20905f915b8183106132745750509060206132309282010185613223565b602091935080600191548385890101520191019091849261325b565b90506020925061323094915060ff191682840152151560051b82010185613223565b34610482575f366003190112610482576132ca616107565b600f546001600160a01b03811633036134fd5760a01c60ff166134c2576010546001600160a01b03161561348a5760405160e081018181106001600160401b03821117611d96576040525f81527f65d7a28e3265b37a6474929f336521b332c1681b933f6cb9f3376673440d862a60208201527f9f2df0fed2c77648de5860a4cc508cd0818c85b8b8a1ab4ceeef8d981c8956a660408201527fe2f4eaae4a9751e85a3e4a7b9587827a877f29914755229b07a7b2da98285f7060608201527f896f2fe212e7ed9631b6dfe8fc24cd35f4d47b9e9a854d5b0eb08db6295a922c60808201527f5358bcfd81d1ef3da152b1755e1c3c6739686fa7e83dbcad0071568cc4b73a6360a08201527f189ab7a9244df0848122154315af71fe140f3db0fe014031783b0946b8c9d2e360c08201525f5b600781101561342f57600581901b820151600f5460019291613428916001600160a01b031690616d56565b50016133fd565b601054613444906001600160a01b03166164f0565b50600f805460ff60a01b1916600160a01b1790556010546001600160a01b03167f702e3fa04ed68db1cc744b2fe75e903f185da608e34f20bc50c63c8f7a3996975f80a2005b60405162461bcd60e51b815260206004820152601060248201526f135d5b1d1a5cda59c81b9bdd081cd95d60821b6044820152606490fd5b60405162461bcd60e51b8152602060048201526013602482015272105b1c9958591e481d1c985b9cd9995c9c9959606a1b6044820152606490fd5b60405162461bcd60e51b815260206004820152601260248201527127b7363c9034b734ba34b0b61030b236b4b760711b6044820152606490fd5b34610482576020366003190112610482576004356001600160401b038111610482576135887f2c0af4023f3cb37dafba930e27bc09a6c4df291d72c9beab47b8a7abcd648ba891369060040161595e565b613590616156565b61359a818361704e565b6108e4604051928392602084526020840191615f89565b34610482576020366003190112610482576001600160a01b036135d26158fe565b165f526027602052602060ff60405f2054166040519015158152f35b34610482576020366003190112610482576001600160a01b0361360f6158fe565b165f5260208052602060405f2054604051908152f35b34610482575f366003190112610482576104b6612df1615ace565b346104825760803660031901126104825760043561365c615914565b6044356001600160a01b03811692908390036104825761367a61592a565b5f51602061792c5f395f51905f52549260ff8460401c1615936001600160401b038116801590816142fe575b60011490816142f4575b1590816142eb575b506142dc5767ffffffffffffffff1981166001175f51602061792c5f395f51905f5255846142b0575b506001600160a01b038116918215614273576001600160a01b0316801561423b576b014adf4b7320334b9000000084036141f65761371d615ace565b9560409687519061372e8983615a54565b6005825264047535445560dc1b6020830152613748617190565b613750617190565b8051906001600160401b038211611d96576137785f51602061778c5f395f51905f5254615bb8565b601f811161417c575b50602090601f83116001146140ff576137b092915f9183613dfe5750508160011b915f199060031b1c19161790565b5f51602061778c5f395f51905f52555b8051906001600160401b038211611d96576137e85f51602061780c5f395f51905f5254615bb8565b601f8111614085575b50602090601f83116001146140085761382092915f9183613ffd5750508160011b915f199060031b1c19161790565b5f51602061780c5f395f51905f52555b613838617190565b613840617190565b613848617190565b613850617190565b60015f51602061790c5f395f51905f5255613869615ace565b613871615a90565b9061387a617190565b613882617190565b8051906001600160401b038211611d96576138aa5f5160206177ec5f395f51905f5254615bb8565b601f8111613f83575b50602090601f8311600114613f06576138e292915f9183613dfe5750508160011b915f199060031b1c19161790565b5f5160206177ec5f395f51905f52555b8051906001600160401b038211611d965761391a5f51602061784c5f395f51905f5254615bb8565b601f8111613e8c575b50602090601f8311600114613e0957918061395992613a75979695945f92613dfe5750508160011b915f199060031b1c19161790565b5f51602061784c5f395f51905f52555b5f7fa16a46d94261c7517cc8ff89f61c0ce93598e3c849801011dee649a6a557d100555f7fa16a46d94261c7517cc8ff89f61c0ce93598e3c849801011dee649a6a557d10155846001600160601b0360a01b600f541617600f55738315177ab297ba92a06054ce80a67ed4dbd7ed3a6001600160601b0360a01b60175416176017556001600160601b0360a01b60185416176018556001600160601b0360a01b6011541617601155662386f26fc1000060195560ff19601b5416601b5542601a55613a33816164f0565b50613a3d81616587565b50613a4781616640565b50613a5181616458565b50613a5b816166f9565b50613a65816167b2565b50613a6f8161686b565b506168fe565b503303613da9575b5f60025566038d7ea4c68000600355611388600455610e1060055562278d004204600a5542600b55613ab76a01a784379d99db4200000090565b6008556a01a784379d99db42000000600d5560018060a01b0360115416613aec825f51602061782c5f395f51905f5254616f92565b6b033b2e3c9fd0803ce800000010613d655781613b08916171bb565b600c5401600c55613b368251613b1e8482615a54565b6006815265199a5d189a5d60d21b6020820152616f9f565b613b608251613b458482615a54565b600981526819dbdbd9db19599a5d60ba1b6020820152616f9f565b7f2e05e0fba3ec364ba1385f14b1086c8209fc02216de40d2048994d870230754c613c148351613b908582615a54565b600b8152610e106003602083016a0c2e0e0d8cad0cac2d8e8d60ab1b8152875160208186518085835e8101601c815203019020600160ff1982541617905560208851809286518091835e602690820190815203019020805461ffff191681555f600182015561271060028201550155845160608082529092839290918301906159bd565b5f60208301525f868301520390a1613c2a615a90565b602081519101205f526035602052815f20600160ff198254161790557f8d1c6685a34f0d317022b7016510683d5bb9b2113877481ee1ee58cf0ebbff32613c85613c72615a90565b84519182916020835260208301906159bd565b0390a1613c90615a90565b60208151910120805f526033602052825f20600160ff198254161790557feedab8eaa8b4d79b239eb46bc7462090269cc1393333d78e0476ab46c7d79683613cec613cd9615a90565b85519182916020835260208301906159bd565b0390a15f526039602052815f20600160ff198254161790556003603255613d0f57005b60207fc7f505b2f371ae2175ee4913f4499e1f2633a7b5936321eed1cdaeb6115181d29168ff0000000000000000195f51602061792c5f395f51905f5254165f51602061792c5f395f51905f52555160018152a1005b835162461bcd60e51b815260206004820152601960248201527f45524332304361707065643a20636170206578636565646564000000000000006044820152606490fd5b613db2336164f0565b50613dbc33616587565b50613dc633616640565b50613dd033616458565b50613dda336166f9565b50613de4336167b2565b50613dee3361686b565b50613df8336168fe565b50613a7d565b015190508b8061183c565b90601f198316915f51602061784c5f395f51905f525f52815f20925f5b818110613e745750916001939185613a75999897969410613e5c575b505050811b015f51602061784c5f395f51905f5255613969565b01515f1960f88460031b161c191690558a8080613e42565b92936020600181928786015181550195019301613e26565b82811115613923575f51602061784c5f395f51905f525f52601f830160051c7f5f9ce34815f8e11431c7bb75a8e6886a91478f7ffc1dbb0a98dc240fddd76b7560208510613efe575b81601f9101920160051c03905f5b828110613ef1575050613923565b5f82820155600101613ee3565b5f9150613ed5565b90601f198316915f5160206177ec5f395f51905f525f52815f20925f5b818110613f6b5750908460019594939210613f53575b505050811b015f5160206177ec5f395f51905f52556138f2565b01515f1960f88460031b161c191690558a8080613f39565b92936020600181928786015181550195019301613f23565b828111156138b3575f5160206177ec5f395f51905f525f52601f830160051c7f42ad5d3e1f2e6e70edcf6d991b8a3023d3fca8047a131592f9edb9fd9b89d57d60208510613ff5575b81601f9101920160051c03905f5b828110613fe85750506138b3565b5f82820155600101613fda565b5f9150613fcc565b015190508a8061183c565b90601f198316915f51602061780c5f395f51905f525f52815f20925f5b81811061406d5750908460019594939210614055575b505050811b015f51602061780c5f395f51905f5255613830565b01515f1960f88460031b161c1916905589808061403b565b92936020600181928786015181550195019301614025565b828111156137f1575f51602061780c5f395f51905f525f52601f830160051c7f46a2803e59a4de4e7a4c574b1243f25977ac4c77d5a1a4a609b5394cebb4a2aa602085106140f7575b81601f9101920160051c03905f5b8281106140ea5750506137f1565b5f828201556001016140dc565b5f91506140ce565b90601f198316915f51602061778c5f395f51905f525f52815f20925f5b818110614164575090846001959493921061414c575b505050811b015f51602061778c5f395f51905f52556137c0565b01515f1960f88460031b161c191690558a8080614132565b9293602060018192878601518155019501930161411c565b82811115613781575f51602061778c5f395f51905f525f52601f830160051c7f2ae08a8e29253f69ac5d979a101956ab8f8d9d7ded63fa7a83b16fc47648eab0602085106141ee575b81601f9101920160051c03905f5b8281106141e1575050613781565b5f828201556001016141d3565b5f91506141c5565b60405162461bcd60e51b815260206004820152601f60248201527f696e697469616c537570706c7920213d20494e495449414c5f535550504c59006044820152606490fd5b60405162461bcd60e51b815260206004820152601060248201526f151c99585cdd5c9e481b9bdd081cd95d60821b6044820152606490fd5b60405162461bcd60e51b8152602060048201526015602482015274496e76616c69642061646d696e206164647265737360581b6044820152606490fd5b68ffffffffffffffffff191668010000000000000001175f51602061792c5f395f51905f5255856136e1565b63f92ee8a960e01b5f5260045ffd5b905015876136b8565b303b1591506136b0565b8691506136a6565b34610482576020366003190112610482576004356001600160401b0381116104825760ff602061433b8193369060040161595e565b91908260405193849283378101601c81520301902054166040519015158152f35b34610482576020366003190112610482576001600160a01b0361437d6158fe565b165f525f5160206177cc5f395f51905f52602052602060405f2054604051908152f35b34610482576020366003190112610482577fc6476a40ff1414a9b8fd9a0536c6fbe966dfd2cd4080a53f0bd41eb8eb9f95b16143da61594f565b6143e26161b2565b60ff196006541660ff8215151617600655805f14614421576202a30042016007555b6007546040805192151583526020830191909152819081016108e4565b5f600755614404565b34610482575f366003190112610482576060601954601a5460ff601b541690604051928352602083015215156040820152f35b34610482576040366003190112610482576004356001600160401b0381116104825761451e6108836144ca6144b77f15956a3f8fc5fb015d5b42646f2fea3821aa3f33e95fbf24214c7a3c3f689e7294369060040161595e565b92906144c1615940565b9361087c616156565b9081516020830120805f5260336020526144ea60ff60405f205416615b50565b5f52603960205261450a8160405f209060ff801983541691151516179055565b6040519283926040845260408401906159bd565b90151560208301520390a1005b34610482575f366003190112610482576011546040516001600160a01b039091168152602090f35b34610482575f36600319011261048257602060ff5f5160206178ec5f395f51905f5254166040519015158152f35b34610482576060366003190112610482576004356001600160a01b03811690819003610482576145af615914565b90604435916145bc6161b2565b6145c46163f9565b6145cc616ef2565b6001600160a01b0316916145e1831515616039565b5f80604051602081019063a9059cbb60e01b825286602482015284604482015260448152614610606482615a54565b519082865af161461e61607d565b816146ad575b50156146685760207fda568f14cc33c45f2866f24477f9007a04f029daa19ea7192cf685a53b9b92c891604051908152a360015f51602061790c5f395f51905f5255005b60405162461bcd60e51b815260206004820152601960248201527f47533a204552433230207472616e73666572206661696c6564000000000000006044820152606490fd5b80518015925082156146c2575b505084614624565b8192509060209181010312610482576020015180151581036104825784806146ba565b34610482576020366003190112610482576146fe61594f565b603a54614719906001600160a01b0316610535811515615fa9565b80156147a55760207fe71cfad5ee2c535dad6478993dbf32aad1a2ade4ae6ad13079ada87d18cd3f949161474b616431565b600160ff195f5160206178ec5f395f51905f525416175f5160206178ec5f395f51905f52557f62e78cea01bee320cd4e420270b5ea74000d11b0c9f74754ebdbfc544b05a25882604051338152a15b6040519015158152a1005b5f5160206178ec5f395f51905f525460ff811615614823577fe71cfad5ee2c535dad6478993dbf32aad1a2ade4ae6ad13079ada87d18cd3f949160209160ff19165f5160206178ec5f395f51905f52557f5db9ee0a495bf2e6ff9c91a7834c1ba4fdd244a5e8aa4e537bd38aeae4b073aa82604051338152a161479a565b638dfc202b60e01b5f5260045ffd5b346104825760203660031901126104825760043561484e6161b2565b6148566163f9565b61485e616ef2565b335f52602460205260ff60405f2054161561493e5761489561487f30615b2b565b546001549061489082821015615e5e565b615ea1565b81116148f9576148a68133306162d6565b5f51602061782c5f395f51905f525460405191825260208201527fbb757047c2b5f3974fe26b7c10f732e7bce710b0952a71082702781e62ae059560403392a260015f51602061790c5f395f51905f5255005b60405162461bcd60e51b815260206004820152601860248201527f47533a206578636565647320667265652062616c616e636500000000000000006044820152606490fd5b60405162461bcd60e51b815260206004820152601a60248201527f47533a20756e617574686f72697a656420726563697069656e740000000000006044820152606490fd5b346104825760203660031901126104825761499c6158fe565b6149a4616107565b6001600160a01b031680156149eb57601880546001600160a01b031916821790557f3df77beb5db05fcdd70a30fc8adf3f83f9501b68579455adbd100b81809403945f80a2005b60405162461bcd60e51b815260206004820152600e60248201526d496e76616c6964206f7261636c6560901b6044820152606490fd5b34610482575f36600319011261048257603a546060906001600160a01b03168015614a6c57614a4f81616ebe565b60018060a01b031660405191825280602083015233146040820152f35b5f614a4f565b346104825760a03660031901126104825760c0614a8d615914565b614a9561592a565b6004355f52601d60205260ff60405f2054169160018060a01b0316805f52602360205260ff60405f2054169160018060a01b03165f52602460205260ff60405f205416906084355f52603760205260ff60405f205416905f52603860205260405f206044355f5260205260ff60405f205416916032549360405195151586521515602086015215156040850152151560608401521515608083015260a0820152f35b34610482576040366003190112610482576004356001600160401b03811161048257614b887f95c604bce60c48b7c643e84e802d9f6d51beb87adb385e1394bdd6518f49eb0891369060040161595e565b602435614b93616156565b614bb460ff60405184868237602081868101601c8152030190205416615f4c565b8060016040518486823760208186810160268152030190200155614be5604051938493604085526040850191615f89565b9060208301520390a1005b346104825760206004614c0236615a11565b91939082604051938492833781016026815203019020019060018060a01b03165f52602052602060405f2054604051908152f35b346104825760203660031901126104825761085b60043533616df2565b34610482575f36600319011261048257614c6b616221565b5f5160206178ec5f395f51905f525460ff8116156148235760ff19165f5160206178ec5f395f51905f52557f5db9ee0a495bf2e6ff9c91a7834c1ba4fdd244a5e8aa4e537bd38aeae4b073aa6020604051338152a1005b34610482576020366003190112610482576004356001600160401b038111610482576020614cf660a092369060040161595e565b919082604051938492833781016026815203019020805490600181015490600360028201549101549160ff604051948181161515865260081c1615156020850152604084015260608301526080820152f35b3461048257604036600319011261048257614d61615914565b336001600160a01b03821603614d7d5761085b90600435616d56565b63334bd91960e11b5f5260045ffd5b34610482575f3660031901126104825760206b033b2e3c9fd0803ce80000005b604051908152f35b34610482576020366003190112610482576004356001600160401b03811161048257614de49036906004016159e1565b614dec616156565b614df9600a821115615eae565b5f5b8181101561085b57600190614e1e614e188260051b860186615f07565b90616a22565b01614dfb565b34610482576020366003190112610482576004356001600160401b03811161048257614e549036906004016159e1565b90614e5d616107565b614e6a6014831115615eae565b5f5b828110614e7557005b614e836106d4828585615d6c565b906001600160a01b0382168015614f21575f8181525f51602061786c5f395f51905f52602052604090205460ff16614eeb57614ec0600193616458565b507f47d1c22a25bb3a5d4e481b9b1e6944c2eade3181a0a20b495ed61d35b5323f245f80a201614e6c565b60405162461bcd60e51b815260206004820152600e60248201526d20b63932b0b23c9039b4b3b732b960911b6044820152606490fd5b60405162461bcd60e51b815260206004820152600e60248201526d24b73b30b634b21039b4b3b732b960911b6044820152606490fd5b34610482575f36600319011261048257602060405160128152f35b34610482575f36600319011261048257614f8b30615b2b565b546001549081811115614fc2576104b6614fa58383615ea1565b604051938493846040919493926060820195825260208201520152565b6104b65f614fa5565b34610482575f3660031901126104825761014060405162093a80815262ed4e0060208201526104b06040820152610320606082015269021e19e0c9bab24000006080820152690a968163f0a57b40000060a0820152692a5a058fc295ed00000060c082015260c860e08201526101f4610100820152610384610120820152f35b346104825760403660031901126104825761085b60043561506a615914565b90615090610e6b825f525f5160206178cc5f395f51905f52602052600160405f20015490565b616991565b34610482576020366003190112610482576004356150b1616156565b600281101580615136575b15615101575f5160206178ac5f395f51905f52604060325483603255601082516f185b9bdb585b1e551a1c995cda1bdb1960821b8152209382519182526020820152a2005b60405162461bcd60e51b815260206004820152600d60248201526c189859081d1a1c995cda1bdb19609a1b6044820152606490fd5b50600a8111156150bc565b34610482575f3660031901126104825760e0600a54600954600854600b54600c5490600d5492600e5494604051968752602087015260408601526060850152608084015260a083015260c0820152f35b34610482576020366003190112610482576004356151ad6163f9565b6151b5616431565b6151c760ff601b5460081c1615615ded565b6151d2811515615e2e565b335f52602e60205260405f205481811061527a578190335f52602e60205281810360405f2055816001540360015514615267575b6152118133306162d6565b6040519081527f7084f5476618d8e60b11ef0d7d3f06914655adb8793e28ff7f018d4c76d505d560203392a261525461524930615b2b565b546001541115615e5e565b60015f51602061790c5f395f51905f5255005b335f52602f6020525f6040812055615206565b60405162461bcd60e51b815260206004820152600360248201526210905360ea1b6044820152606490fd5b34610482576020366003190112610482576020614dac6004355f525f5160206178cc5f395f51905f52602052600160405f20015490565b34610482576060366003190112610482576152f56158fe565b6152fd615914565b6044359061530a83615af3565b335f9081526020919091526040902054925f19841061532e575b61109193506162d6565b828410615399576001600160a01b03811615615386573315615373576110919361535782615af3565b60018060a01b0333165f526020528360405f2091039055615324565b634a1406b160e11b5f525f60045260245ffd5b63e602df0560e01b5f525f60045260245ffd5b8284637dc7a0d960e11b5f523360045260245260445260645ffd5b34610482575f36600319011261048257602060ff601b5460081c166040519015158152f35b34610482575f3660031901126104825760205f51602061782c5f395f51905f5254604051908152f35b346104825760203660031901126104825761085b61541e61594f565b612c136161b2565b34610482576154896104b661543a36615a11565b929160018060a09693961b031693845f52602860205261545e60405f208583615d90565b5493855f52602960205261547660405f208284615d90565b54955f52602a60205260405f2091615d90565b54604051938493846040919493926060820195825260208201520152565b34610482576060366003190112610482576154c0616156565b600435601355602435601455604435601555005b34610482576020366003190112610482576004356001600160401b038111610482576155049036906004016159e1565b61550c616156565b603281116155a8575f5b81811061551f57005b8061552d6001928486615d6c565b35805f52601e60205260405f2054801515908161559e575b50615552575b5001615516565b805f52601d60205260405f2060ff198154169055805f52601e6020525f60408120557f381e26b872032ced7056a59b9964dccc17682df54313b56303a11660ac1d475b5f80a28461554b565b9050421186615545565b60405162461bcd60e51b815260206004820152601b60248201527f45786365656473206d617820636c656172616e636520626174636800000000006044820152606490fd5b34610482575f36600319011261048257601254601654601354601454601554601854604080516001600160a01b03978816815295871660208701528501939093526060840191909152608083015290911660a082015260c090f35b34610482576040366003190112610482576156616158fe565b602435903315615386576001600160a01b03169081156153735761568433615af3565b825f526020528060405f20556040519081527f8c5be1e5ebec7d5bd14f71427d1e84f3dd0314c0f7b2291e5b200ac8c7c3b92560203392a3602060405160018152f35b34610482575f366003190112610482576040515f5f51602061778c5f395f51905f52546156f381615bb8565b8084529060018116908115612e6f575060011461571a576104b683612df181850382615a54565b5f51602061778c5f395f51905f525f9081527f2ae08a8e29253f69ac5d979a101956ab8f8d9d7ded63fa7a83b16fc47648eab0939250905b80821061576a57509091508101602001612df1612de1565b919260018160209254838588010152019101909291615752565b34610482577fac0f66e3d1a8a7f44dba239d65133bfd60b756b29dd6a4b01c24967cf9711daa6108836157b96108713661598b565b80516020820120805f5260336020526157d860ff60405f205416615b50565b5f5260346020528160405f20556108e460405192839283615b9c565b346104825760403660031901126104825761580d6158fe565b615815615940565b9061581e616107565b6001600160a01b03169081156158725760207f5aada98892218bdd00b2f2dc837b5a51867fedcf13db320aa714028dc2faa7ab91835f52602382526110518160405f209060ff801983541691151516179055565b60405162461bcd60e51b815260206004820152601160248201527024b73b30b634b21018991b989030b2323960791b6044820152606490fd5b34610482576020366003190112610482576004359063ffffffff60e01b821680920361048257602091637965db0b60e01b81149081156158ed575b5015158152f35b6301ffc9a760e01b149050836158e6565b600435906001600160a01b038216820361048257565b602435906001600160a01b038216820361048257565b606435906001600160a01b038216820361048257565b60243590811515820361048257565b60043590811515820361048257565b9181601f84011215610482578235916001600160401b038311610482576020838186019501011161048257565b604060031982011261048257600435906001600160401b038211610482576159b59160040161595e565b909160243590565b805180835260209291819084018484015e5f828201840152601f01601f1916010190565b9181601f84011215610482578235916001600160401b038311610482576020808501948460051b01011161048257565b906040600319830112610482576004356001600160a01b03811681036104825791602435906001600160401b03821161048257615a509160040161595e565b9091565b90601f801991011681019081106001600160401b03821117611d9657604052565b6001600160401b038111611d9657601f01601f191660200190565b60405190615a9f604083615a54565b60058252640312e302e360dc1b6020830152565b34610482575f366003190112610482576104b6612df1615a90565b60405190615add604083615a54565b6007825266047656d537465760cc1b6020830152565b6001600160a01b03165f9081527f52c63247e1f47db19d5ce0460030c497f067ca4cebf71ba98eeadabe20bace016020526040902090565b6001600160a01b03165f9081525f5160206177cc5f395f51905f526020526040902090565b15615b5757565b60405162461bcd60e51b815260206004820152601860248201527f41747465737420766572206e6f7420737570706f7274656400000000000000006044820152606490fd5b929190615bb36020916040865260408601906159bd565b930152565b90600182811c92168015615be6575b6020831014615bd257565b634e487b7160e01b5f52602260045260245ffd5b91607f1691615bc7565b604051905f825f5160206177ec5f395f51905f525491615c0f83615bb8565b8083529260018116908115615ca05750600114615c35575b615c3392500383615a54565b565b505f5160206177ec5f395f51905f525f90815290917f42ad5d3e1f2e6e70edcf6d991b8a3023d3fca8047a131592f9edb9fd9b89d57d5b818310615c84575050906020615c3392820101615c27565b6020919350806001915483858901015201910190918492615c6c565b60209250615c3394915060ff191682840152151560051b820101615c27565b604051905f825f51602061784c5f395f51905f525491615cde83615bb8565b8083529260018116908115615ca05750600114615d0157615c3392500383615a54565b505f51602061784c5f395f51905f525f90815290917f5f9ce34815f8e11431c7bb75a8e6886a91478f7ffc1dbb0a98dc240fddd76b755b818310615d50575050906020615c3392820101615c27565b6020919350806001915483858901015201910190918492615d38565b9190811015615d7c5760051b0190565b634e487b7160e01b5f52603260045260245ffd5b6020919283604051948593843782019081520301902090565b60207f3c325d5acf0a4d131e90e9f4dac8e0166b7146b873092ce78d98a2f3f9f55e6f911515601b5461ff008260081b169061ff00191617601b55604051908152a1565b15615df457565b60405162461bcd60e51b815260206004820152601260248201527111d4ce881cdd185ada5b99c81c185d5cd95960721b6044820152606490fd5b15615e3557565b60405162461bcd60e51b81526020600482015260016024820152600360fc1b6044820152606490fd5b15615e6557565b60405162461bcd60e51b815260206004820152601460248201527311d4ce881cdd185ad959081a5b9d985c9a585b9d60621b6044820152606490fd5b91908203918211611daa57565b15615eb557565b60405162461bcd60e51b815260206004820152601660248201527545786365656473206d61782062617463682073697a6560501b6044820152606490fd5b356001600160a01b03811681036104825790565b903590601e198136030182121561048257018035906001600160401b0382116104825760200191813603831361048257565b81810292918115918404141715611daa57565b15615f5357565b60405162461bcd60e51b815260206004820152600e60248201526d496e76616c696420736f7572636560901b6044820152606490fd5b908060209392818452848401375f828201840152601f01601f1916010190565b15615fb057565b60405162461bcd60e51b815260206004820152601960248201527f47533a204c3120676f7665726e616e6365206e6f7420736574000000000000006044820152606490fd5b15615ffc57565b60405162461bcd60e51b815260206004820152601560248201527447533a206e6f74204c3120676f7665726e616e636560581b6044820152606490fd5b1561604057565b60405162461bcd60e51b815260206004820152601560248201527411d4ce881a5b9d985b1a59081c9958da5c1a595b9d605a1b6044820152606490fd5b3d156160a7573d9061608e82615a75565b9161609c6040519384615a54565b82523d5f602084013e565b606090565b9291926160b882615a75565b916160c66040519384615a54565b829481845281830111610482578281602093845f960137010152565b6001600160a01b03909116815260406020820181905261610493910191615f89565b90565b335f9081527fb7db2dd08fcb62d0c9e08c51941cae53c267786a0b75803fb7960902fc8ef97d602052604090205460ff161561613f57565b63e2517d3f60e01b5f52336004525f60245260445ffd5b335f9081525f5160206177ac5f395f51905f52602052604090205460ff161561617b57565b63e2517d3f60e01b5f52336004527f896f2fe212e7ed9631b6dfe8fc24cd35f4d47b9e9a854d5b0eb08db6295a922c60245260445ffd5b335f9081527f7bcff4f162ccdfbe249cdf3a524fc79b31c8aeaae0e727c4887b8e830a8a2e2d602052604090205460ff16156161ea57565b63e2517d3f60e01b5f52336004527f5358bcfd81d1ef3da152b1755e1c3c6739686fa7e83dbcad0071568cc4b73a6360245260445ffd5b335f9081527f75442b0a96088b5456bc4ed01394c96a4feec0f883c9494257d76b96ab1c9b6b602052604090205460ff161561625957565b63e2517d3f60e01b5f52336004527f65d7a28e3265b37a6474929f336521b332c1681b933f6cb9f3376673440d862a60245260445ffd5b5f8181525f5160206178cc5f395f51905f526020908152604080832033845290915290205460ff16156162c05750565b63e2517d3f60e01b5f523360045260245260445ffd5b6001600160a01b03169081156163e6576001600160a01b03169182156163d35760ff5f5160206178ec5f395f51905f5254166163aa57815f525f5160206177cc5f395f51905f5260205260405f205481811061639157817fddf252ad1be2c89b69c2b068fc378daa952ba7f163c4a11628f55a4df523b3ef92602092855f525f5160206177cc5f395f51905f5284520360405f2055845f525f5160206177cc5f395f51905f52825260405f20818154019055604051908152a3565b8263391434e360e21b5f5260045260245260445260645ffd5b60405162461bcd60e51b81526020600482015260016024820152600560fc1b6044820152606490fd5b63ec442f0560e01b5f525f60045260245ffd5b634b637e8f60e11b5f525f60045260245ffd5b60025f51602061790c5f395f51905f5254146164225760025f51602061790c5f395f51905f5255565b633ee5aeb560e01b5f5260045ffd5b60ff5f5160206178ec5f395f51905f52541661644957565b63d93c066560e01b5f5260045ffd5b6001600160a01b0381165f9081525f51602061786c5f395f51905f52602052604090205460ff166164eb576001600160a01b03165f8181525f51602061786c5f395f51905f5260205260408120805460ff191660011790553391907fe2f4eaae4a9751e85a3e4a7b9587827a877f29914755229b07a7b2da98285f70905f51602061776c5f395f51905f529080a4600190565b505f90565b6001600160a01b0381165f9081527fb7db2dd08fcb62d0c9e08c51941cae53c267786a0b75803fb7960902fc8ef97d602052604090205460ff166164eb576001600160a01b03165f8181527fb7db2dd08fcb62d0c9e08c51941cae53c267786a0b75803fb7960902fc8ef97d60205260408120805460ff191660011790553391905f51602061776c5f395f51905f528180a4600190565b6001600160a01b0381165f9081527f75442b0a96088b5456bc4ed01394c96a4feec0f883c9494257d76b96ab1c9b6b602052604090205460ff166164eb576001600160a01b03165f8181527f75442b0a96088b5456bc4ed01394c96a4feec0f883c9494257d76b96ab1c9b6b60205260408120805460ff191660011790553391907f65d7a28e3265b37a6474929f336521b332c1681b933f6cb9f3376673440d862a905f51602061776c5f395f51905f529080a4600190565b6001600160a01b0381165f9081527f549fe2656c81d2947b3b913f0a53b9ea86c71e049f3a1b8aa23c09a8a05cb8d4602052604090205460ff166164eb576001600160a01b03165f8181527f549fe2656c81d2947b3b913f0a53b9ea86c71e049f3a1b8aa23c09a8a05cb8d460205260408120805460ff191660011790553391907f9f2df0fed2c77648de5860a4cc508cd0818c85b8b8a1ab4ceeef8d981c8956a6905f51602061776c5f395f51905f529080a4600190565b6001600160a01b0381165f9081527f7bcff4f162ccdfbe249cdf3a524fc79b31c8aeaae0e727c4887b8e830a8a2e2d602052604090205460ff166164eb576001600160a01b03165f8181527f7bcff4f162ccdfbe249cdf3a524fc79b31c8aeaae0e727c4887b8e830a8a2e2d60205260408120805460ff191660011790553391907f5358bcfd81d1ef3da152b1755e1c3c6739686fa7e83dbcad0071568cc4b73a63905f51602061776c5f395f51905f529080a4600190565b6001600160a01b0381165f9081527fab71e3f32666744d246edff3f96e4bdafee2e9867098cdd118a979a7464786a8602052604090205460ff166164eb576001600160a01b03165f8181527fab71e3f32666744d246edff3f96e4bdafee2e9867098cdd118a979a7464786a860205260408120805460ff191660011790553391907f189ab7a9244df0848122154315af71fe140f3db0fe014031783b0946b8c9d2e3905f51602061776c5f395f51905f529080a4600190565b6001600160a01b0381165f9081525f51602061788c5f395f51905f52602052604090205460ff166164eb576001600160a01b03165f8181525f51602061788c5f395f51905f5260205260408120805460ff191660011790553391907f80cbedfe0feb1a5b3c44b4c40063bbd0c1bf0466bcf48b89d24bb496164df58b905f51602061776c5f395f51905f529080a4600190565b6001600160a01b0381165f9081525f5160206177ac5f395f51905f52602052604090205460ff166164eb576001600160a01b03165f8181525f5160206177ac5f395f51905f5260205260408120805460ff191660011790553391907f896f2fe212e7ed9631b6dfe8fc24cd35f4d47b9e9a854d5b0eb08db6295a922c905f51602061776c5f395f51905f529080a4600190565b5f8181525f5160206178cc5f395f51905f52602090815260408083206001600160a01b038616845290915290205460ff16616a1c575f8181525f5160206178cc5f395f51905f52602090815260408083206001600160a01b0395909516808452949091528120805460ff19166001179055339291905f51602061776c5f395f51905f529080a4600190565b50505f90565b335f9081525f5160206177ac5f395f51905f52602052604090205460ff168015616ca9575b15616c7557616a573683836160ac565b80519060038210616c3d5760148211616c065760ff60405185858237602081878101601c8152030190205416616bc9575f5b828110616aea5750505060405182828237602081848101601c815203019020600160ff1982541617905581604051928392833781015f81520390207f75115c99042d894d76fbc90c7bbca27de298d397fa273b3bd50ea1794e07fee85f80a2565b8151811015615d7c5760ff60f81b6020828401015116606160f81b8110159081616bba575b8115616b96575b8115616b70575b5015616b2b57600101616a89565b60405162461bcd60e51b815260206004820152601960248201527f496e76616c696420736f757263652063686172616374657273000000000000006044820152606490fd5b600360fc1b811015915081616b87575b505f616b1d565b603960f81b101590505f616b80565b9050604160f81b81101580616bac575b90616b16565b50602d60f91b811115616ba6565b603d60f91b8111159150616b0f565b60405162461bcd60e51b8152602060048201526015602482015274536f7572636520616c72656164792065786973747360581b6044820152606490fd5b60405162461bcd60e51b815260206004820152600f60248201526e536f7572636520746f6f206c6f6e6760881b6044820152606490fd5b60405162461bcd60e51b815260206004820152601060248201526f14dbdd5c98d9481d1bdbc81cda1bdc9d60821b6044820152606490fd5b60405162461bcd60e51b815260206004820152600c60248201526b155b985d5d1a1bdc9a5e995960a21b6044820152606490fd5b50303314616a47565b6001600160a01b0381165f9081525f51602061786c5f395f51905f52602052604090205460ff16156164eb576001600160a01b03165f8181525f51602061786c5f395f51905f5260205260408120805460ff191690553391907fe2f4eaae4a9751e85a3e4a7b9587827a877f29914755229b07a7b2da98285f70907ff6391f5c32d9c69d2a47ea670b442974b53935d1edc7fd64eb21e047a839171b9080a4600190565b5f8181525f5160206178cc5f395f51905f52602090815260408083206001600160a01b038616845290915290205460ff1615616a1c575f8181525f5160206178cc5f395f51905f52602090815260408083206001600160a01b0395909516808452949091528120805460ff19169055339291907ff6391f5c32d9c69d2a47ea670b442974b53935d1edc7fd64eb21e047a839171b9080a4600190565b9091906001600160a01b031680156163e65760ff5f5160206178ec5f395f51905f5254166163aa57805f525f5160206177cc5f395f51905f5260205260405f2054838110616ea4576020845f94957fddf252ad1be2c89b69c2b068fc378daa952ba7f163c4a11628f55a4df523b3ef938587525f5160206177cc5f395f51905f528452036040862055805f51602061782c5f395f51905f5254035f51602061782c5f395f51905f5255604051908152a3565b915063391434e360e21b5f5260045260245260445260645ffd5b6001600160a01b0390811673111100000000000000000000000000000000111101908111611daa576001600160a01b031690565b60ff6006541615616f4d576007544210616f0857565b60405162461bcd60e51b815260206004820152601a60248201527f456d657267656e63792064656c6179206e6f74207061737365640000000000006044820152606490fd5b60405162461bcd60e51b815260206004820152601e60248201527f456d657267656e6379207769746864726177616c732064697361626c656400006044820152606490fd5b91908201809211611daa57565b61703b7f2e05e0fba3ec364ba1385f14b1086c8209fc02216de40d2048994d870230754c91610e106003604051835190602081818701938085835e8101601c815203019020600160ff198254161790556020604051809286518091835e602690820190815203019020805461ffff19166101011781555f60018201556127106002820155015560405160608082529092839290918301906159bd565b60016020830152600160408301520390a1565b6170846108836170cc927feedab8eaa8b4d79b239eb46bc7462090269cc1393333d78e0476ab46c7d796839461087c81836170d1565b80516020820120805f52603360205260405f20600160ff198254161790555f52603960205260405f20600160ff198254161790556040519182916020835260208301906159bd565b0390a1565b508015159081617117575b50156170e457565b60405162461bcd60e51b815260206004820152600b60248201526a2130b2103b32b939b4b7b760a91b6044820152606490fd5b6020915011155f6170dc565b903590601e198136030182121561048257018035906001600160401b03821161048257602001918160051b3603831361048257565b8051602082012060036020604051617171604082615a54565b82815201620312e360ec1b815220146171875790565b50616104615a90565b60ff5f51602061792c5f395f51905f525460401c16156171ac57565b631afcd79f60e31b5f5260045ffd5b6001600160a01b03169081156163d35760ff5f5160206178ec5f395f51905f5254166163aa577fddf252ad1be2c89b69c2b068fc378daa952ba7f163c4a11628f55a4df523b3ef60208261721e5f945f51602061782c5f395f51905f5254616f92565b5f51602061782c5f395f51905f52558484525f5160206177cc5f395f51905f52825260408420818154019055604051908152a3565b9060418151145f1461727b57615a5091602082015190606060408401519301515f1a90617403565b50505f90600290565b600581101561738857806172955750565b600181036172e25760405162461bcd60e51b815260206004820152601860248201527f45434453413a20696e76616c6964207369676e617475726500000000000000006044820152606490fd5b6002810361732f5760405162461bcd60e51b815260206004820152601f60248201527f45434453413a20696e76616c6964207369676e6174757265206c656e677468006044820152606490fd5b60031461733857565b60405162461bcd60e51b815260206004820152602260248201527f45434453413a20696e76616c6964207369676e6174757265202773272076616c604482015261756560f01b6064820152608490fd5b634e487b7160e01b5f52602160045260245ffd5b6173a46175a3565b6173ac61760d565b6040519060208201927f8b73c3c69bb8fe3d512ecc4cf759cc79239f7b179b0ffacaa9a75d522b39400f8452604083015260608201524660808201523060a082015260a081526173fd60c082615a54565b51902090565b7f7fffffffffffffffffffffffffffffff5d576e7357a4501ddfe92f46681b20a08411617473576020935f9360ff60809460405194855216868401526040830152606082015282805260015afa15610c73575f516001600160a01b0381161561746b57905f90565b505f90600190565b505050505f90600390565b600e54603f8110156175a0576b033b2e3c9fd0803ce80000008060018301809311611daa576174af91831c90615ea1565b600c54106175a057600e819055600d54600354906001600160ff1b038111617564578060011b9080820460021490151715611daa5780600d558160011c92831561755b575b917f9047807716ea1aa478fa752fa46e66d563d53fe2b8e3d47dbbdee3ac5873ee46604080935f5160206178ac5f395f51905f52958760035582519182526020820152a1600a8251697265776172645261746560b01b8152209382519182526020820152a2565b600193506174f4565b60405162461bcd60e51b81526020600482015260146024820152734d6f6e74686c7920636170206f766572666c6f7760601b6044820152606490fd5b50565b6175ab615bf0565b80519081156175bb576020012090565b50507fa16a46d94261c7517cc8ff89f61c0ce93598e3c849801011dee649a6a557d1005480156175e85790565b507fc5d2460186f7233c927e7db2dcc703c0e500b653ca82273b7bfad8045d85a47090565b617615615cbf565b8051908115617625576020012090565b50507fa16a46d94261c7517cc8ff89f61c0ce93598e3c849801011dee649a6a557d1015480156175e85790565b61765b906176ac565b801561769f576104b0808211617697575b506103e890818102818104831482151715611daa576107d0900491828103928203900390611f400192565b90505f61766c565b50611f40906103e8908190565b6001600160a01b03165f818152602e60205260409020548015616a1c57692a5a058fc295ed00000081106177385750610384905b5f52602f60205260405f20548015616a1c57420362093a808110616a1c5762ed4e00811161772e575b62e4138060039162093a7f19018302040401906104b0821161772757565b6104b09150565b5062ed4e00617709565b690a968163f0a57b400000811061775357506101f4906176e0565b69021e19e0c9bab2400000116164eb5760c8906176e056fe2f8788117e7eff1d82e926ec794901d17c78024a50270940304540a733656f0d52c63247e1f47db19d5ce0460030c497f067ca4cebf71ba98eeadabe20bace03343583874d6a6b866e04a9f1c90919b6e17fde381cc318cd7d14ee418184279e52c63247e1f47db19d5ce0460030c497f067ca4cebf71ba98eeadabe20bace00a16a46d94261c7517cc8ff89f61c0ce93598e3c849801011dee649a6a557d10252c63247e1f47db19d5ce0460030c497f067ca4cebf71ba98eeadabe20bace0452c63247e1f47db19d5ce0460030c497f067ca4cebf71ba98eeadabe20bace02a16a46d94261c7517cc8ff89f61c0ce93598e3c849801011dee649a6a557d103ed82e8858f919528fd86c81da277f0812ef4876fae8bc5251645af9640d3f49f4e82fbf4a49d060aef499240110a0d87090de43e0de40fc184ec78f4868ed271185daf617c465de5e0042f7aae1503b1a216ea8927cacf296e58b516e82afea802dd7bc7dec4dceedda775e58dd541e08a116c6c53815c0bd028192f7b626800cd5ed15c6e187e77e9aee88184c21f4f2182ab5827cb3b7e07fbedcd63f033009b779b17422d0df92223018b32b4d1fa46e071723d6817e2486d003becc55f00f0c57e16840df040f15088dc2f81fe391c3923bec73e23a9662efc9c229c6a00a26469706673582212208798ff35a82f89c1c89f411a7df0b580502c78f7940f2efee6aa8fd205bb36be64736f6c63430008210033f0c57e16840df040f15088dc2f81fe391c3923bec73e23a9662efc9c229c6a00",
    "sourcePath": "c:/Users/DShar/OneDrive/08-BlockchainDev/8 - GST GemStep_Prod/GSTEP/contracts/GemStepToken.sol",
    "compiler": {
        "name": "solc",
        "version": "0.8.33+commit.64118f21"
    },
    "functionHashes": {
        "DECIMALS()": "2e0f2625",
        "DEFAULT_ADMIN_ROLE()": "a217fddf",
        "DEFAULT_PAYLOAD_VERSION()": "54e1eb4c",
        "DOMAIN_NAME()": "796f077b",
        "DOMAIN_VERSION()": "acb8cc49",
        "addSource(string)": "ed62d2ff",
        "addSupportedAttestationVersion(string)": "c3483a2a",
        "addSupportedPayloadVersion(string)": "991c6a95",
        "addSupportedVersion(string)": "8032c297",
        "addTrustedDevice(address)": "e4bafabb",
        "allowance(address,address)": "dd62ed3e",
        "approve(address,uint256)": "095ea7b3",
        "approveRecipient(address,bool)": "ae0bbe4d",
        "balanceOf(address)": "70a08231",
        "batchAddSigners(address[])": "3492600d",
        "batchAddSources(string[])": "35466aca",
        "batchRemoveSigners(address[])": "f217ba6c",
        "burn(uint256)": "42966c68",
        "cap()": "355274ea",
        "clearExpiredSignatures(bytes32[])": "1039917e",
        "configureSource(string,bool,bool)": "86b414e9",
        "decimals()": "313ce567",
        "deprecateAttestationVersion(string,uint256)": "05152742",
        "deprecatePayloadVersion(string,uint256)": "e976f5d3",
        "eip712Domain()": "84b0196e",
        "emergencyPingL1(address,bytes)": "d957caaa",
        "emergencyWithdraw(uint256)": "5312ea8e",
        "emergencyWithdrawERC20(address,address,uint256)": "55b8fb81",
        "emergencyWithdrawETH(address,uint256)": "d79e8567",
        "getArbitrumConfig()": "0e1508d9",
        "getContractStakingState()": "30a12f88",
        "getCoreParams()": "fb41f710",
        "getEmergencyStatus()": "fa37273c",
        "getGuardsBundle(bytes32,address,bytes32,address,bytes32)": "50ce155f",
        "getL1Governance()": "f5e2bebb",
        "getL1GovernanceStatus()": "51596c56",
        "getMintingState()": "27701f75",
        "getRoleAdmin(bytes32)": "248a9ca3",
        "getSourceConfigFields(string)": "3a5ceb2e",
        "getStakeInfo(address)": "c3453153",
        "getStakeParams()": "6cc3eac8",
        "getStakePolicy()": "2fc9cbaf",
        "getUserBasics(address)": "83a7ede4",
        "getUserCoreStatus(address)": "d8e5194e",
        "getUserSourceNonce(address,string)": "455fba88",
        "getUserSourceStats(address,string)": "11c9a3a6",
        "getVersionPolicy(bytes32)": "e60edc47",
        "grantRole(bytes32,address)": "2f2ff15d",
        "hasRole(bytes32,address)": "91d14854",
        "initialize(uint256,address,address,address)": "754d1d54",
        "initializeArbitrum(address,address)": "c7f6fbfe",
        "isSourceValid(string)": "71f91a8f",
        "isStakingPaused()": "1ea7ca89",
        "isTrustedDevice(address)": "7ed56410",
        "l2SetPause(bool)": "541992f7",
        "l2SetStakingPause(bool)": "9e4484dd",
        "l2UpdateParams(uint256,uint256)": "f4e7a0e5",
        "logSteps((address,address,uint256,uint256,uint256,string,string),(bytes,bytes32[],bytes))": "a4e521dd",
        "name()": "06fdde03",
        "nonces(address)": "7ecebe00",
        "pause()": "8456cb59",
        "paused()": "5c975abb",
        "removeSource(string)": "99934fcd",
        "renounceRole(bytes32,address)": "36568abe",
        "revokeRole(bytes32,address)": "d547741f",
        "setAnomalyThreshold(uint256)": "29798846",
        "setAttestationNonceRequired(string,bool)": "66639b9e",
        "setL1Governance(address)": "e40272d7",
        "setMultisig(address)": "f3283fba",
        "setPriceOracle(address)": "530e784f",
        "setSourceMerkleRoot(string,bytes32)": "48ea00aa",
        "setStakingPaused(bool)": "15b31bbb",
        "setTreasury(address)": "f0f44260",
        "setTrusted1271(address,bool)": "0493287c",
        "setTrustedAPI(address,bool)": "a5414649",
        "stake(uint256)": "a694fc3a",
        "supportsInterface(bytes4)": "01ffc9a7",
        "symbol()": "95d89b41",
        "toggleEmergencyWithdraw(bool)": "706bb6ab",
        "totalSupply()": "18160ddd",
        "transfer(address,uint256)": "a9059cbb",
        "transferAdminRoles()": "81f9a84b",
        "transferFrom(address,address,uint256)": "23b872dd",
        "treasury()": "61d027b3",
        "unpause()": "3f4ba83a",
        "updateArbitrumGasParams(uint256,uint256,uint256)": "1175a1c9",
        "withdrawStake(uint256)": "25d5971f"
    },
    "gasEstimates": {
        "creation": {
            "codeDepositCost": "6221000",
            "executionCost": "infinite",
            "totalCost": "infinite"
        },
        "external": {
            "DECIMALS()": "530",
            "DEFAULT_ADMIN_ROLE()": "1475",
            "DEFAULT_PAYLOAD_VERSION()": "1290",
            "DOMAIN_NAME()": "1498",
            "DOMAIN_VERSION()": "1928",
            "addSource(string)": "infinite",
            "addSupportedAttestationVersion(string)": "infinite",
            "addSupportedPayloadVersion(string)": "infinite",
            "addSupportedVersion(string)": "infinite",
            "addTrustedDevice(address)": "infinite",
            "allowance(address,address)": "4226",
            "approve(address,uint256)": "24446",
            "approveRecipient(address,bool)": "29782",
            "balanceOf(address)": "infinite",
            "batchAddSigners(address[])": "infinite",
            "batchAddSources(string[])": "infinite",
            "batchRemoveSigners(address[])": "infinite",
            "burn(uint256)": "infinite",
            "cap()": "688",
            "clearExpiredSignatures(bytes32[])": "infinite",
            "configureSource(string,bool,bool)": "infinite",
            "decimals()": "618",
            "deprecateAttestationVersion(string,uint256)": "infinite",
            "deprecatePayloadVersion(string,uint256)": "infinite",
            "eip712Domain()": "infinite",
            "emergencyPingL1(address,bytes)": "infinite",
            "emergencyWithdraw(uint256)": "infinite",
            "emergencyWithdrawERC20(address,address,uint256)": "infinite",
            "emergencyWithdrawETH(address,uint256)": "infinite",
            "getArbitrumConfig()": "13019",
            "getContractStakingState()": "infinite",
            "getCoreParams()": "10505",
            "getEmergencyStatus()": "6290",
            "getGuardsBundle(bytes32,address,bytes32,address,bytes32)": "14161",
            "getL1Governance()": "4131",
            "getL1GovernanceStatus()": "3159",
            "getMintingState()": "15306",
            "getRoleAdmin(bytes32)": "infinite",
            "getSourceConfigFields(string)": "infinite",
            "getStakeInfo(address)": "6065",
            "getStakeParams()": "7412",
            "getStakePolicy()": "736",
            "getUserBasics(address)": "infinite",
            "getUserCoreStatus(address)": "14917",
            "getUserSourceNonce(address,string)": "infinite",
            "getUserSourceStats(address,string)": "infinite",
            "getVersionPolicy(bytes32)": "12782",
            "grantRole(bytes32,address)": "33818",
            "hasRole(bytes32,address)": "infinite",
            "initialize(uint256,address,address,address)": "infinite",
            "initializeArbitrum(address,address)": "52603",
            "isSourceValid(string)": "infinite",
            "isStakingPaused()": "2519",
            "isTrustedDevice(address)": "3477",
            "l2SetPause(bool)": "infinite",
            "l2SetStakingPause(bool)": "29133",
            "l2UpdateParams(uint256,uint256)": "infinite",
            "logSteps((address,address,uint256,uint256,uint256,string,string),(bytes,bytes32[],bytes))": "infinite",
            "name()": "infinite",
            "nonces(address)": "3443",
            "pause()": "infinite",
            "paused()": "infinite",
            "removeSource(string)": "infinite",
            "renounceRole(bytes32,address)": "29449",
            "revokeRole(bytes32,address)": "34930",
            "setAnomalyThreshold(uint256)": "infinite",
            "setAttestationNonceRequired(string,bool)": "infinite",
            "setL1Governance(address)": "29506",
            "setMultisig(address)": "29535",
            "setPriceOracle(address)": "28551",
            "setSourceMerkleRoot(string,bytes32)": "infinite",
            "setStakingPaused(bool)": "27910",
            "setTreasury(address)": "29585",
            "setTrusted1271(address,bool)": "28280",
            "setTrustedAPI(address,bool)": "infinite",
            "stake(uint256)": "infinite",
            "supportsInterface(bytes4)": "273",
            "symbol()": "infinite",
            "toggleEmergencyWithdraw(bool)": "53152",
            "totalSupply()": "infinite",
            "transfer(address,uint256)": "infinite",
            "transferAdminRoles()": "infinite",
            "transferFrom(address,address,uint256)": "infinite",
            "treasury()": "3141",
            "unpause()": "infinite",
            "updateArbitrumGasParams(uint256,uint256,uint256)": "68856",
            "withdrawStake(uint256)": "infinite"
        },
        "internal": {
            "_applyStakeDiscountToSplit(address,uint256,uint256,uint256)": "infinite",
            "_cutDiscountBps(address)": "infinite",
            "_mintWithCap(address,uint256)": "infinite"
        }
    }
}